{
  "_format": "hh-sol-artifact-1",
  "contractName": "CreateWallet",
  "sourceName": "contracts/CreateWallet.sol",
  "abi": [
    {
      "anonymous": false,
      "inputs": [
        {
          "indexed": false,
          "internalType": "address",
          "name": "contractAddress",
          "type": "address"
        }
      ],
      "name": "created",
      "type": "event"
    },
    {
      "inputs": [],
      "name": "CreateParentalWallet",
      "outputs": [],
      "stateMutability": "nonpayable",
      "type": "function"
    },
    {
      "inputs": [
        {
          "internalType": "address",
          "name": "a",
          "type": "address"
        }
      ],
      "name": "getNotifyStatus",
      "outputs": [
        {
          "internalType": "bool",
          "name": "",
          "type": "bool"
        }
      ],
      "stateMutability": "view",
      "type": "function"
    },
    {
      "inputs": [
        {
          "internalType": "address",
          "name": "a",
          "type": "address"
        }
      ],
      "name": "joinWallet",
      "outputs": [
        {
          "internalType": "address",
          "name": "",
          "type": "address"
        }
      ],
      "stateMutability": "view",
      "type": "function"
    },
    {
      "inputs": [],
      "name": "onNotification",
      "outputs": [],
      "stateMutability": "nonpayable",
      "type": "function"
    }
  ],
  "bytecode": "0x608060405234801561001057600080fd5b506140f5806100206000396000f3fe60806040523480156200001157600080fd5b5060043610620000525760003560e01c8063065603bf14620000575780632cd25b8e146200008d5780636a804bcd1462000099578063797c2edc14620000cf575b600080fd5b6200007560048036038101906200006f919062000724565b620000db565b60405162000084919062000863565b60405180910390f35b620000976200018c565b005b620000b76004803603810190620000b1919062000724565b62000426565b604051620000c6919062000846565b60405180910390f35b620000d962000632565b005b6000806000808473ffffffffffffffffffffffffffffffffffffffff1673ffffffffffffffffffffffffffffffffffffffff16815260200190815260200160002090508060000160149054906101000a900460ff1662000172576040517f08c379a00000000000000000000000000000000000000000000000000000000081526004016200016990620008c4565b60405180910390fd5b8060000160159054906101000a900460ff16915050919050565b60008060003373ffffffffffffffffffffffffffffffffffffffff1673ffffffffffffffffffffffffffffffffffffffff1681526020019081526020016000206040518060600160405290816000820160009054906101000a900473ffffffffffffffffffffffffffffffffffffffff1673ffffffffffffffffffffffffffffffffffffffff1673ffffffffffffffffffffffffffffffffffffffff1681526020016000820160149054906101000a900460ff161515151581526020016000820160159054906101000a900460ff1615151515815250509050806020015115620002ad576040517f08c379a0000000000000000000000000000000000000000000000000000000008152600401620002a49062000880565b60405180910390fd5b600033604051620002be90620006e8565b620002ca919062000846565b604051809103906000f080158015620002e7573d6000803e3d6000fd5b50905060405180606001604052808273ffffffffffffffffffffffffffffffffffffffff168152602001600115158152602001600015158152506000803373ffffffffffffffffffffffffffffffffffffffff1673ffffffffffffffffffffffffffffffffffffffff16815260200190815260200160002060008201518160000160006101000a81548173ffffffffffffffffffffffffffffffffffffffff021916908373ffffffffffffffffffffffffffffffffffffffff16021790555060208201518160000160146101000a81548160ff02191690831515021790555060408201518160000160156101000a81548160ff0219169083151502179055509050507fd42efd83974d1c72972b3f04b70c897fca3c5befd9edca06f91e3034b0665bfc816040516200041a919062000846565b60405180910390a15050565b6000806000808473ffffffffffffffffffffffffffffffffffffffff1673ffffffffffffffffffffffffffffffffffffffff1681526020019081526020016000206040518060600160405290816000820160009054906101000a900473ffffffffffffffffffffffffffffffffffffffff1673ffffffffffffffffffffffffffffffffffffffff1673ffffffffffffffffffffffffffffffffffffffff1681526020016000820160149054906101000a900460ff161515151581526020016000820160159054906101000a900460ff1615151515815250509050806020015162000547576040517f08c379a00000000000000000000000000000000000000000000000000000000081526004016200053e90620008c4565b60405180910390fd5b6000816000015190508073ffffffffffffffffffffffffffffffffffffffff16634209fff1336040518263ffffffff1660e01b81526004016200058b919062000846565b60206040518083038186803b158015620005a457600080fd5b505afa158015620005b9573d6000803e3d6000fd5b505050506040513d601f19601f82011682018060405250810190620005df919062000756565b15620005f05780925050506200062d565b6040517f08c379a00000000000000000000000000000000000000000000000000000000081526004016200062490620008e6565b60405180910390fd5b919050565b60008060003373ffffffffffffffffffffffffffffffffffffffff1673ffffffffffffffffffffffffffffffffffffffff16815260200190815260200160002090508060000160149054906101000a900460ff16620006c8576040517f08c379a0000000000000000000000000000000000000000000000000000000008152600401620006bf90620008a2565b60405180910390fd5b60018160000160156101000a81548160ff02191690831515021790555050565b6136638062000a5d83390190565b600081359050620007078162000a28565b92915050565b6000815190506200071e8162000a42565b92915050565b6000602082840312156200073d576200073c62000959565b5b60006200074d84828501620006f6565b91505092915050565b6000602082840312156200076f576200076e62000959565b5b60006200077f848285016200070d565b91505092915050565b620007938162000919565b82525050565b620007a4816200092d565b82525050565b6000620007b9601e8362000908565b9150620007c6826200095e565b602082019050919050565b6000620007e0601c8362000908565b9150620007ed8262000987565b602082019050919050565b600062000807601b8362000908565b91506200081482620009b0565b602082019050919050565b60006200082e60218362000908565b91506200083b82620009d9565b604082019050919050565b60006020820190506200085d600083018462000788565b92915050565b60006020820190506200087a600083018462000799565b92915050565b600060208201905081810360008301526200089b81620007aa565b9050919050565b60006020820190508181036000830152620008bd81620007d1565b9050919050565b60006020820190508181036000830152620008df81620007f8565b9050919050565b6000602082019050818103600083015262000901816200081f565b9050919050565b600082825260208201905092915050565b6000620009268262000939565b9050919050565b60008115159050919050565b600073ffffffffffffffffffffffffffffffffffffffff82169050919050565b600080fd5b7f7573657220616c726561647920657869737420696e2073797374656d21210000600082015250565b7f596f7520617265206e6f7420612057616c6c6574206f776e6572212100000000600082015250565b7f7573657220646f6e7420657869737420696e2073797374656d21210000000000600082015250565b7f596f7520617265206e6f74205573657220666f7220746869732061646472657360008201527f7300000000000000000000000000000000000000000000000000000000000000602082015250565b62000a338162000919565b811462000a3f57600080fd5b50565b62000a4d816200092d565b811462000a5957600080fd5b5056fe60806040523480156200001157600080fd5b506040516200366338038062003663833981810160405281019062000037919062000255565b6001819080600181540180825580915050600190039060005260206000200160009091909190916101000a81548173ffffffffffffffffffffffffffffffffffffffff021916908373ffffffffffffffffffffffffffffffffffffffff160217905550620000cc7f69f954bacb30026c76d33aa93eeaa3ee996e69e6170d10c3495fe7a1b5a82d7182620000db60201b60201c565b600160038190555050620002da565b620000ed8282620001cc60201b60201c565b620001c857600160008084815260200190815260200160002060000160008373ffffffffffffffffffffffffffffffffffffffff1673ffffffffffffffffffffffffffffffffffffffff16815260200190815260200160002060006101000a81548160ff0219169083151502179055506200016d6200023660201b60201c565b73ffffffffffffffffffffffffffffffffffffffff168173ffffffffffffffffffffffffffffffffffffffff16837f2f8788117e7eff1d82e926ec794901d17c78024a50270940304540a733656f0d60405160405180910390a45b5050565b600080600084815260200190815260200160002060000160008373ffffffffffffffffffffffffffffffffffffffff1673ffffffffffffffffffffffffffffffffffffffff16815260200190815260200160002060009054906101000a900460ff16905092915050565b600033905090565b6000815190506200024f81620002c0565b92915050565b6000602082840312156200026e576200026d620002bb565b5b60006200027e848285016200023e565b91505092915050565b600062000294826200029b565b9050919050565b600073ffffffffffffffffffffffffffffffffffffffff82169050919050565b600080fd5b620002cb8162000287565b8114620002d757600080fd5b50565b61337980620002ea6000396000f3fe60806040526004361061016a5760003560e01c80635d845dcb116100d1578063ae30dc3f1161008a578063d547741f11610064578063d547741f1461053d578063dd6133b514610566578063e168c3ec14610591578063f264a669146105bc57610171565b8063ae30dc3f146104c2578063b7fa9c6e146104eb578063c82555d61461051457610171565b80635d845dcb1461038957806380f59a65146103b257806391d14854146103ef5780639ace38c21461042c578063a217fddf1461046e578063acf36e531461049957610171565b80632f2ff15d116101235780632f2ff15d1461029a57806336568abe146102c35780634209fff1146102ec5780634892e8e81461032957806359705f81146103545780635b37930b1461037f57610171565b806301ffc9a71461017657806312065fe0146101b35780631eee993a146101de578063200c781114610207578063248a9ca3146102325780632e7700f01461026f57610171565b3661017157005b600080fd5b34801561018257600080fd5b5061019d60048036038101906101989190612335565b6105e7565b6040516101aa919061299c565b60405180910390f35b3480156101bf57600080fd5b506101c8610661565b6040516101d59190612bd4565b60405180910390f35b3480156101ea57600080fd5b506102056004803603810190610200919061225b565b610669565b005b34801561021357600080fd5b5061021c610837565b60405161022991906129b7565b60405180910390f35b34801561023e57600080fd5b50610259600480360381019061025491906122c8565b61085b565b60405161026691906129b7565b60405180910390f35b34801561027b57600080fd5b5061028461087a565b6040516102919190612bd4565b60405180910390f35b3480156102a657600080fd5b506102c160048036038101906102bc91906122f5565b610887565b005b3480156102cf57600080fd5b506102ea60048036038101906102e591906122f5565b6108a8565b005b3480156102f857600080fd5b50610313600480360381019061030e919061225b565b61092b565b604051610320919061299c565b60405180910390f35b34801561033557600080fd5b5061033e61098f565b60405161034b9190612958565b60405180910390f35b34801561036057600080fd5b50610369610a1d565b604051610376919061297a565b60405180910390f35b610387610b61565b005b34801561039557600080fd5b506103b060048036038101906103ab9190612362565b610bb1565b005b3480156103be57600080fd5b506103d960048036038101906103d4919061238f565b610ef8565b6040516103e6919061299c565b60405180910390f35b3480156103fb57600080fd5b50610416600480360381019061041191906122f5565b610f27565b604051610423919061299c565b60405180910390f35b34801561043857600080fd5b50610453600480360381019061044e9190612362565b610f91565b604051610465969594939291906128f7565b60405180910390f35b34801561047a57600080fd5b5061048361102a565b60405161049091906129b7565b60405180910390f35b3480156104a557600080fd5b506104c060048036038101906104bb919061225b565b611031565b005b3480156104ce57600080fd5b506104e960048036038101906104e49190612362565b611214565b005b3480156104f757600080fd5b50610512600480360381019061050d9190612362565b6114d9565b005b34801561052057600080fd5b5061053b60048036038101906105369190612288565b61199b565b005b34801561054957600080fd5b50610564600480360381019061055f91906122f5565b611c0e565b005b34801561057257600080fd5b5061057b611c2f565b6040516105889190612958565b60405180910390f35b34801561059d57600080fd5b506105a6611cbd565b6040516105b39190612bd4565b60405180910390f35b3480156105c857600080fd5b506105d1611cc3565b6040516105de91906129b7565b60405180910390f35b60007f7965db0b000000000000000000000000000000000000000000000000000000007bffffffffffffffffffffffffffffffffffffffffffffffffffffffff1916827bffffffffffffffffffffffffffffffffffffffffffffffffffffffff1916148061065a575061065982611ce7565b5b9050919050565b600047905090565b7f69f954bacb30026c76d33aa93eeaa3ee996e69e6170d10c3495fe7a1b5a82d7161069381611d51565b600073ffffffffffffffffffffffffffffffffffffffff168273ffffffffffffffffffffffffffffffffffffffff161415610703576040517f08c379a00000000000000000000000000000000000000000000000000000000081526004016106fa90612b74565b60405180910390fd5b61072d7f1259e29d9bae6d985de2aa88464bb648989ed5ed903940f680996ff13d0578bf83610f27565b1561076d576040517f08c379a000000000000000000000000000000000000000000000000000000000815260040161076490612a14565b60405180910390fd5b6002829080600181540180825580915050600190039060005260206000200160009091909190916101000a81548173ffffffffffffffffffffffffffffffffffffffff021916908373ffffffffffffffffffffffffffffffffffffffff1602179055506107fa7f1259e29d9bae6d985de2aa88464bb648989ed5ed903940f680996ff13d0578bf83611d65565b7f9f99f6ef4833f7d0737cb74d2dea9db5ebe91d8e0f458d6fa4e7cfc55f9c0377823360405161082b9291906128ce565b60405180910390a15050565b7f69f954bacb30026c76d33aa93eeaa3ee996e69e6170d10c3495fe7a1b5a82d7181565b6000806000838152602001908152602001600020600101549050919050565b6000600580549050905090565b6108908261085b565b61089981611d51565b6108a38383611d65565b505050565b6108b0611e45565b73ffffffffffffffffffffffffffffffffffffffff168173ffffffffffffffffffffffffffffffffffffffff161461091d576040517f08c379a000000000000000000000000000000000000000000000000000000000815260040161091490612bb4565b60405180910390fd5b6109278282611e4d565b5050565b60006109577f69f954bacb30026c76d33aa93eeaa3ee996e69e6170d10c3495fe7a1b5a82d7183610f27565b8061098857506109877f1259e29d9bae6d985de2aa88464bb648989ed5ed903940f680996ff13d0578bf83610f27565b5b9050919050565b60606002805480602002602001604051908101604052809291908181526020018280548015610a1357602002820191906000526020600020905b8160009054906101000a900473ffffffffffffffffffffffffffffffffffffffff1673ffffffffffffffffffffffffffffffffffffffff16815260200190600101908083116109c9575b5050505050905090565b60606005805480602002602001604051908101604052809291908181526020016000905b82821015610b5857838290600052602060002090600602016040518060c00160405290816000820160009054906101000a900473ffffffffffffffffffffffffffffffffffffffff1673ffffffffffffffffffffffffffffffffffffffff1673ffffffffffffffffffffffffffffffffffffffff1681526020016001820160009054906101000a900473ffffffffffffffffffffffffffffffffffffffff1673ffffffffffffffffffffffffffffffffffffffff1673ffffffffffffffffffffffffffffffffffffffff168152602001600282015481526020016003820160009054906101000a900460ff161515151581526020016004820154815260200160058201548152505081526020019060010190610a41565b50505050905090565b3373ffffffffffffffffffffffffffffffffffffffff167fe1fffcc4923d04b559f4d29a8bfc6cda04eb5b0d3c460751c2402c5c5cc9109c34604051610ba79190612bd4565b60405180910390a2565b7f69f954bacb30026c76d33aa93eeaa3ee996e69e6170d10c3495fe7a1b5a82d71610bdb81611d51565b600182610be89190612d43565b6005805490508110610c2f576040517f08c379a0000000000000000000000000000000000000000000000000000000008152600401610c2690612a74565b60405180910390fd5b600183610c3c9190612d43565b60058181548110610c5057610c4f612ef9565b5b906000526020600020906006020160030160009054906101000a900460ff1615610caf576040517f08c379a0000000000000000000000000000000000000000000000000000000008152600401610ca690612b54565b60405180910390fd5b600184610cbc9190612d43565b6004600082815260200190815260200160002060003373ffffffffffffffffffffffffffffffffffffffff1673ffffffffffffffffffffffffffffffffffffffff16815260200190815260200160002060009054906101000a900460ff1615610d5a576040517f08c379a0000000000000000000000000000000000000000000000000000000008152600401610d5190612af4565b60405180910390fd5b60006005600187610d6b9190612d43565b81548110610d7c57610d7b612ef9565b5b90600052602060002090600602019050600354816004015410610dd4576040517f08c379a0000000000000000000000000000000000000000000000000000000008152600401610dcb90612b14565b60405180910390fd5b4781600201541115610e1b576040517f08c379a0000000000000000000000000000000000000000000000000000000008152600401610e1290612b94565b60405180910390fd5b6001816004016000828254610e309190612c93565b92505081905550600160046000600189610e4a9190612d43565b815260200190815260200160002060003373ffffffffffffffffffffffffffffffffffffffff1673ffffffffffffffffffffffffffffffffffffffff16815260200190815260200160002060006101000a81548160ff021916908315150217905550853373ffffffffffffffffffffffffffffffffffffffff167f6f315954c385fbab81f9695ad5677985ae06e1d323c5d9883f7502303a41f92260405160405180910390a3505050505050565b60046020528160005260406000206020528060005260406000206000915091509054906101000a900460ff1681565b600080600084815260200190815260200160002060000160008373ffffffffffffffffffffffffffffffffffffffff1673ffffffffffffffffffffffffffffffffffffffff16815260200190815260200160002060009054906101000a900460ff16905092915050565b60058181548110610fa157600080fd5b90600052602060002090600602016000915090508060000160009054906101000a900473ffffffffffffffffffffffffffffffffffffffff16908060010160009054906101000a900473ffffffffffffffffffffffffffffffffffffffff16908060020154908060030160009054906101000a900460ff16908060040154908060050154905086565b6000801b81565b7f69f954bacb30026c76d33aa93eeaa3ee996e69e6170d10c3495fe7a1b5a82d7161105b81611d51565b600073ffffffffffffffffffffffffffffffffffffffff168273ffffffffffffffffffffffffffffffffffffffff1614156110cb576040517f08c379a00000000000000000000000000000000000000000000000000000000081526004016110c290612ad4565b60405180910390fd5b6110f57f69f954bacb30026c76d33aa93eeaa3ee996e69e6170d10c3495fe7a1b5a82d7183610f27565b15611135576040517f08c379a000000000000000000000000000000000000000000000000000000000815260040161112c90612a34565b60405180910390fd5b6001829080600181540180825580915050600190039060005260206000200160009091909190916101000a81548173ffffffffffffffffffffffffffffffffffffffff021916908373ffffffffffffffffffffffffffffffffffffffff16021790555060016003546111a79190612c93565b6003819055506111d77f69f954bacb30026c76d33aa93eeaa3ee996e69e6170d10c3495fe7a1b5a82d7183611d65565b7f89e06188aa7e0d6ccbf53723da8de978ddd0827ac0e3529c65d1f2cf938628ff82336040516112089291906128ce565b60405180910390a15050565b7f69f954bacb30026c76d33aa93eeaa3ee996e69e6170d10c3495fe7a1b5a82d7161123e81611d51565b60018261124b9190612d43565b6005805490508110611292576040517f08c379a000000000000000000000000000000000000000000000000000000000815260040161128990612a74565b60405180910390fd5b60018361129f9190612d43565b600581815481106112b3576112b2612ef9565b5b906000526020600020906006020160030160009054906101000a900460ff1615611312576040517f08c379a000000000000000000000000000000000000000000000000000000000815260040161130990612b54565b60405180910390fd5b600060056001866113239190612d43565b8154811061133457611333612ef9565b5b9060005260206000209060060201905060035481600401541461138c576040517f08c379a000000000000000000000000000000000000000000000000000000000815260040161138390612a54565b60405180910390fd5b60018160030160006101000a81548160ff02191690831515021790555060008160010160009054906101000a900473ffffffffffffffffffffffffffffffffffffffff1673ffffffffffffffffffffffffffffffffffffffff16614e2083600201546040516113fa9061287f565b600060405180830381858888f193505050503d8060008114611438576040519150601f19603f3d011682016040523d82523d6000602084013e61143d565b606091505b5050905080611481576040517f08c379a000000000000000000000000000000000000000000000000000000000815260040161147890612a94565b60405180910390fd5b60018661148e9190612d43565b3373ffffffffffffffffffffffffffffffffffffffff167f7b97296edc75a36a401f12e0613cb8b04d49b77d790dcf26a9b3a53c9ef24c9360405160405180910390a3505050505050565b7f69f954bacb30026c76d33aa93eeaa3ee996e69e6170d10c3495fe7a1b5a82d7161150381611d51565b6001826115109190612d43565b6005805490508110611557576040517f08c379a000000000000000000000000000000000000000000000000000000000815260040161154e90612a74565b60405180910390fd5b6001836115649190612d43565b6005818154811061157857611577612ef9565b5b906000526020600020906006020160030160009054906101000a900460ff16156115d7576040517f08c379a00000000000000000000000000000000000000000000000000000000081526004016115ce90612b54565b60405180910390fd5b6005805490506001856115ea9190612d43565b1061162a576040517f08c379a000000000000000000000000000000000000000000000000000000000815260040161162190612b34565b60405180910390fd5b60006001856116399190612d43565b90505b600160058054905061164e9190612d43565b8110156117d45760056001826116649190612c93565b8154811061167557611674612ef9565b5b90600052602060002090600602016005828154811061169757611696612ef9565b5b90600052602060002090600602016000820160009054906101000a900473ffffffffffffffffffffffffffffffffffffffff168160000160006101000a81548173ffffffffffffffffffffffffffffffffffffffff021916908373ffffffffffffffffffffffffffffffffffffffff1602179055506001820160009054906101000a900473ffffffffffffffffffffffffffffffffffffffff168160010160006101000a81548173ffffffffffffffffffffffffffffffffffffffff021916908373ffffffffffffffffffffffffffffffffffffffff160217905550600282015481600201556003820160009054906101000a900460ff168160030160006101000a81548160ff021916908315150217905550600482015481600401556005820154816005015590505080806117cc90612e52565b91505061163c565b5060058054806117e7576117e6612eca565b5b6001900381819060005260206000209060060201600080820160006101000a81549073ffffffffffffffffffffffffffffffffffffffff02191690556001820160006101000a81549073ffffffffffffffffffffffffffffffffffffffff021916905560028201600090556003820160006101000a81549060ff0219169055600482016000905560058201600090555050905560005b6001805490508110156119505760006004600060018861189d9190612d43565b81526020019081526020016000206000600184815481106118c1576118c0612ef9565b5b9060005260206000200160009054906101000a900473ffffffffffffffffffffffffffffffffffffffff1673ffffffffffffffffffffffffffffffffffffffff1673ffffffffffffffffffffffffffffffffffffffff16815260200190815260200160002060006101000a81548160ff021916908315150217905550808061194890612e52565b91505061187d565b50833373ffffffffffffffffffffffffffffffffffffffff167ff7d3316de78d34a2b6a24ed3da8db473c3349d4ef5f01d32ef556014d97fd89660405160405180910390a350505050565b6119c57f69f954bacb30026c76d33aa93eeaa3ee996e69e6170d10c3495fe7a1b5a82d7133610f27565b806119f657506119f57f1259e29d9bae6d985de2aa88464bb648989ed5ed903940f680996ff13d0578bf33610f27565b5b611a35576040517f08c379a0000000000000000000000000000000000000000000000000000000008152600401611a2c90612ab4565b60405180910390fd5b6000600580549050905060056040518060c001604052803373ffffffffffffffffffffffffffffffffffffffff1681526020018573ffffffffffffffffffffffffffffffffffffffff16815260200184815260200160001515815260200160008152602001600354815250908060018154018082558091505060019003906000526020600020906006020160009091909190915060008201518160000160006101000a81548173ffffffffffffffffffffffffffffffffffffffff021916908373ffffffffffffffffffffffffffffffffffffffff16021790555060208201518160010160006101000a81548173ffffffffffffffffffffffffffffffffffffffff021916908373ffffffffffffffffffffffffffffffffffffffff1602179055506040820151816002015560608201518160030160006101000a81548160ff0219169083151502179055506080820151816004015560a0820151816005015550508273ffffffffffffffffffffffffffffffffffffffff16600182611bbb9190612c93565b3373ffffffffffffffffffffffffffffffffffffffff167f941bd0ada49d76f3ef7a5ec4d0f0aa4b60eabdf543214a83b699526fe0a9756885604051611c019190612bd4565b60405180910390a4505050565b611c178261085b565b611c2081611d51565b611c2a8383611e4d565b505050565b60606001805480602002602001604051908101604052809291908181526020018280548015611cb357602002820191906000526020600020905b8160009054906101000a900473ffffffffffffffffffffffffffffffffffffffff1673ffffffffffffffffffffffffffffffffffffffff1681526020019060010190808311611c69575b5050505050905090565b60035481565b7f1259e29d9bae6d985de2aa88464bb648989ed5ed903940f680996ff13d0578bf81565b60007f01ffc9a7000000000000000000000000000000000000000000000000000000007bffffffffffffffffffffffffffffffffffffffffffffffffffffffff1916827bffffffffffffffffffffffffffffffffffffffffffffffffffffffff1916149050919050565b611d6281611d5d611e45565b611f2e565b50565b611d6f8282610f27565b611e4157600160008084815260200190815260200160002060000160008373ffffffffffffffffffffffffffffffffffffffff1673ffffffffffffffffffffffffffffffffffffffff16815260200190815260200160002060006101000a81548160ff021916908315150217905550611de6611e45565b73ffffffffffffffffffffffffffffffffffffffff168173ffffffffffffffffffffffffffffffffffffffff16837f2f8788117e7eff1d82e926ec794901d17c78024a50270940304540a733656f0d60405160405180910390a45b5050565b600033905090565b611e578282610f27565b15611f2a57600080600084815260200190815260200160002060000160008373ffffffffffffffffffffffffffffffffffffffff1673ffffffffffffffffffffffffffffffffffffffff16815260200190815260200160002060006101000a81548160ff021916908315150217905550611ecf611e45565b73ffffffffffffffffffffffffffffffffffffffff168173ffffffffffffffffffffffffffffffffffffffff16837ff6391f5c32d9c69d2a47ea670b442974b53935d1edc7fd64eb21e047a839171b60405160405180910390a45b5050565b611f388282610f27565b611fc757611f5d8173ffffffffffffffffffffffffffffffffffffffff166014611fcb565b611f6b8360001c6020611fcb565b604051602001611f7c929190612894565b6040516020818303038152906040526040517f08c379a0000000000000000000000000000000000000000000000000000000008152600401611fbe91906129d2565b60405180910390fd5b5050565b606060006002836002611fde9190612ce9565b611fe89190612c93565b67ffffffffffffffff81111561200157612000612f28565b5b6040519080825280601f01601f1916602001820160405280156120335781602001600182028036833780820191505090505b5090507f30000000000000000000000000000000000000000000000000000000000000008160008151811061206b5761206a612ef9565b5b60200101907effffffffffffffffffffffffffffffffffffffffffffffffffffffffffffff1916908160001a9053507f7800000000000000000000000000000000000000000000000000000000000000816001815181106120cf576120ce612ef9565b5b60200101907effffffffffffffffffffffffffffffffffffffffffffffffffffffffffffff1916908160001a9053506000600184600261210f9190612ce9565b6121199190612c93565b90505b60018111156121b9577f3031323334353637383961626364656600000000000000000000000000000000600f86166010811061215b5761215a612ef9565b5b1a60f81b82828151811061217257612171612ef9565b5b60200101907effffffffffffffffffffffffffffffffffffffffffffffffffffffffffffff1916908160001a905350600485901c9450806121b290612e28565b905061211c565b50600084146121fd576040517f08c379a00000000000000000000000000000000000000000000000000000000081526004016121f4906129f4565b60405180910390fd5b8091505092915050565b600081359050612216816132e7565b92915050565b60008135905061222b816132fe565b92915050565b60008135905061224081613315565b92915050565b6000813590506122558161332c565b92915050565b60006020828403121561227157612270612f57565b5b600061227f84828501612207565b91505092915050565b6000806040838503121561229f5761229e612f57565b5b60006122ad85828601612207565b92505060206122be85828601612246565b9150509250929050565b6000602082840312156122de576122dd612f57565b5b60006122ec8482850161221c565b91505092915050565b6000806040838503121561230c5761230b612f57565b5b600061231a8582860161221c565b925050602061232b85828601612207565b9150509250929050565b60006020828403121561234b5761234a612f57565b5b600061235984828501612231565b91505092915050565b60006020828403121561237857612377612f57565b5b600061238684828501612246565b91505092915050565b600080604083850312156123a6576123a5612f57565b5b60006123b485828601612246565b92505060206123c585828601612207565b9150509250929050565b60006123db83836123ff565b60208301905092915050565b60006123f383836127e6565b60c08301905092915050565b61240881612d77565b82525050565b61241781612d77565b82525050565b600061242882612c0f565b6124328185612c4a565b935061243d83612bef565b8060005b8381101561246e57815161245588826123cf565b975061246083612c30565b925050600181019050612441565b5085935050505092915050565b600061248682612c1a565b6124908185612c5b565b935061249b83612bff565b8060005b838110156124cc5781516124b388826123e7565b97506124be83612c3d565b92505060018101905061249f565b5085935050505092915050565b6124e281612d89565b82525050565b6124f181612d89565b82525050565b61250081612d95565b82525050565b600061251182612c25565b61251b8185612c77565b935061252b818560208601612df5565b61253481612f5c565b840191505092915050565b600061254a82612c25565b6125548185612c88565b9350612564818560208601612df5565b80840191505092915050565b600061257d602083612c77565b915061258882612f6d565b602082019050919050565b60006125a0601383612c77565b91506125ab82612f96565b602082019050919050565b60006125c3601483612c77565b91506125ce82612fbf565b602082019050919050565b60006125e6601a83612c77565b91506125f182612fe8565b602082019050919050565b6000612609601d83612c77565b915061261482613011565b602082019050919050565b600061262c601c83612c77565b91506126378261303a565b602082019050919050565b600061264f602b83612c77565b915061265a82613063565b604082019050919050565b6000612672601683612c77565b915061267d826130b2565b602082019050919050565b6000612695602083612c77565b91506126a0826130db565b602082019050919050565b60006126b8603483612c77565b91506126c382613104565b604082019050919050565b60006126db601883612c77565b91506126e682613153565b602082019050919050565b60006126fe600083612c6c565b91506127098261317c565b600082019050919050565b6000612721602483612c77565b915061272c8261317f565b604082019050919050565b6000612744601583612c77565b915061274f826131ce565b602082019050919050565b6000612767601783612c88565b9150612772826131f7565b601782019050919050565b600061278a602283612c77565b915061279582613220565b604082019050919050565b60006127ad601183612c88565b91506127b88261326f565b601182019050919050565b60006127d0602f83612c77565b91506127db82613298565b604082019050919050565b60c0820160008201516127fc60008501826123ff565b50602082015161280f60208501826123ff565b5060408201516128226040850182612861565b50606082015161283560608501826124d9565b5060808201516128486080850182612861565b5060a082015161285b60a0850182612861565b50505050565b61286a81612deb565b82525050565b61287981612deb565b82525050565b600061288a826126f1565b9150819050919050565b600061289f8261275a565b91506128ab828561253f565b91506128b6826127a0565b91506128c2828461253f565b91508190509392505050565b60006040820190506128e3600083018561240e565b6128f0602083018461240e565b9392505050565b600060c08201905061290c600083018961240e565b612919602083018861240e565b6129266040830187612870565b61293360608301866124e8565b6129406080830185612870565b61294d60a0830184612870565b979650505050505050565b60006020820190508181036000830152612972818461241d565b905092915050565b60006020820190508181036000830152612994818461247b565b905092915050565b60006020820190506129b160008301846124e8565b92915050565b60006020820190506129cc60008301846124f7565b92915050565b600060208201905081810360008301526129ec8184612506565b905092915050565b60006020820190508181036000830152612a0d81612570565b9050919050565b60006020820190508181036000830152612a2d81612593565b9050919050565b60006020820190508181036000830152612a4d816125b6565b9050919050565b60006020820190508181036000830152612a6d816125d9565b9050919050565b60006020820190508181036000830152612a8d816125fc565b9050919050565b60006020820190508181036000830152612aad8161261f565b9050919050565b60006020820190508181036000830152612acd81612642565b9050919050565b60006020820190508181036000830152612aed81612665565b9050919050565b60006020820190508181036000830152612b0d81612688565b9050919050565b60006020820190508181036000830152612b2d816126ab565b9050919050565b60006020820190508181036000830152612b4d816126ce565b9050919050565b60006020820190508181036000830152612b6d81612714565b9050919050565b60006020820190508181036000830152612b8d81612737565b9050919050565b60006020820190508181036000830152612bad8161277d565b9050919050565b60006020820190508181036000830152612bcd816127c3565b9050919050565b6000602082019050612be96000830184612870565b92915050565b6000819050602082019050919050565b6000819050602082019050919050565b600081519050919050565b600081519050919050565b600081519050919050565b6000602082019050919050565b6000602082019050919050565b600082825260208201905092915050565b600082825260208201905092915050565b600081905092915050565b600082825260208201905092915050565b600081905092915050565b6000612c9e82612deb565b9150612ca983612deb565b9250827fffffffffffffffffffffffffffffffffffffffffffffffffffffffffffffffff03821115612cde57612cdd612e9b565b5b828201905092915050565b6000612cf482612deb565b9150612cff83612deb565b9250817fffffffffffffffffffffffffffffffffffffffffffffffffffffffffffffffff0483118215151615612d3857612d37612e9b565b5b828202905092915050565b6000612d4e82612deb565b9150612d5983612deb565b925082821015612d6c57612d6b612e9b565b5b828203905092915050565b6000612d8282612dcb565b9050919050565b60008115159050919050565b6000819050919050565b60007fffffffff0000000000000000000000000000000000000000000000000000000082169050919050565b600073ffffffffffffffffffffffffffffffffffffffff82169050919050565b6000819050919050565b60005b83811015612e13578082015181840152602081019050612df8565b83811115612e22576000848401525b50505050565b6000612e3382612deb565b91506000821415612e4757612e46612e9b565b5b600182039050919050565b6000612e5d82612deb565b91507fffffffffffffffffffffffffffffffffffffffffffffffffffffffffffffffff821415612e9057612e8f612e9b565b5b600182019050919050565b7f4e487b7100000000000000000000000000000000000000000000000000000000600052601160045260246000fd5b7f4e487b7100000000000000000000000000000000000000000000000000000000600052603160045260246000fd5b7f4e487b7100000000000000000000000000000000000000000000000000000000600052603260045260246000fd5b7f4e487b7100000000000000000000000000000000000000000000000000000000600052604160045260246000fd5b600080fd5b6000601f19601f8301169050919050565b7f537472696e67733a20686578206c656e67746820696e73756666696369656e74600082015250565b7f4368696c64206973206e6f7420756e6971756500000000000000000000000000600082015250565b7f506172656e74206973206e6f7420756e69717565000000000000000000000000600082015250565b7f43616e6e6f742065786563757465207472616e73616374696f6e000000000000600082015250565b7f54686973207472616e73616374696f6e20646f206e6f74206578697374000000600082015250565b7f5472616e73616374696f6e20657865637574696f6e206661696c656400000000600082015250565b7f596f7520646f6e277420686176652072696768747320746f207375626d69742060008201527f7472616e73616374696f6e000000000000000000000000000000000000000000602082015250565b7f496e76616c696420506172656e74204164647265737300000000000000000000600082015250565b7f5472616e73616374696f6e20697320616c726561647920636f6e6669726d6564600082015250565b7f5472616e73616374696f6e20616c72656164792068617320746865207265717560008201527f69726564206e756d626572206f6620766f746573000000000000000000000000602082015250565b7f5472616e73616374696f6e20646f206e6f742065786973740000000000000000600082015250565b50565b7f54686973207472616e73616374696f6e20697320616c7265616479206578656360008201527f7574656400000000000000000000000000000000000000000000000000000000602082015250565b7f496e76616c6964206368696c6420416464726573730000000000000000000000600082015250565b7f416363657373436f6e74726f6c3a206163636f756e7420000000000000000000600082015250565b7f506c6561736520616464206d6f72652062616c616e636520746f20636f6e666960008201527f726d000000000000000000000000000000000000000000000000000000000000602082015250565b7f206973206d697373696e6720726f6c6520000000000000000000000000000000600082015250565b7f416363657373436f6e74726f6c3a2063616e206f6e6c792072656e6f756e636560008201527f20726f6c657320666f722073656c660000000000000000000000000000000000602082015250565b6132f081612d77565b81146132fb57600080fd5b50565b61330781612d95565b811461331257600080fd5b50565b61331e81612d9f565b811461332957600080fd5b50565b61333581612deb565b811461334057600080fd5b5056fea2646970667358221220d43adf4c51530c9cbf2b21207262093ef6bb909970647749c2b6485d3130efd064736f6c63430008060033a264697066735822122002ccf884e27938c2df495a9948345f38526d1e17b4712001eb1261487042bb6064736f6c63430008060033",
  "linkReferences": {},
  "deployedLinkReferences": {}
}