{
  "_format": "hh-sol-artifact-1",
  "contractName": "CreateWallet",
  "sourceName": "contracts/CreateWallet.sol",
  "abi": [
    {
      "anonymous": false,
      "inputs": [
        {
          "indexed": false,
          "internalType": "address",
          "name": "contractAddress",
          "type": "address"
        }
      ],
      "name": "created",
      "type": "event"
    },
    {
      "inputs": [
        {
          "internalType": "address",
          "name": "user2",
          "type": "address"
        }
      ],
      "name": "CreateParentalWallet",
      "outputs": [],
      "stateMutability": "nonpayable",
      "type": "function"
    },
    {
      "inputs": [
        {
          "internalType": "address",
          "name": "a",
          "type": "address"
        },
        {
          "internalType": "address",
          "name": "b",
          "type": "address"
        }
      ],
      "name": "joinWallet",
      "outputs": [
        {
          "internalType": "address",
          "name": "",
          "type": "address"
        },
        {
          "internalType": "bool",
          "name": "",
          "type": "bool"
        }
      ],
      "stateMutability": "view",
      "type": "function"
    }
  ],
  "bytecode": "0x608060405234801561001057600080fd5b506134fe806100206000396000f3fe60806040523480156200001157600080fd5b50600436106200003a5760003560e01c8063b7777a2e146200003f578063efc9d8ed146200005f575b600080fd5b6200005d600480360381019062000057919062000506565b62000096565b005b6200007d600480360381019062000077919062000538565b620001e8565b6040516200008d92919062000663565b60405180910390f35b60003382604051620000a8906200041c565b620000b592919062000636565b604051809103906000f080158015620000d2573d6000803e3d6000fd5b50905060405180604001604052808273ffffffffffffffffffffffffffffffffffffffff168152602001600115158152506000803373ffffffffffffffffffffffffffffffffffffffff1673ffffffffffffffffffffffffffffffffffffffff16815260200190815260200160002060008201518160000160006101000a81548173ffffffffffffffffffffffffffffffffffffffff021916908373ffffffffffffffffffffffffffffffffffffffff16021790555060208201518160000160146101000a81548160ff0219169083151502179055509050507fd42efd83974d1c72972b3f04b70c897fca3c5befd9edca06f91e3034b0665bfc81604051620001dc919062000619565b60405180910390a15050565b60008060008060008673ffffffffffffffffffffffffffffffffffffffff1673ffffffffffffffffffffffffffffffffffffffff1681526020019081526020016000206040518060400160405290816000820160009054906101000a900473ffffffffffffffffffffffffffffffffffffffff1673ffffffffffffffffffffffffffffffffffffffff1673ffffffffffffffffffffffffffffffffffffffff1681526020016000820160149054906101000a900460ff16151515158152505090508060200151620002f0576040517f08c379a0000000000000000000000000000000000000000000000000000000008152600401620002e79062000690565b60405180910390fd5b60008160000151905060008173ffffffffffffffffffffffffffffffffffffffff1662ce8e3e6040518163ffffffff1660e01b815260040160006040518083038186803b1580156200034157600080fd5b505afa15801562000356573d6000803e3d6000fd5b505050506040513d6000823e3d601f19601f820116820180604052508101906200038191906200057f565b905060005b815181101562000409578673ffffffffffffffffffffffffffffffffffffffff16828281518110620003bd57620003bc62000818565b5b602002602001015173ffffffffffffffffffffffffffffffffffffffff161415620003f357826001955095505050505062000415565b808062000400906200079b565b91505062000386565b50600080945094505050505b9250929050565b612bea80620008df83390190565b6000620004416200043b84620006db565b620006b2565b905080838252602082019050828560208602820111156200046757620004666200087b565b5b60005b858110156200049b5781620004808882620004bc565b8452602084019350602083019250506001810190506200046a565b5050509392505050565b600081359050620004b681620008c4565b92915050565b600081519050620004cd81620008c4565b92915050565b600082601f830112620004eb57620004ea62000876565b5b8151620004fd8482602086016200042a565b91505092915050565b6000602082840312156200051f576200051e62000885565b5b60006200052f84828501620004a5565b91505092915050565b6000806040838503121562000552576200055162000885565b5b60006200056285828601620004a5565b92505060206200057585828601620004a5565b9150509250929050565b60006020828403121562000598576200059762000885565b5b600082015167ffffffffffffffff811115620005b957620005b862000880565b5b620005c784828501620004d3565b91505092915050565b620005db816200071b565b82525050565b620005ec816200072f565b82525050565b600062000601601b836200070a565b91506200060e826200089b565b602082019050919050565b6000602082019050620006306000830184620005d0565b92915050565b60006040820190506200064d6000830185620005d0565b6200065c6020830184620005d0565b9392505050565b60006040820190506200067a6000830185620005d0565b620006896020830184620005e1565b9392505050565b60006020820190508181036000830152620006ab81620005f2565b9050919050565b6000620006be620006d1565b9050620006cc828262000765565b919050565b6000604051905090565b600067ffffffffffffffff821115620006f957620006f862000847565b5b602082029050602081019050919050565b600082825260208201905092915050565b600062000728826200073b565b9050919050565b60008115159050919050565b600073ffffffffffffffffffffffffffffffffffffffff82169050919050565b6000819050919050565b62000770826200088a565b810181811067ffffffffffffffff8211171562000792576200079162000847565b5b80604052505050565b6000620007a8826200075b565b91507fffffffffffffffffffffffffffffffffffffffffffffffffffffffffffffffff821415620007de57620007dd620007e9565b5b600182019050919050565b7f4e487b7100000000000000000000000000000000000000000000000000000000600052601160045260246000fd5b7f4e487b7100000000000000000000000000000000000000000000000000000000600052603260045260246000fd5b7f4e487b7100000000000000000000000000000000000000000000000000000000600052604160045260246000fd5b600080fd5b600080fd5b600080fd5b600080fd5b6000601f19601f8301169050919050565b7f7573657220646f6e7420657869737420696e2073797374656d21210000000000600082015250565b620008cf816200071b565b8114620008db57600080fd5b5056fe60806040523480156200001157600080fd5b5060405162002bea38038062002bea83398181016040528101906200003791906200027b565b81600080600281106200004f576200004e620002f6565b5b0160006101000a81548173ffffffffffffffffffffffffffffffffffffffff021916908373ffffffffffffffffffffffffffffffffffffffff160217905550806000600160028110620000a757620000a6620002f6565b5b0160006101000a81548173ffffffffffffffffffffffffffffffffffffffff021916908373ffffffffffffffffffffffffffffffffffffffff1602179055506002829080600181540180825580915050600190039060005260206000200160009091909190916101000a81548173ffffffffffffffffffffffffffffffffffffffff021916908373ffffffffffffffffffffffffffffffffffffffff1602179055506002819080600181540180825580915050600190039060005260206000200160009091909190916101000a81548173ffffffffffffffffffffffffffffffffffffffff021916908373ffffffffffffffffffffffffffffffffffffffff1602179055506001600360008473ffffffffffffffffffffffffffffffffffffffff1673ffffffffffffffffffffffffffffffffffffffff16815260200190815260200160002060006101000a81548160ff0219169083151502179055506001600360008373ffffffffffffffffffffffffffffffffffffffff1673ffffffffffffffffffffffffffffffffffffffff16815260200190815260200160002060006101000a81548160ff021916908315150217905550505062000344565b60008151905062000275816200032a565b92915050565b6000806040838503121562000295576200029462000325565b5b6000620002a58582860162000264565b9250506020620002b88582860162000264565b9150509250929050565b6000620002cf82620002d6565b9050919050565b600073ffffffffffffffffffffffffffffffffffffffff82169050919050565b7f4e487b7100000000000000000000000000000000000000000000000000000000600052603260045260246000fd5b600080fd5b6200033581620002c2565b81146200034157600080fd5b50565b61289680620003546000396000f3fe6080604052600436106100eb5760003560e01c80635d845dcb1161008a578063ae30dc3f11610059578063ae30dc3f146102bf578063b7fa9c6e146102e8578063e168c3ec14610311578063eb841c851461033c576100f2565b80635d845dcb146101ed57806380f59a65146102165780639ace38c214610253578063a0e67e2b14610294576100f2565b8063421b2d8b116100c6578063421b2d8b14610178578063497347fa146101a157806359705f81146101b85780635b37930b146101e3576100f2565b8062ce8e3e146100f757806312065fe0146101225780632e7700f01461014d576100f2565b366100f257005b600080fd5b34801561010357600080fd5b5061010c610365565b6040516101199190612092565b60405180910390f35b34801561012e57600080fd5b506101376103f3565b6040516101449190612231565b60405180910390f35b34801561015957600080fd5b506101626103fb565b60405161016f9190612231565b60405180910390f35b34801561018457600080fd5b5061019f600480360381019061019a9190611ae6565b610408565b005b3480156101ad57600080fd5b506101b66106d2565b005b3480156101c457600080fd5b506101cd61082f565b6040516101da91906120b4565b60405180910390f35b6101eb6109a5565b005b3480156101f957600080fd5b50610214600480360381019061020f9190611b82565b6109f5565b005b34801561022257600080fd5b5061023d60048036038101906102389190611baf565b610d9c565b60405161024a91906120d6565b60405180910390f35b34801561025f57600080fd5b5061027a60048036038101906102759190611b82565b610dcb565b60405161028b95949392919061201d565b60405180910390f35b3480156102a057600080fd5b506102a9610ec6565b6040516102b69190612077565b60405180910390f35b3480156102cb57600080fd5b506102e660048036038101906102e19190611b82565b610f47565b005b3480156102f457600080fd5b5061030f600480360381019061030a9190611b82565b6112c1565b005b34801561031d57600080fd5b506103266116ac565b6040516103339190612231565b60405180910390f35b34801561034857600080fd5b50610363600480360381019061035e9190611b13565b6116b2565b005b606060028054806020026020016040519081016040528092919081815260200182805480156103e957602002820191906000526020600020905b8160009054906101000a900473ffffffffffffffffffffffffffffffffffffffff1673ffffffffffffffffffffffffffffffffffffffff168152602001906001019080831161039f575b5050505050905090565b600047905090565b6000600680549050905090565b6000806002811061041c5761041b6125c6565b5b0160009054906101000a900473ffffffffffffffffffffffffffffffffffffffff1673ffffffffffffffffffffffffffffffffffffffff163373ffffffffffffffffffffffffffffffffffffffff1614806104d857506000600160028110610487576104866125c6565b5b0160009054906101000a900473ffffffffffffffffffffffffffffffffffffffff1673ffffffffffffffffffffffffffffffffffffffff163373ffffffffffffffffffffffffffffffffffffffff16145b610517576040517f08c379a000000000000000000000000000000000000000000000000000000000815260040161050e90612211565b60405180910390fd5b600073ffffffffffffffffffffffffffffffffffffffff168173ffffffffffffffffffffffffffffffffffffffff161415610587576040517f08c379a000000000000000000000000000000000000000000000000000000000815260040161057e906120f1565b60405180910390fd5b600360008273ffffffffffffffffffffffffffffffffffffffff1673ffffffffffffffffffffffffffffffffffffffff16815260200190815260200160002060009054906101000a900460ff1615610614576040517f08c379a000000000000000000000000000000000000000000000000000000000815260040161060b90612191565b60405180910390fd5b6001600360008373ffffffffffffffffffffffffffffffffffffffff1673ffffffffffffffffffffffffffffffffffffffff16815260200190815260200160002060006101000a81548160ff0219169083151502179055506002819080600181540180825580915050600190039060005260206000200160009091909190916101000a81548173ffffffffffffffffffffffffffffffffffffffff021916908373ffffffffffffffffffffffffffffffffffffffff16021790555050565b600080600281106106e6576106e56125c6565b5b0160009054906101000a900473ffffffffffffffffffffffffffffffffffffffff1673ffffffffffffffffffffffffffffffffffffffff163373ffffffffffffffffffffffffffffffffffffffff1614806107a257506000600160028110610751576107506125c6565b5b0160009054906101000a900473ffffffffffffffffffffffffffffffffffffffff1673ffffffffffffffffffffffffffffffffffffffff163373ffffffffffffffffffffffffffffffffffffffff16145b6107e1576040517f08c379a00000000000000000000000000000000000000000000000000000000081526004016107d890612211565b60405180910390fd5b600080600281106107f5576107f46125c6565b5b0160009054906101000a900473ffffffffffffffffffffffffffffffffffffffff1673ffffffffffffffffffffffffffffffffffffffff16ff5b60606006805480602002602001604051908101604052809291908181526020016000905b8282101561099c57838290600052602060002090600502016040518060a00160405290816000820160009054906101000a900473ffffffffffffffffffffffffffffffffffffffff1673ffffffffffffffffffffffffffffffffffffffff1673ffffffffffffffffffffffffffffffffffffffff168152602001600182015481526020016002820160009054906101000a900460ff161515151581526020016003820154815260200160048201805461090b9061248d565b80601f01602080910402602001604051908101604052809291908181526020018280546109379061248d565b80156109845780601f1061095957610100808354040283529160200191610984565b820191906000526020600020905b81548152906001019060200180831161096757829003601f168201915b50505050508152505081526020019060010190610853565b50505050905090565b3373ffffffffffffffffffffffffffffffffffffffff167fe1fffcc4923d04b559f4d29a8bfc6cda04eb5b0d3c460751c2402c5c5cc9109c346040516109eb9190612231565b60405180910390a2565b60008060028110610a0957610a086125c6565b5b0160009054906101000a900473ffffffffffffffffffffffffffffffffffffffff1673ffffffffffffffffffffffffffffffffffffffff163373ffffffffffffffffffffffffffffffffffffffff161480610ac557506000600160028110610a7457610a736125c6565b5b0160009054906101000a900473ffffffffffffffffffffffffffffffffffffffff1673ffffffffffffffffffffffffffffffffffffffff163373ffffffffffffffffffffffffffffffffffffffff16145b610b04576040517f08c379a0000000000000000000000000000000000000000000000000000000008152600401610afb90612211565b60405180910390fd5b806006805490508110610b4c576040517f08c379a0000000000000000000000000000000000000000000000000000000008152600401610b4390612131565b60405180910390fd5b8160068181548110610b6157610b606125c6565b5b906000526020600020906005020160020160009054906101000a900460ff1615610bc0576040517f08c379a0000000000000000000000000000000000000000000000000000000008152600401610bb790612171565b60405180910390fd5b826005600082815260200190815260200160002060003373ffffffffffffffffffffffffffffffffffffffff1673ffffffffffffffffffffffffffffffffffffffff16815260200190815260200160002060009054906101000a900460ff1615610c5f576040517f08c379a0000000000000000000000000000000000000000000000000000000008152600401610c56906121f1565b60405180910390fd5b600060068581548110610c7557610c746125c6565b5b906000526020600020906005020190504781600101541115610ccc576040517f08c379a0000000000000000000000000000000000000000000000000000000008152600401610cc390612111565b60405180910390fd5b6001816003016000828254610ce19190612379565b9250508190555060016005600087815260200190815260200160002060003373ffffffffffffffffffffffffffffffffffffffff1673ffffffffffffffffffffffffffffffffffffffff16815260200190815260200160002060006101000a81548160ff021916908315150217905550843373ffffffffffffffffffffffffffffffffffffffff167f6f315954c385fbab81f9695ad5677985ae06e1d323c5d9883f7502303a41f92260405160405180910390a35050505050565b60056020528160005260406000206020528060005260406000206000915091509054906101000a900460ff1681565b60068181548110610ddb57600080fd5b90600052602060002090600502016000915090508060000160009054906101000a900473ffffffffffffffffffffffffffffffffffffffff16908060010154908060020160009054906101000a900460ff1690806003015490806004018054610e439061248d565b80601f0160208091040260200160405190810160405280929190818152602001828054610e6f9061248d565b8015610ebc5780601f10610e9157610100808354040283529160200191610ebc565b820191906000526020600020905b815481529060010190602001808311610e9f57829003601f168201915b5050505050905085565b610ece6118ba565b6000600280602002604051908101604052809291908260028015610f3d576020028201915b8160009054906101000a900473ffffffffffffffffffffffffffffffffffffffff1673ffffffffffffffffffffffffffffffffffffffff1681526020019060010190808311610ef3575b5050505050905090565b60008060028110610f5b57610f5a6125c6565b5b0160009054906101000a900473ffffffffffffffffffffffffffffffffffffffff1673ffffffffffffffffffffffffffffffffffffffff163373ffffffffffffffffffffffffffffffffffffffff16148061101757506000600160028110610fc657610fc56125c6565b5b0160009054906101000a900473ffffffffffffffffffffffffffffffffffffffff1673ffffffffffffffffffffffffffffffffffffffff163373ffffffffffffffffffffffffffffffffffffffff16145b611056576040517f08c379a000000000000000000000000000000000000000000000000000000000815260040161104d90612211565b60405180910390fd5b80600680549050811061109e576040517f08c379a000000000000000000000000000000000000000000000000000000000815260040161109590612131565b60405180910390fd5b81600681815481106110b3576110b26125c6565b5b906000526020600020906005020160020160009054906101000a900460ff1615611112576040517f08c379a000000000000000000000000000000000000000000000000000000000815260040161110990612171565b60405180910390fd5b600060068481548110611128576111276125c6565b5b9060005260206000209060050201905060045481600301541015611181576040517f08c379a0000000000000000000000000000000000000000000000000000000008152600401611178906121b1565b60405180910390fd5b60018160020160006101000a81548160ff02191690831515021790555060008160000160009054906101000a900473ffffffffffffffffffffffffffffffffffffffff1673ffffffffffffffffffffffffffffffffffffffff16614e2083600101546040516111ef90612008565b600060405180830381858888f193505050503d806000811461122d576040519150601f19603f3d011682016040523d82523d6000602084013e611232565b606091505b5050905080611276576040517f08c379a000000000000000000000000000000000000000000000000000000000815260040161126d906121d1565b60405180910390fd5b843373ffffffffffffffffffffffffffffffffffffffff167f7b97296edc75a36a401f12e0613cb8b04d49b77d790dcf26a9b3a53c9ef24c9360405160405180910390a35050505050565b600080600281106112d5576112d46125c6565b5b0160009054906101000a900473ffffffffffffffffffffffffffffffffffffffff1673ffffffffffffffffffffffffffffffffffffffff163373ffffffffffffffffffffffffffffffffffffffff161480611391575060006001600281106113405761133f6125c6565b5b0160009054906101000a900473ffffffffffffffffffffffffffffffffffffffff1673ffffffffffffffffffffffffffffffffffffffff163373ffffffffffffffffffffffffffffffffffffffff16145b6113d0576040517f08c379a00000000000000000000000000000000000000000000000000000000081526004016113c790612211565b60405180910390fd5b806006805490508110611418576040517f08c379a000000000000000000000000000000000000000000000000000000000815260040161140f90612131565b60405180910390fd5b816006818154811061142d5761142c6125c6565b5b906000526020600020906005020160020160009054906101000a900460ff161561148c576040517f08c379a000000000000000000000000000000000000000000000000000000000815260040161148390612171565b60405180910390fd5b60068054905083106114d3576040517f08c379a00000000000000000000000000000000000000000000000000000000081526004016114ca90612151565b60405180910390fd5b60008390505b60016006805490506114eb91906123cf565b8110156116205760066001826115019190612379565b81548110611512576115116125c6565b5b906000526020600020906005020160068281548110611534576115336125c6565b5b90600052602060002090600502016000820160009054906101000a900473ffffffffffffffffffffffffffffffffffffffff168160000160006101000a81548173ffffffffffffffffffffffffffffffffffffffff021916908373ffffffffffffffffffffffffffffffffffffffff160217905550600182015481600101556002820160009054906101000a900460ff168160020160006101000a81548160ff0219169083151502179055506003820154816003015560048201816004019080546115fe9061248d565b6116099291906118dc565b509050508080611618906124f0565b9150506114d9565b50600680548061163357611632612597565b5b6001900381819060005260206000209060050201600080820160006101000a81549073ffffffffffffffffffffffffffffffffffffffff021916905560018201600090556002820160006101000a81549060ff021916905560038201600090556004820160006116a39190611969565b50509055505050565b60045481565b600360003373ffffffffffffffffffffffffffffffffffffffff1673ffffffffffffffffffffffffffffffffffffffff16815260200190815260200160002060009054906101000a900460ff1661173e576040517f08c379a000000000000000000000000000000000000000000000000000000000815260040161173590612211565b60405180910390fd5b6000600680549050905060066040518060a001604052808673ffffffffffffffffffffffffffffffffffffffff1681526020018581526020016000151581526020016000815260200184815250908060018154018082558091505060019003906000526020600020906005020160009091909190915060008201518160000160006101000a81548173ffffffffffffffffffffffffffffffffffffffff021916908373ffffffffffffffffffffffffffffffffffffffff1602179055506020820151816001015560408201518160020160006101000a81548160ff02191690831515021790555060608201518160030155608082015181600401908051906020019061184b9291906119a9565b5050508373ffffffffffffffffffffffffffffffffffffffff16813373ffffffffffffffffffffffffffffffffffffffff167f941bd0ada49d76f3ef7a5ec4d0f0aa4b60eabdf543214a83b699526fe0a97568866040516118ac9190612231565b60405180910390a450505050565b6040518060400160405280600290602082028036833780820191505090505090565b8280546118e89061248d565b90600052602060002090601f01602090048101928261190a5760008555611958565b82601f1061191b5780548555611958565b8280016001018555821561195857600052602060002091601f016020900482015b8281111561195757825482559160010191906001019061193c565b5b5090506119659190611a2f565b5090565b5080546119759061248d565b6000825580601f1061198757506119a6565b601f0160209004906000526020600020908101906119a59190611a2f565b5b50565b8280546119b59061248d565b90600052602060002090601f0160209004810192826119d75760008555611a1e565b82601f106119f057805160ff1916838001178555611a1e565b82800160010185558215611a1e579182015b82811115611a1d578251825591602001919060010190611a02565b5b509050611a2b9190611a2f565b5090565b5b80821115611a48576000816000905550600101611a30565b5090565b6000611a5f611a5a84612271565b61224c565b905082815260208101848484011115611a7b57611a7a612629565b5b611a8684828561244b565b509392505050565b600081359050611a9d81612832565b92915050565b600082601f830112611ab857611ab7612624565b5b8135611ac8848260208601611a4c565b91505092915050565b600081359050611ae081612849565b92915050565b600060208284031215611afc57611afb612633565b5b6000611b0a84828501611a8e565b91505092915050565b600080600060608486031215611b2c57611b2b612633565b5b6000611b3a86828701611a8e565b9350506020611b4b86828701611ad1565b925050604084013567ffffffffffffffff811115611b6c57611b6b61262e565b5b611b7886828701611aa3565b9150509250925092565b600060208284031215611b9857611b97612633565b5b6000611ba684828501611ad1565b91505092915050565b60008060408385031215611bc657611bc5612633565b5b6000611bd485828601611ad1565b9250506020611be585828601611a8e565b9150509250929050565b6000611bfb8383611c1b565b60208301905092915050565b6000611c138383611f74565b905092915050565b611c2481612403565b82525050565b611c3381612403565b82525050565b611c42816122cc565b611c4c818461231f565b9250611c57826122a2565b8060005b83811015611c88578151611c6f8782611bef565b9650611c7a836122f8565b925050600181019050611c5b565b505050505050565b6000611c9b826122d7565b611ca5818561232a565b9350611cb0836122ac565b8060005b83811015611ce1578151611cc88882611bef565b9750611cd383612305565b925050600181019050611cb4565b5085935050505092915050565b6000611cf9826122e2565b611d03818561233b565b935083602082028501611d15856122bc565b8060005b85811015611d515784840389528151611d328582611c07565b9450611d3d83612312565b925060208a01995050600181019050611d19565b50829750879550505050505092915050565b611d6c81612415565b82525050565b611d7b81612415565b82525050565b6000611d8c826122ed565b611d968185612357565b9350611da681856020860161245a565b611daf81612638565b840191505092915050565b6000611dc5826122ed565b611dcf8185612368565b9350611ddf81856020860161245a565b611de881612638565b840191505092915050565b6000611e00600d83612368565b9150611e0b82612649565b602082019050919050565b6000611e23602283612368565b9150611e2e82612672565b604082019050919050565b6000611e46601e83612368565b9150611e51826126c1565b602082019050919050565b6000611e69600d83612368565b9150611e74826126ea565b602082019050919050565b6000611e8c602383612368565b9150611e9782612713565b604082019050919050565b6000611eaf601283612368565b9150611eba82612762565b602082019050919050565b6000611ed2601083612368565b9150611edd8261278b565b602082019050919050565b6000611ef5601283612368565b9150611f00826127b4565b602082019050919050565b6000611f1860008361234c565b9150611f23826127dd565b600082019050919050565b6000611f3b602083612368565b9150611f46826127e0565b602082019050919050565b6000611f5e601583612368565b9150611f6982612809565b602082019050919050565b600060a083016000830151611f8c6000860182611c1b565b506020830151611f9f6020860182611fea565b506040830151611fb26040860182611d63565b506060830151611fc56060860182611fea565b5060808301518482036080860152611fdd8282611d81565b9150508091505092915050565b611ff381612441565b82525050565b61200281612441565b82525050565b600061201382611f0b565b9150819050919050565b600060a0820190506120326000830188611c2a565b61203f6020830187611ff9565b61204c6040830186611d72565b6120596060830185611ff9565b818103608083015261206b8184611dba565b90509695505050505050565b600060408201905061208c6000830184611c39565b92915050565b600060208201905081810360008301526120ac8184611c90565b905092915050565b600060208201905081810360008301526120ce8184611cee565b905092915050565b60006020820190506120eb6000830184611d72565b92915050565b6000602082019050818103600083015261210a81611df3565b9050919050565b6000602082019050818103600083015261212a81611e16565b9050919050565b6000602082019050818103600083015261214a81611e39565b9050919050565b6000602082019050818103600083015261216a81611e5c565b9050919050565b6000602082019050818103600083015261218a81611e7f565b9050919050565b600060208201905081810360008301526121aa81611ea2565b9050919050565b600060208201905081810360008301526121ca81611ec5565b9050919050565b600060208201905081810360008301526121ea81611ee8565b9050919050565b6000602082019050818103600083015261220a81611f2e565b9050919050565b6000602082019050818103600083015261222a81611f51565b9050919050565b60006020820190506122466000830184611ff9565b92915050565b6000612256612267565b905061226282826124bf565b919050565b6000604051905090565b600067ffffffffffffffff82111561228c5761228b6125f5565b5b61229582612638565b9050602081019050919050565b6000819050919050565b6000819050602082019050919050565b6000819050602082019050919050565b600060029050919050565b600081519050919050565b600081519050919050565b600081519050919050565b6000602082019050919050565b6000602082019050919050565b6000602082019050919050565b600081905092915050565b600082825260208201905092915050565b600082825260208201905092915050565b600081905092915050565b600082825260208201905092915050565b600082825260208201905092915050565b600061238482612441565b915061238f83612441565b9250827fffffffffffffffffffffffffffffffffffffffffffffffffffffffffffffffff038211156123c4576123c3612539565b5b828201905092915050565b60006123da82612441565b91506123e583612441565b9250828210156123f8576123f7612539565b5b828203905092915050565b600061240e82612421565b9050919050565b60008115159050919050565b600073ffffffffffffffffffffffffffffffffffffffff82169050919050565b6000819050919050565b82818337600083830152505050565b60005b8381101561247857808201518184015260208101905061245d565b83811115612487576000848401525b50505050565b600060028204905060018216806124a557607f821691505b602082108114156124b9576124b8612568565b5b50919050565b6124c882612638565b810181811067ffffffffffffffff821117156124e7576124e66125f5565b5b80604052505050565b60006124fb82612441565b91507fffffffffffffffffffffffffffffffffffffffffffffffffffffffffffffffff82141561252e5761252d612539565b5b600182019050919050565b7f4e487b7100000000000000000000000000000000000000000000000000000000600052601160045260246000fd5b7f4e487b7100000000000000000000000000000000000000000000000000000000600052602260045260246000fd5b7f4e487b7100000000000000000000000000000000000000000000000000000000600052603160045260246000fd5b7f4e487b7100000000000000000000000000000000000000000000000000000000600052603260045260246000fd5b7f4e487b7100000000000000000000000000000000000000000000000000000000600052604160045260246000fd5b600080fd5b600080fd5b600080fd5b600080fd5b6000601f19601f8301169050919050565b7f496e76616c6964204f776e657200000000000000000000000000000000000000600082015250565b7f506c6561736520616464206d6f72652042616c616e636520746f20436f6e666960008201527f726d000000000000000000000000000000000000000000000000000000000000602082015250565b7f54686973205472616e73616374696f6e20446f65736e27742065786973740000600082015250565b7f747820646f6e7420657869737400000000000000000000000000000000000000600082015250565b7f54686973207472616e736163746f6e20697320616c726561647920657865637560008201527f7465640000000000000000000000000000000000000000000000000000000000602082015250565b7f75736572206973206e6f7420756e697175650000000000000000000000000000600082015250565b7f63616e6e6f742045786563757465212100000000000000000000000000000000600082015250565b7f5472616e73616374696f6e206661696c65720000000000000000000000000000600082015250565b50565b7f7472616e73616374696f6e20697320616c726561647920636f6e6669726d6564600082015250565b7f596f7520646f6e27742068617665206163657373730000000000000000000000600082015250565b61283b81612403565b811461284657600080fd5b50565b61285281612441565b811461285d57600080fd5b5056fea264697066735822122013272d70fd5d081de0f2beda2239e577e31e5d265bbedd995ac113ee6e6eaa1a64736f6c63430008060033a26469706673582212207eae11545226a9b28475b89c9d39ec59a5deaf4af1abdc086b7748d687ab4aa364736f6c63430008060033",
  "linkReferences": {},
  "deployedLinkReferences": {}
}