{"abi":[{"type":"function","name":"createParentalWallet","inputs":[],"outputs":[],"stateMutability":"nonpayable"},{"type":"function","name":"getNotifyStatus","inputs":[{"name":"a","type":"address","internalType":"address"}],"outputs":[{"name":"","type":"bool","internalType":"bool"}],"stateMutability":"view"},{"type":"function","name":"joinWallet","inputs":[{"name":"a","type":"address","internalType":"address"}],"outputs":[{"name":"","type":"address","internalType":"address"}],"stateMutability":"view"},{"type":"function","name":"onNotification","inputs":[],"outputs":[],"stateMutability":"nonpayable"},{"type":"event","name":"Created","inputs":[{"name":"contractAddress","type":"address","indexed":false,"internalType":"address"}],"anonymous":false},{"type":"event","name":"NotifcationTurnedOn","inputs":[{"name":"contractAddress","type":"address","indexed":false,"internalType":"address"},{"name":"user","type":"address","indexed":false,"internalType":"address"}],"anonymous":false},{"type":"error","name":"NotifcationAlreadySet","inputs":[]},{"type":"error","name":"UserAlreadyExists","inputs":[]},{"type":"error","name":"UserDoesNotExist","inputs":[]},{"type":"error","name":"UserIsNotOwner","inputs":[]},{"type":"error","name":"UserNotAuthorized","inputs":[]}],"bytecode":{"object":"0x6080604052348015600f57600080fd5b506122c28061001f6000396000f3fe608060405234801561001057600080fd5b506004361061004c5760003560e01c8063065603bf146100515780630f3866f1146100795780636a804bcd14610083578063797c2edc146100ae575b600080fd5b61006461005f36600461044d565b6100b6565b60405190151581526020015b60405180910390f35b61008161012d565b005b61009661009136600461044d565b61028b565b6040516001600160a01b039091168152602001610070565b610081610387565b6001600160a01b0380821660009081526020818152604080832081516060810183529054948516815260ff600160a01b860481161515938201849052600160a81b9095049094161515908401529091906101235760405163907b361f60e01b815260040160405180910390fd5b6040015192915050565b3360009081526020818152604091829020825160608101845290546001600160a01b038116825260ff600160a01b8204811615801594840194909452600160a81b90910416151592810192909252610198576040516361a21cbf60e11b815260040160405180910390fd5b6000336040516101a790610440565b6001600160a01b039091168152602001604051809103906000f0801580156101d3573d6000803e3d6000fd5b50604080516060810182526001600160a01b0380841682526001602080840191825260008486018181523382529181905285902093518454925191511515600160a81b0260ff60a81b19921515600160a01b026001600160a81b031990941691909416179190911716179055519091507f1449abf21e49fd025f33495e77f7b1461caefdd3d4bb646424a3f445c4576a5b9061027f9083906001600160a01b0391909116815260200190565b60405180910390a15050565b6001600160a01b0380821660009081526020818152604080832081516060810183529054948516815260ff600160a01b860481161515938201849052600160a81b9095049094161515908401529091906102f85760405163907b361f60e01b815260040160405180910390fd5b8051604051634209fff160e01b81523360048201526001600160a01b03821690634209fff190602401602060405180830381865afa15801561033e573d6000803e3d6000fd5b505050506040513d601f19601f82011682018060405250810190610362919061047d565b1561036e579392505050565b604051635820429760e11b815260040160405180910390fd5b3360009081526020819052604090208054600160a01b900460ff166103bf576040516354473b4360e01b815260040160405180910390fd5b8054600160a81b900460ff16156103e95760405163669180e760e01b815260040160405180910390fd5b8054600160a81b60ff60a81b198216178255604080516001600160a01b0390921682523360208301527f9163f4e837035da853e4a19878c0c0d0cba4dde1d5c9a373914ec30550e3acd4910160405180910390a150565b611ded806104a083390190565b60006020828403121561045f57600080fd5b81356001600160a01b038116811461047657600080fd5b9392505050565b60006020828403121561048f57600080fd5b8151801515811461047657600080fdfe608060405234801561001057600080fd5b50604051611ded380380611ded83398101604081905261002f9161015b565b6001805480820182556000919091527fb10e2d527612073b26eecdfd717e6a320cf44b4afac2b0732d9fcbe2b7fa0cf60180546001600160a01b0319166001600160a01b0383161790556100a37f69f954bacb30026c76d33aa93eeaa3ee996e69e6170d10c3495fe7a1b5a82d71826100af565b5050600160045561018b565b6000828152602081815260408083206001600160a01b038516845290915281205460ff16610151576000838152602081815260408083206001600160a01b03861684529091529020805460ff191660011790556101093390565b6001600160a01b0316826001600160a01b0316847f2f8788117e7eff1d82e926ec794901d17c78024a50270940304540a733656f0d60405160405180910390a4506001610155565b5060005b92915050565b60006020828403121561016d57600080fd5b81516001600160a01b038116811461018457600080fd5b9392505050565b611c538061019a6000396000f3fe60806040526004361061014f5760003560e01c8063439370b1116100b6578063c311d0491161006f578063c311d04914610393578063d547741f146103a6578063dd6133b5146103c6578063e922ee6f146103e8578063eb77713414610408578063ee22610b1461042857600080fd5b8063439370b1146102f457806359705f81146102fc57806391d148541461031e578063a217fddf1461033e578063acf36e5314610353578063b7fa9c6e1461037357600080fd5b8063248a9ca311610108578063248a9ca31461022f5780632e7700f01461025f5780632f2ff15d1461027457806336568abe146102945780634209fff1146102b457806343585381146102d457600080fd5b806301ffc9a71461015b57806312065fe01461019057806312a39db2146101ad5780631d43b653146101cf5780631eee993a146101ef57806320ea8d861461020f57600080fd5b3661015657005b600080fd5b34801561016757600080fd5b5061017b6101763660046119d3565b610448565b60405190151581526020015b60405180910390f35b34801561019c57600080fd5b50475b604051908152602001610187565b3480156101b957600080fd5b506101cd6101c8366004611a20565b61047f565b005b3480156101db57600080fd5b506101cd6101ea366004611a3b565b610552565b3480156101fb57600080fd5b506101cd61020a366004611a20565b610754565b34801561021b57600080fd5b506101cd61022a366004611a65565b610856565b34801561023b57600080fd5b5061019f61024a366004611a65565b60009081526020819052604090206001015490565b34801561026b57600080fd5b5060025461019f565b34801561028057600080fd5b506101cd61028f366004611a7e565b610a1e565b3480156102a057600080fd5b506101cd6102af366004611a7e565b610a49565b3480156102c057600080fd5b5061017b6102cf366004611a20565b610a81565b3480156102e057600080fd5b506101cd6102ef366004611a65565b610ab9565b6101cd610ca8565b34801561030857600080fd5b50610311610cdf565b6040516101879190611aaa565b34801561032a57600080fd5b5061017b610339366004611a7e565b610d87565b34801561034a57600080fd5b5061019f600081565b34801561035f57600080fd5b506101cd61036e366004611a20565b610db0565b34801561037f57600080fd5b506101cd61038e366004611a65565b610f0a565b6101cd6103a1366004611a65565b6112c3565b3480156103b257600080fd5b506101cd6103c1366004611a7e565b61139a565b3480156103d257600080fd5b506103db6113bf565b6040516101879190611b34565b3480156103f457600080fd5b506101cd610403366004611a20565b611421565b34801561041457600080fd5b5061017b610423366004611a7e565b61164a565b34801561043457600080fd5b506101cd610443366004611a65565b6116ad565b60006001600160e01b03198216637965db0b60e01b148061047957506301ffc9a760e01b6001600160e01b03198316145b92915050565b600080516020611bde83398151915261049781611888565b6001600160a01b0382166104be5760405163e6c4247b60e01b815260040160405180910390fd5b6104d6600080516020611bfe83398151915283610d87565b6104f357604051630674afe760e41b815260040160405180910390fd5b61050b600080516020611bfe83398151915283611895565b50604080516001600160a01b03841681523360208201527fd5987086ef0ea0ec23ef7cd2dc39a293271a5501e3b5e05db7ef8b7771fe717391015b60405180910390a15050565b61056a600080516020611bde83398151915233610d87565b806105885750610588600080516020611bfe83398151915233610d87565b6105a5576040516303460cc160e01b815260040160405180910390fd5b6040805160c0810182523381526001600160a01b03848116602083018181529383018581526000606085018181526080860182815260045460a08801908152600280546001818101835595829052985160069099027f405787fa12a823e0f2b7631cc41b3ba8828b3321ca811111fa75cd3aa3bb5ace810180549a8a166001600160a01b03199b8c1617905599517f405787fa12a823e0f2b7631cc41b3ba8828b3321ca811111fa75cd3aa3bb5acf8b0180549190991699169890981790965592517f405787fa12a823e0f2b7631cc41b3ba8828b3321ca811111fa75cd3aa3bb5ad0880155517f405787fa12a823e0f2b7631cc41b3ba8828b3321ca811111fa75cd3aa3bb5ad18701805491151560ff1990921691909117905590517f405787fa12a823e0f2b7631cc41b3ba8828b3321ca811111fa75cd3aa3bb5ad286015591517f405787fa12a823e0f2b7631cc41b3ba8828b3321ca811111fa75cd3aa3bb5ad390940193909355905461071b91611b8b565b60405183815233907f941bd0ada49d76f3ef7a5ec4d0f0aa4b60eabdf543214a83b699526fe0a975689060200160405180910390a45050565b600080516020611bde83398151915261076c81611888565b6001600160a01b0382166107935760405163e6c4247b60e01b815260040160405180910390fd5b6107ab600080516020611bfe83398151915283610d87565b156107c957604051631269a72560e31b815260040160405180910390fd5b6107e1600080516020611bde83398151915283610d87565b156107ff576040516314e8d56b60e21b815260040160405180910390fd5b610817600080516020611bfe83398151915283611908565b50604080516001600160a01b03841681523360208201527f50fea2e96d594d78d1380617b74e6f8ac1d275020bc08f95e6447c806bbd3d089101610546565b600080516020611bde83398151915261086e81611888565b81600081116108905760405163f96896c760e01b815260040160405180910390fd5b60025461089e600183611b9e565b106108bc576040516315147c4560e21b815260040160405180910390fd5b8260026108ca600183611b9e565b815481106108da576108da611bb1565b600091825260209091206003600690920201015460ff161561090f5760405163db5e659b60e01b815260040160405180910390fd5b6003600061091e600187611b9e565b81526020808201929092526040908101600090812033825290925290205460ff1661095b57604051623f6b1f60ea1b815260040160405180910390fd5b6000600261096a600187611b9e565b8154811061097a5761097a611bb1565b90600052602060002090600602019050600181600401600082825461099f9190611b9e565b90915550600090506003816109b5600189611b9e565b8152602080820192909252604090810160009081203382529092529020805460ff19169115159190911790556109ec600186611b9e565b60405133907ff0dca620e2e81f7841d07bcc105e1704fb01475b278a9d4c236e1c62945edd5590600090a35050505050565b600082815260208190526040902060010154610a3981611888565b610a438383611908565b50505050565b6001600160a01b0381163314610a725760405163334bd91960e11b815260040160405180910390fd5b610a7c8282611895565b505050565b6000610a9b600080516020611bde83398151915283610d87565b806104795750610479600080516020611bfe83398151915283610d87565b600080516020611bde833981519152610ad181611888565b8160008111610af35760405163f96896c760e01b815260040160405180910390fd5b600254610b01600183611b9e565b10610b1f576040516315147c4560e21b815260040160405180910390fd5b826002610b2d600183611b9e565b81548110610b3d57610b3d611bb1565b600091825260209091206003600690920201015460ff1615610b725760405163db5e659b60e01b815260040160405180910390fd5b60036000610b81600187611b9e565b81526020808201929092526040908101600090812033825290925290205460ff1615610bc057604051634203265760e01b815260040160405180910390fd5b60006002610bcf600187611b9e565b81548110610bdf57610bdf611bb1565b906000526020600020906006020190504781600201541115610c1457604051633ed9d6e560e11b815260040160405180910390fd5b6001816004016000828254610c299190611b8b565b909155506001905060036000610c3f8389611b9e565b8152602080820192909252604090810160009081203382529092529020805460ff1916911515919091179055610c76600186611b9e565b60405133907f6f315954c385fbab81f9695ad5677985ae06e1d323c5d9883f7502303a41f92290600090a35050505050565b60405134815233907fe1fffcc4923d04b559f4d29a8bfc6cda04eb5b0d3c460751c2402c5c5cc9109c9060200160405180910390a2565b60606002805480602002602001604051908101604052809291908181526020016000905b82821015610d7e5760008481526020908190206040805160c0810182526006860290920180546001600160a01b03908116845260018083015490911684860152600282015492840192909252600381015460ff1615156060840152600481015460808401526005015460a08301529083529092019101610d03565b50505050905090565b6000918252602082815260408084206001600160a01b0393909316845291905290205460ff1690565b600080516020611bde833981519152610dc881611888565b6001600160a01b038216610def5760405163e6c4247b60e01b815260040160405180910390fd5b610e07600080516020611bde83398151915283610d87565b15610e2557604051638a8fb78160e01b815260040160405180910390fd5b610e3d600080516020611bfe83398151915283610d87565b15610e5b57604051633dc7adc160e21b815260040160405180910390fd5b610e73600080516020611bde83398151915283611908565b5060018054808201825560008290527fb10e2d527612073b26eecdfd717e6a320cf44b4afac2b0732d9fcbe2b7fa0cf60180546001600160a01b0319166001600160a01b038516179055600454610ec991611b8b565b600455604080516001600160a01b03841681523360208201527fa69305f4b79efd5ab00751d4880d4ea353e6d368537de75ece2df11dfddfa0e99101610546565b600080516020611bde833981519152610f2281611888565b8160008111610f445760405163f96896c760e01b815260040160405180910390fd5b600254610f52600183611b9e565b10610f70576040516315147c4560e21b815260040160405180910390fd5b826002610f7e600183611b9e565b81548110610f8e57610f8e611bb1565b600091825260209091206003600690920201015460ff1615610fc35760405163db5e659b60e01b815260040160405180910390fd5b600254600154858203611039576002805480610fe157610fe1611bc7565b60008281526020812060066000199093019283020180546001600160a01b0319908116825560018201805490911690556002810182905560038101805460ff191690556004810182905560050155905550610a439050565b6000611046600188611b9e565b90505b611054600184611b9e565b81101561111a576002816001018154811061107157611071611bb1565b90600052602060002090600602016002828154811061109257611092611bb1565b60009182526020909120825460069092020180546001600160a01b03199081166001600160a01b039384161782556001808501548184018054909316941693909317905560028084015490820155600380840154908201805460ff909216151560ff199092169190911790556004808401549082015560059283015492019190915501611049565b50600280548061112c5761112c611bc7565b60008281526020812060066000199093019283020180546001600160a01b0319908116825560018281018054909216909155600280830184905560038301805460ff191690556004830184905560059092018390559290935591906111919089611b9e565b815481106111a1576111a1611bb1565b90600052602060002090600602016004015411156112855760005b8181101561128357600360006001890381526020019081526020016000206000600183815481106111ef576111ef611bb1565b60009182526020808320909101546001600160a01b0316835282019290925260400190205460ff161561127b5760001987016000908152600360205260408120600180548391908590811061124657611246611bb1565b6000918252602080832091909101546001600160a01b031683528201929092526040019020805460ff19169115159190911790555b6001016111bc565b505b611290600187611b9e565b60405133907ff7d3316de78d34a2b6a24ed3da8db473c3349d4ef5f01d32ef556014d97fd89690600090a3505050505050565b600080516020611bde8339815191526112db81611888565b478211156112fc57604051633ed9d6e560e11b815260040160405180910390fd5b60405182815233907f884edad9ce6fa2440d8a54cc123490eb96d2768479d49ff9c7366125a94243649060200160405180910390a2604051600090339084908381818185875af1925050503d8060008114611373576040519150601f19603f3d011682016040523d82523d6000602084013e611378565b606091505b5050905080610a7c576040516312171d8360e31b815260040160405180910390fd5b6000828152602081905260409020600101546113b581611888565b610a438383611895565b6060600180548060200260200160405190810160405280929190818152602001828054801561141757602002820191906000526020600020905b81546001600160a01b031681526001909101906020018083116113f9575b5050505050905090565b600080516020611bde83398151915261143981611888565b6001600160a01b0382166114605760405163e6c4247b60e01b815260040160405180910390fd5b600160008154811061147457611474611bb1565b6000918252602090912001546001600160a01b03908116908316036114ac57604051631de67b0f60e31b815260040160405180910390fd5b6114c4600080516020611bde83398151915283610d87565b6114e15760405163727bb73360e11b815260040160405180910390fd5b60018054905b818110156115a557836001600160a01b03166001828154811061150c5761150c611bb1565b6000918252602090912001546001600160a01b03160361159d5760016115328184611b9e565b8154811061154257611542611bb1565b600091825260209091200154600180546001600160a01b03909216918390811061156e5761156e611bb1565b9060005260206000200160006101000a8154816001600160a01b0302191690836001600160a01b031602179055505b6001016114e7565b5060018054806115b7576115b7611bc7565b600082815260209020810160001990810180546001600160a01b03191690550190556115f1600080516020611bde83398151915284611895565b5060016004546116019190611b9e565b600455604080516001600160a01b03851681523360208201527f16e3bf0ca69d7e0007895b267c8bc3bef6f101be0f1d04273c839d6521e4ab6d910160405180910390a1505050565b600080831161166c5760405163f96896c760e01b815260040160405180910390fd5b6003600061167b600186611b9e565b8152602080820192909252604090810160009081206001600160a01b038616825290925290205460ff16905092915050565b600080516020611bde8339815191526116c581611888565b81600081116116e75760405163f96896c760e01b815260040160405180910390fd5b6002546116f5600183611b9e565b10611713576040516315147c4560e21b815260040160405180910390fd5b826002611721600183611b9e565b8154811061173157611731611bb1565b600091825260209091206003600690920201015460ff16156117665760405163db5e659b60e01b815260040160405180910390fd5b60006002611775600187611b9e565b8154811061178557611785611bb1565b906000526020600020906006020190506004548160040154146117bb57604051633048076b60e11b815260040160405180910390fd5b60038101805460ff191660019081179091556117d79086611b9e565b60405133907f7b97296edc75a36a401f12e0613cb8b04d49b77d790dcf26a9b3a53c9ef24c9390600090a3600181015460028201546040516000926001600160a01b031691614e209184818181858888f193505050503d8060008114611859576040519150601f19603f3d011682016040523d82523d6000602084013e61185e565b606091505b5050905080611880576040516312171d8360e31b815260040160405180910390fd5b505050505050565b6118928133611992565b50565b60006118a18383610d87565b15611900576000838152602081815260408083206001600160a01b0386168085529252808320805460ff1916905551339286917ff6391f5c32d9c69d2a47ea670b442974b53935d1edc7fd64eb21e047a839171b9190a4506001610479565b506000610479565b60006119148383610d87565b611900576000838152602081815260408083206001600160a01b03861684529091529020805460ff1916600117905561194a3390565b6001600160a01b0316826001600160a01b0316847f2f8788117e7eff1d82e926ec794901d17c78024a50270940304540a733656f0d60405160405180910390a4506001610479565b61199c8282610d87565b6119cf5760405163e2517d3f60e01b81526001600160a01b03821660048201526024810183905260440160405180910390fd5b5050565b6000602082840312156119e557600080fd5b81356001600160e01b0319811681146119fd57600080fd5b9392505050565b80356001600160a01b0381168114611a1b57600080fd5b919050565b600060208284031215611a3257600080fd5b6119fd82611a04565b60008060408385031215611a4e57600080fd5b611a5783611a04565b946020939093013593505050565b600060208284031215611a7757600080fd5b5035919050565b60008060408385031215611a9157600080fd5b82359150611aa160208401611a04565b90509250929050565b602080825282518282018190526000918401906040840190835b81811015611b2957835180516001600160a01b03908116855260208083015190911681860152604080830151908601526060808301511515908601526080808301519086015260a091820151918501919091529093019260c090920191600101611ac4565b509095945050505050565b602080825282518282018190526000918401906040840190835b81811015611b295783516001600160a01b0316835260209384019390920191600101611b4e565b634e487b7160e01b600052601160045260246000fd5b8082018082111561047957610479611b75565b8181038181111561047957610479611b75565b634e487b7160e01b600052603260045260246000fd5b634e487b7160e01b600052603160045260246000fdfe69f954bacb30026c76d33aa93eeaa3ee996e69e6170d10c3495fe7a1b5a82d711259e29d9bae6d985de2aa88464bb648989ed5ed903940f680996ff13d0578bfa2646970667358221220432cc9e1d9453657814710d2ec706748dc33fe506e2e8b127bae071a16e25ef264736f6c634300081b0033a2646970667358221220ce6e3dfcbb3691e64923cb110d09941a813c0fa93d5e93966e0f512bc3196b4964736f6c634300081b0033","linkReferences":{}},"methodIdentifiers":{"createParentalWallet()":"0f3866f1","getNotifyStatus(address)":"065603bf","joinWallet(address)":"6a804bcd","onNotification()":"797c2edc"},"id":30}