{
  "_format": "hh-sol-artifact-1",
  "contractName": "CreateWallet",
  "sourceName": "contracts/CreateWallet.sol",
  "abi": [
    {
      "anonymous": false,
      "inputs": [
        {
          "indexed": false,
          "internalType": "address",
          "name": "contractAddress",
          "type": "address"
        }
      ],
      "name": "created",
      "type": "event"
    },
    {
      "inputs": [
        {
          "internalType": "address",
          "name": "user2",
          "type": "address"
        }
      ],
      "name": "CreateParentalWallet",
      "outputs": [],
      "stateMutability": "nonpayable",
      "type": "function"
    },
    {
      "inputs": [],
      "name": "joinWallet",
      "outputs": [
        {
          "internalType": "bool",
          "name": "",
          "type": "bool"
        }
      ],
      "stateMutability": "view",
      "type": "function"
    }
  ],
  "bytecode": "0x608060405234801561001057600080fd5b50613597806100206000396000f3fe60806040523480156200001157600080fd5b50600436106200003a5760003560e01c8063a0f90523146200003f578063b7777a2e1462000061575b600080fd5b6200004962000081565b6040516200005891906200058d565b60405180910390f35b6200007f60048036038101906200007991906200049e565b62000262565b005b6000806000803373ffffffffffffffffffffffffffffffffffffffff1673ffffffffffffffffffffffffffffffffffffffff1681526020019081526020016000206040518060400160405290816000820160009054906101000a900473ffffffffffffffffffffffffffffffffffffffff1673ffffffffffffffffffffffffffffffffffffffff1673ffffffffffffffffffffffffffffffffffffffff1681526020016000820160149054906101000a900460ff161515151581525050905060008160000151905060008173ffffffffffffffffffffffffffffffffffffffff1662ce8e3e6040518163ffffffff1660e01b815260040160006040518083038186803b1580156200019157600080fd5b505afa158015620001a6573d6000803e3d6000fd5b505050506040513d6000823e3d601f19601f82011682018060405250810190620001d19190620004d0565b905060005b815181101562000256573373ffffffffffffffffffffffffffffffffffffffff168282815181106200020d576200020c620006ff565b5b602002602001015173ffffffffffffffffffffffffffffffffffffffff161415620002405760019450505050506200025f565b80806200024d9062000682565b915050620001d6565b50600093505050505b90565b600033826040516200027490620003b4565b6200028192919062000560565b604051809103906000f0801580156200029e573d6000803e3d6000fd5b50905060405180604001604052808273ffffffffffffffffffffffffffffffffffffffff168152602001600115158152506000803373ffffffffffffffffffffffffffffffffffffffff1673ffffffffffffffffffffffffffffffffffffffff16815260200190815260200160002060008201518160000160006101000a81548173ffffffffffffffffffffffffffffffffffffffff021916908373ffffffffffffffffffffffffffffffffffffffff16021790555060208201518160000160146101000a81548160ff0219169083151502179055509050507fd42efd83974d1c72972b3f04b70c897fca3c5befd9edca06f91e3034b0665bfc81604051620003a8919062000543565b60405180910390a15050565b612dc5806200079d83390190565b6000620003d9620003d384620005d3565b620005aa565b90508083825260208201905082856020860282011115620003ff57620003fe62000762565b5b60005b8581101562000433578162000418888262000454565b84526020840193506020830192505060018101905062000402565b5050509392505050565b6000813590506200044e8162000782565b92915050565b600081519050620004658162000782565b92915050565b600082601f8301126200048357620004826200075d565b5b815162000495848260208601620003c2565b91505092915050565b600060208284031215620004b757620004b66200076c565b5b6000620004c7848285016200043d565b91505092915050565b600060208284031215620004e957620004e86200076c565b5b600082015167ffffffffffffffff8111156200050a576200050962000767565b5b62000518848285016200046b565b91505092915050565b6200052c8162000602565b82525050565b6200053d8162000616565b82525050565b60006020820190506200055a600083018462000521565b92915050565b600060408201905062000577600083018562000521565b62000586602083018462000521565b9392505050565b6000602082019050620005a4600083018462000532565b92915050565b6000620005b6620005c9565b9050620005c482826200064c565b919050565b6000604051905090565b600067ffffffffffffffff821115620005f157620005f06200072e565b5b602082029050602081019050919050565b60006200060f8262000622565b9050919050565b60008115159050919050565b600073ffffffffffffffffffffffffffffffffffffffff82169050919050565b6000819050919050565b620006578262000771565b810181811067ffffffffffffffff821117156200067957620006786200072e565b5b80604052505050565b60006200068f8262000642565b91507fffffffffffffffffffffffffffffffffffffffffffffffffffffffffffffffff821415620006c557620006c4620006d0565b5b600182019050919050565b7f4e487b7100000000000000000000000000000000000000000000000000000000600052601160045260246000fd5b7f4e487b7100000000000000000000000000000000000000000000000000000000600052603260045260246000fd5b7f4e487b7100000000000000000000000000000000000000000000000000000000600052604160045260246000fd5b600080fd5b600080fd5b600080fd5b600080fd5b6000601f19601f8301169050919050565b6200078d8162000602565b81146200079957600080fd5b5056fe60806040523480156200001157600080fd5b5060405162002dc538038062002dc583398181016040528101906200003791906200027b565b81600080600281106200004f576200004e620002f6565b5b0160006101000a81548173ffffffffffffffffffffffffffffffffffffffff021916908373ffffffffffffffffffffffffffffffffffffffff160217905550806000600160028110620000a757620000a6620002f6565b5b0160006101000a81548173ffffffffffffffffffffffffffffffffffffffff021916908373ffffffffffffffffffffffffffffffffffffffff1602179055506002829080600181540180825580915050600190039060005260206000200160009091909190916101000a81548173ffffffffffffffffffffffffffffffffffffffff021916908373ffffffffffffffffffffffffffffffffffffffff1602179055506002819080600181540180825580915050600190039060005260206000200160009091909190916101000a81548173ffffffffffffffffffffffffffffffffffffffff021916908373ffffffffffffffffffffffffffffffffffffffff1602179055506001600360008473ffffffffffffffffffffffffffffffffffffffff1673ffffffffffffffffffffffffffffffffffffffff16815260200190815260200160002060006101000a81548160ff0219169083151502179055506001600360008373ffffffffffffffffffffffffffffffffffffffff1673ffffffffffffffffffffffffffffffffffffffff16815260200190815260200160002060006101000a81548160ff021916908315150217905550505062000344565b60008151905062000275816200032a565b92915050565b6000806040838503121562000295576200029462000325565b5b6000620002a58582860162000264565b9250506020620002b88582860162000264565b9150509250929050565b6000620002cf82620002d6565b9050919050565b600073ffffffffffffffffffffffffffffffffffffffff82169050919050565b7f4e487b7100000000000000000000000000000000000000000000000000000000600052603260045260246000fd5b600080fd5b6200033581620002c2565b81146200034157600080fd5b50565b612a7180620003546000396000f3fe6080604052600436106100eb5760003560e01c806380f59a651161008a578063ae30dc3f11610059578063ae30dc3f146102bf578063b7fa9c6e146102e8578063e168c3ec14610311578063eb841c851461033c576100f2565b806380f59a65146101ed5780639ace38c21461022a578063a0e67e2b1461026b578063aa4a708014610296576100f2565b8063497347fa116100c6578063497347fa1461017857806359705f811461018f5780635b37930b146101ba5780635d845dcb146101c4576100f2565b8062ce8e3e146100f757806312065fe0146101225780632e7700f01461014d576100f2565b366100f257005b600080fd5b34801561010357600080fd5b5061010c610365565b60405161011991906121f3565b60405180910390f35b34801561012e57600080fd5b506101376103f3565b60405161014491906123b2565b60405180910390f35b34801561015957600080fd5b506101626103fb565b60405161016f91906123b2565b60405180910390f35b34801561018457600080fd5b5061018d610408565b005b34801561019b57600080fd5b506101a4610565565b6040516101b19190612215565b60405180910390f35b6101c26106db565b005b3480156101d057600080fd5b506101eb60048036038101906101e69190611cc0565b61072b565b005b3480156101f957600080fd5b50610214600480360381019061020f9190611ced565b610ad2565b6040516102219190612237565b60405180910390f35b34801561023657600080fd5b50610251600480360381019061024c9190611cc0565b610b01565b60405161026295949392919061217e565b60405180910390f35b34801561027757600080fd5b50610280610bfc565b60405161028d91906121d8565b60405180910390f35b3480156102a257600080fd5b506102bd60048036038101906102b89190611c77565b610c7d565b005b3480156102cb57600080fd5b506102e660048036038101906102e19190611cc0565b610fcb565b005b3480156102f457600080fd5b5061030f600480360381019061030a9190611cc0565b611345565b005b34801561031d57600080fd5b50610326611730565b60405161033391906123b2565b60405180910390f35b34801561034857600080fd5b50610363600480360381019061035e9190611c08565b611736565b005b606060028054806020026020016040519081016040528092919081815260200182805480156103e957602002820191906000526020600020905b8160009054906101000a900473ffffffffffffffffffffffffffffffffffffffff1673ffffffffffffffffffffffffffffffffffffffff168152602001906001019080831161039f575b5050505050905090565b600047905090565b6000600680549050905090565b6000806002811061041c5761041b612773565b5b0160009054906101000a900473ffffffffffffffffffffffffffffffffffffffff1673ffffffffffffffffffffffffffffffffffffffff163373ffffffffffffffffffffffffffffffffffffffff1614806104d85750600060016002811061048757610486612773565b5b0160009054906101000a900473ffffffffffffffffffffffffffffffffffffffff1673ffffffffffffffffffffffffffffffffffffffff163373ffffffffffffffffffffffffffffffffffffffff16145b610517576040517f08c379a000000000000000000000000000000000000000000000000000000000815260040161050e90612392565b60405180910390fd5b6000806002811061052b5761052a612773565b5b0160009054906101000a900473ffffffffffffffffffffffffffffffffffffffff1673ffffffffffffffffffffffffffffffffffffffff16ff5b60606006805480602002602001604051908101604052809291908181526020016000905b828210156106d257838290600052602060002090600502016040518060a00160405290816000820160009054906101000a900473ffffffffffffffffffffffffffffffffffffffff1673ffffffffffffffffffffffffffffffffffffffff1673ffffffffffffffffffffffffffffffffffffffff168152602001600182015481526020016002820160009054906101000a900460ff16151515158152602001600382015481526020016004820180546106419061263a565b80601f016020809104026020016040519081016040528092919081815260200182805461066d9061263a565b80156106ba5780601f1061068f576101008083540402835291602001916106ba565b820191906000526020600020905b81548152906001019060200180831161069d57829003601f168201915b50505050508152505081526020019060010190610589565b50505050905090565b3373ffffffffffffffffffffffffffffffffffffffff167fe1fffcc4923d04b559f4d29a8bfc6cda04eb5b0d3c460751c2402c5c5cc9109c3460405161072191906123b2565b60405180910390a2565b6000806002811061073f5761073e612773565b5b0160009054906101000a900473ffffffffffffffffffffffffffffffffffffffff1673ffffffffffffffffffffffffffffffffffffffff163373ffffffffffffffffffffffffffffffffffffffff1614806107fb575060006001600281106107aa576107a9612773565b5b0160009054906101000a900473ffffffffffffffffffffffffffffffffffffffff1673ffffffffffffffffffffffffffffffffffffffff163373ffffffffffffffffffffffffffffffffffffffff16145b61083a576040517f08c379a000000000000000000000000000000000000000000000000000000000815260040161083190612392565b60405180910390fd5b806006805490508110610882576040517f08c379a000000000000000000000000000000000000000000000000000000000815260040161087990612292565b60405180910390fd5b816006818154811061089757610896612773565b5b906000526020600020906005020160020160009054906101000a900460ff16156108f6576040517f08c379a00000000000000000000000000000000000000000000000000000000081526004016108ed906122d2565b60405180910390fd5b826005600082815260200190815260200160002060003373ffffffffffffffffffffffffffffffffffffffff1673ffffffffffffffffffffffffffffffffffffffff16815260200190815260200160002060009054906101000a900460ff1615610995576040517f08c379a000000000000000000000000000000000000000000000000000000000815260040161098c90612372565b60405180910390fd5b6000600685815481106109ab576109aa612773565b5b906000526020600020906005020190504781600101541115610a02576040517f08c379a00000000000000000000000000000000000000000000000000000000081526004016109f990612272565b60405180910390fd5b6001816003016000828254610a179190612526565b9250508190555060016005600087815260200190815260200160002060003373ffffffffffffffffffffffffffffffffffffffff1673ffffffffffffffffffffffffffffffffffffffff16815260200190815260200160002060006101000a81548160ff021916908315150217905550843373ffffffffffffffffffffffffffffffffffffffff167f6f315954c385fbab81f9695ad5677985ae06e1d323c5d9883f7502303a41f92260405160405180910390a35050505050565b60056020528160005260406000206020528060005260406000206000915091509054906101000a900460ff1681565b60068181548110610b1157600080fd5b90600052602060002090600502016000915090508060000160009054906101000a900473ffffffffffffffffffffffffffffffffffffffff16908060010154908060020160009054906101000a900460ff1690806003015490806004018054610b799061263a565b80601f0160208091040260200160405190810160405280929190818152602001828054610ba59061263a565b8015610bf25780601f10610bc757610100808354040283529160200191610bf2565b820191906000526020600020905b815481529060010190602001808311610bd557829003601f168201915b5050505050905085565b610c0461193e565b6000600280602002604051908101604052809291908260028015610c73576020028201915b8160009054906101000a900473ffffffffffffffffffffffffffffffffffffffff1673ffffffffffffffffffffffffffffffffffffffff1681526020019060010190808311610c29575b5050505050905090565b60008060028110610c9157610c90612773565b5b0160009054906101000a900473ffffffffffffffffffffffffffffffffffffffff1673ffffffffffffffffffffffffffffffffffffffff163373ffffffffffffffffffffffffffffffffffffffff161480610d4d57506000600160028110610cfc57610cfb612773565b5b0160009054906101000a900473ffffffffffffffffffffffffffffffffffffffff1673ffffffffffffffffffffffffffffffffffffffff163373ffffffffffffffffffffffffffffffffffffffff16145b610d8c576040517f08c379a0000000000000000000000000000000000000000000000000000000008152600401610d8390612392565b60405180910390fd5b6000815111610dd0576040517f08c379a0000000000000000000000000000000000000000000000000000000008152600401610dc790612352565b60405180910390fd5b60005b8151811015610fc7576000828281518110610df157610df0612773565b5b60200260200101519050600073ffffffffffffffffffffffffffffffffffffffff168173ffffffffffffffffffffffffffffffffffffffff161415610e6b576040517f08c379a0000000000000000000000000000000000000000000000000000000008152600401610e6290612252565b60405180910390fd5b600360008273ffffffffffffffffffffffffffffffffffffffff1673ffffffffffffffffffffffffffffffffffffffff16815260200190815260200160002060009054906101000a900460ff1615610ef8576040517f08c379a0000000000000000000000000000000000000000000000000000000008152600401610eef906122f2565b60405180910390fd5b6001600360008373ffffffffffffffffffffffffffffffffffffffff1673ffffffffffffffffffffffffffffffffffffffff16815260200190815260200160002060006101000a81548160ff0219169083151502179055506002819080600181540180825580915050600190039060005260206000200160009091909190916101000a81548173ffffffffffffffffffffffffffffffffffffffff021916908373ffffffffffffffffffffffffffffffffffffffff160217905550508080610fbf9061269d565b915050610dd3565b5050565b60008060028110610fdf57610fde612773565b5b0160009054906101000a900473ffffffffffffffffffffffffffffffffffffffff1673ffffffffffffffffffffffffffffffffffffffff163373ffffffffffffffffffffffffffffffffffffffff16148061109b5750600060016002811061104a57611049612773565b5b0160009054906101000a900473ffffffffffffffffffffffffffffffffffffffff1673ffffffffffffffffffffffffffffffffffffffff163373ffffffffffffffffffffffffffffffffffffffff16145b6110da576040517f08c379a00000000000000000000000000000000000000000000000000000000081526004016110d190612392565b60405180910390fd5b806006805490508110611122576040517f08c379a000000000000000000000000000000000000000000000000000000000815260040161111990612292565b60405180910390fd5b816006818154811061113757611136612773565b5b906000526020600020906005020160020160009054906101000a900460ff1615611196576040517f08c379a000000000000000000000000000000000000000000000000000000000815260040161118d906122d2565b60405180910390fd5b6000600684815481106111ac576111ab612773565b5b9060005260206000209060050201905060045481600301541015611205576040517f08c379a00000000000000000000000000000000000000000000000000000000081526004016111fc90612312565b60405180910390fd5b60018160020160006101000a81548160ff02191690831515021790555060008160000160009054906101000a900473ffffffffffffffffffffffffffffffffffffffff1673ffffffffffffffffffffffffffffffffffffffff16614e20836001015460405161127390612169565b600060405180830381858888f193505050503d80600081146112b1576040519150601f19603f3d011682016040523d82523d6000602084013e6112b6565b606091505b50509050806112fa576040517f08c379a00000000000000000000000000000000000000000000000000000000081526004016112f190612332565b60405180910390fd5b843373ffffffffffffffffffffffffffffffffffffffff167f7b97296edc75a36a401f12e0613cb8b04d49b77d790dcf26a9b3a53c9ef24c9360405160405180910390a35050505050565b6000806002811061135957611358612773565b5b0160009054906101000a900473ffffffffffffffffffffffffffffffffffffffff1673ffffffffffffffffffffffffffffffffffffffff163373ffffffffffffffffffffffffffffffffffffffff161480611415575060006001600281106113c4576113c3612773565b5b0160009054906101000a900473ffffffffffffffffffffffffffffffffffffffff1673ffffffffffffffffffffffffffffffffffffffff163373ffffffffffffffffffffffffffffffffffffffff16145b611454576040517f08c379a000000000000000000000000000000000000000000000000000000000815260040161144b90612392565b60405180910390fd5b80600680549050811061149c576040517f08c379a000000000000000000000000000000000000000000000000000000000815260040161149390612292565b60405180910390fd5b81600681815481106114b1576114b0612773565b5b906000526020600020906005020160020160009054906101000a900460ff1615611510576040517f08c379a0000000000000000000000000000000000000000000000000000000008152600401611507906122d2565b60405180910390fd5b6006805490508310611557576040517f08c379a000000000000000000000000000000000000000000000000000000000815260040161154e906122b2565b60405180910390fd5b60008390505b600160068054905061156f919061257c565b8110156116a45760066001826115859190612526565b8154811061159657611595612773565b5b9060005260206000209060050201600682815481106115b8576115b7612773565b5b90600052602060002090600502016000820160009054906101000a900473ffffffffffffffffffffffffffffffffffffffff168160000160006101000a81548173ffffffffffffffffffffffffffffffffffffffff021916908373ffffffffffffffffffffffffffffffffffffffff160217905550600182015481600101556002820160009054906101000a900460ff168160020160006101000a81548160ff0219169083151502179055506003820154816003015560048201816004019080546116829061263a565b61168d929190611960565b50905050808061169c9061269d565b91505061155d565b5060068054806116b7576116b6612744565b5b6001900381819060005260206000209060050201600080820160006101000a81549073ffffffffffffffffffffffffffffffffffffffff021916905560018201600090556002820160006101000a81549060ff0219169055600382016000905560048201600061172791906119ed565b50509055505050565b60045481565b600360003373ffffffffffffffffffffffffffffffffffffffff1673ffffffffffffffffffffffffffffffffffffffff16815260200190815260200160002060009054906101000a900460ff166117c2576040517f08c379a00000000000000000000000000000000000000000000000000000000081526004016117b990612392565b60405180910390fd5b6000600680549050905060066040518060a001604052808673ffffffffffffffffffffffffffffffffffffffff1681526020018581526020016000151581526020016000815260200184815250908060018154018082558091505060019003906000526020600020906005020160009091909190915060008201518160000160006101000a81548173ffffffffffffffffffffffffffffffffffffffff021916908373ffffffffffffffffffffffffffffffffffffffff1602179055506020820151816001015560408201518160020160006101000a81548160ff0219169083151502179055506060820151816003015560808201518160040190805190602001906118cf929190611a2d565b5050508373ffffffffffffffffffffffffffffffffffffffff16813373ffffffffffffffffffffffffffffffffffffffff167f941bd0ada49d76f3ef7a5ec4d0f0aa4b60eabdf543214a83b699526fe0a975688660405161193091906123b2565b60405180910390a450505050565b6040518060400160405280600290602082028036833780820191505090505090565b82805461196c9061263a565b90600052602060002090601f01602090048101928261198e57600085556119dc565b82601f1061199f57805485556119dc565b828001600101855582156119dc57600052602060002091601f016020900482015b828111156119db5782548255916001019190600101906119c0565b5b5090506119e99190611ab3565b5090565b5080546119f99061263a565b6000825580601f10611a0b5750611a2a565b601f016020900490600052602060002090810190611a299190611ab3565b5b50565b828054611a399061263a565b90600052602060002090601f016020900481019282611a5b5760008555611aa2565b82601f10611a7457805160ff1916838001178555611aa2565b82800160010185558215611aa2579182015b82811115611aa1578251825591602001919060010190611a86565b5b509050611aaf9190611ab3565b5090565b5b80821115611acc576000816000905550600101611ab4565b5090565b6000611ae3611ade846123f2565b6123cd565b90508083825260208201905082856020860282011115611b0657611b056127d6565b5b60005b85811015611b365781611b1c8882611b82565b845260208401935060208301925050600181019050611b09565b5050509392505050565b6000611b53611b4e8461241e565b6123cd565b905082815260208101848484011115611b6f57611b6e6127db565b5b611b7a8482856125f8565b509392505050565b600081359050611b9181612a0d565b92915050565b600082601f830112611bac57611bab6127d1565b5b8135611bbc848260208601611ad0565b91505092915050565b600082601f830112611bda57611bd96127d1565b5b8135611bea848260208601611b40565b91505092915050565b600081359050611c0281612a24565b92915050565b600080600060608486031215611c2157611c206127e5565b5b6000611c2f86828701611b82565b9350506020611c4086828701611bf3565b925050604084013567ffffffffffffffff811115611c6157611c606127e0565b5b611c6d86828701611bc5565b9150509250925092565b600060208284031215611c8d57611c8c6127e5565b5b600082013567ffffffffffffffff811115611cab57611caa6127e0565b5b611cb784828501611b97565b91505092915050565b600060208284031215611cd657611cd56127e5565b5b6000611ce484828501611bf3565b91505092915050565b60008060408385031215611d0457611d036127e5565b5b6000611d1285828601611bf3565b9250506020611d2385828601611b82565b9150509250929050565b6000611d398383611d59565b60208301905092915050565b6000611d5183836120d5565b905092915050565b611d62816125b0565b82525050565b611d71816125b0565b82525050565b611d8081612479565b611d8a81846124cc565b9250611d958261244f565b8060005b83811015611dc6578151611dad8782611d2d565b9650611db8836124a5565b925050600181019050611d99565b505050505050565b6000611dd982612484565b611de381856124d7565b9350611dee83612459565b8060005b83811015611e1f578151611e068882611d2d565b9750611e11836124b2565b925050600181019050611df2565b5085935050505092915050565b6000611e378261248f565b611e4181856124e8565b935083602082028501611e5385612469565b8060005b85811015611e8f5784840389528151611e708582611d45565b9450611e7b836124bf565b925060208a01995050600181019050611e57565b50829750879550505050505092915050565b611eaa816125c2565b82525050565b611eb9816125c2565b82525050565b6000611eca8261249a565b611ed48185612504565b9350611ee4818560208601612607565b611eed816127ea565b840191505092915050565b6000611f038261249a565b611f0d8185612515565b9350611f1d818560208601612607565b611f26816127ea565b840191505092915050565b6000611f3e600d83612515565b9150611f49826127fb565b602082019050919050565b6000611f61602283612515565b9150611f6c82612824565b604082019050919050565b6000611f84601e83612515565b9150611f8f82612873565b602082019050919050565b6000611fa7600d83612515565b9150611fb28261289c565b602082019050919050565b6000611fca602383612515565b9150611fd5826128c5565b604082019050919050565b6000611fed601283612515565b9150611ff882612914565b602082019050919050565b6000612010601083612515565b915061201b8261293d565b602082019050919050565b6000612033601283612515565b915061203e82612966565b602082019050919050565b60006120566000836124f9565b91506120618261298f565b600082019050919050565b6000612079601d83612515565b915061208482612992565b602082019050919050565b600061209c602083612515565b91506120a7826129bb565b602082019050919050565b60006120bf601583612515565b91506120ca826129e4565b602082019050919050565b600060a0830160008301516120ed6000860182611d59565b506020830151612100602086018261214b565b5060408301516121136040860182611ea1565b506060830151612126606086018261214b565b506080830151848203608086015261213e8282611ebf565b9150508091505092915050565b612154816125ee565b82525050565b612163816125ee565b82525050565b600061217482612049565b9150819050919050565b600060a0820190506121936000830188611d68565b6121a0602083018761215a565b6121ad6040830186611eb0565b6121ba606083018561215a565b81810360808301526121cc8184611ef8565b90509695505050505050565b60006040820190506121ed6000830184611d77565b92915050565b6000602082019050818103600083015261220d8184611dce565b905092915050565b6000602082019050818103600083015261222f8184611e2c565b905092915050565b600060208201905061224c6000830184611eb0565b92915050565b6000602082019050818103600083015261226b81611f31565b9050919050565b6000602082019050818103600083015261228b81611f54565b9050919050565b600060208201905081810360008301526122ab81611f77565b9050919050565b600060208201905081810360008301526122cb81611f9a565b9050919050565b600060208201905081810360008301526122eb81611fbd565b9050919050565b6000602082019050818103600083015261230b81611fe0565b9050919050565b6000602082019050818103600083015261232b81612003565b9050919050565b6000602082019050818103600083015261234b81612026565b9050919050565b6000602082019050818103600083015261236b8161206c565b9050919050565b6000602082019050818103600083015261238b8161208f565b9050919050565b600060208201905081810360008301526123ab816120b2565b9050919050565b60006020820190506123c7600083018461215a565b92915050565b60006123d76123e8565b90506123e3828261266c565b919050565b6000604051905090565b600067ffffffffffffffff82111561240d5761240c6127a2565b5b602082029050602081019050919050565b600067ffffffffffffffff821115612439576124386127a2565b5b612442826127ea565b9050602081019050919050565b6000819050919050565b6000819050602082019050919050565b6000819050602082019050919050565b600060029050919050565b600081519050919050565b600081519050919050565b600081519050919050565b6000602082019050919050565b6000602082019050919050565b6000602082019050919050565b600081905092915050565b600082825260208201905092915050565b600082825260208201905092915050565b600081905092915050565b600082825260208201905092915050565b600082825260208201905092915050565b6000612531826125ee565b915061253c836125ee565b9250827fffffffffffffffffffffffffffffffffffffffffffffffffffffffffffffffff03821115612571576125706126e6565b5b828201905092915050565b6000612587826125ee565b9150612592836125ee565b9250828210156125a5576125a46126e6565b5b828203905092915050565b60006125bb826125ce565b9050919050565b60008115159050919050565b600073ffffffffffffffffffffffffffffffffffffffff82169050919050565b6000819050919050565b82818337600083830152505050565b60005b8381101561262557808201518184015260208101905061260a565b83811115612634576000848401525b50505050565b6000600282049050600182168061265257607f821691505b6020821081141561266657612665612715565b5b50919050565b612675826127ea565b810181811067ffffffffffffffff82111715612694576126936127a2565b5b80604052505050565b60006126a8826125ee565b91507fffffffffffffffffffffffffffffffffffffffffffffffffffffffffffffffff8214156126db576126da6126e6565b5b600182019050919050565b7f4e487b7100000000000000000000000000000000000000000000000000000000600052601160045260246000fd5b7f4e487b7100000000000000000000000000000000000000000000000000000000600052602260045260246000fd5b7f4e487b7100000000000000000000000000000000000000000000000000000000600052603160045260246000fd5b7f4e487b7100000000000000000000000000000000000000000000000000000000600052603260045260246000fd5b7f4e487b7100000000000000000000000000000000000000000000000000000000600052604160045260246000fd5b600080fd5b600080fd5b600080fd5b600080fd5b600080fd5b6000601f19601f8301169050919050565b7f496e76616c6964204f776e657200000000000000000000000000000000000000600082015250565b7f506c6561736520616464206d6f72652042616c616e636520746f20436f6e666960008201527f726d000000000000000000000000000000000000000000000000000000000000602082015250565b7f54686973205472616e73616374696f6e20446f65736e27742065786973740000600082015250565b7f747820646f6e7420657869737400000000000000000000000000000000000000600082015250565b7f54686973207472616e736163746f6e20697320616c726561647920657865637560008201527f7465640000000000000000000000000000000000000000000000000000000000602082015250565b7f75736572206973206e6f7420756e697175650000000000000000000000000000600082015250565b7f63616e6e6f742045786563757465212100000000000000000000000000000000600082015250565b7f5472616e73616374696f6e206661696c65720000000000000000000000000000600082015250565b50565b7f4174206c65617374206f6e652075736572206973207265717569726564000000600082015250565b7f7472616e73616374696f6e20697320616c726561647920636f6e6669726d6564600082015250565b7f596f7520646f6e27742068617665206163657373730000000000000000000000600082015250565b612a16816125b0565b8114612a2157600080fd5b50565b612a2d816125ee565b8114612a3857600080fd5b5056fea26469706673582212204eb4d5e0e75282a8ab5170bc62fc704a662927f78d89ae8d99e4439401f4819f64736f6c63430008060033a2646970667358221220af54be735e12d0340b60071dcf80967eb5d118552c08e1a38794ae7191f922d464736f6c63430008060033",
  "linkReferences": {},
  "deployedLinkReferences": {}
}