{
  "_format": "hh-sol-artifact-1",
  "contractName": "Parental",
  "sourceName": "contracts/Parental.sol",
  "abi": [
    {
      "anonymous": false,
      "inputs": [
        {
          "indexed": true,
          "internalType": "address",
          "name": "owner",
          "type": "address"
        },
        {
          "indexed": true,
          "internalType": "uint256",
          "name": "txIndex",
          "type": "uint256"
        }
      ],
      "name": "ConfirmTrans",
      "type": "event"
    },
    {
      "anonymous": false,
      "inputs": [
        {
          "indexed": true,
          "internalType": "address",
          "name": "sender",
          "type": "address"
        },
        {
          "indexed": false,
          "internalType": "uint256",
          "name": "amount",
          "type": "uint256"
        },
        {
          "indexed": false,
          "internalType": "uint256",
          "name": "balance",
          "type": "uint256"
        }
      ],
      "name": "Deposit",
      "type": "event"
    },
    {
      "anonymous": false,
      "inputs": [
        {
          "indexed": true,
          "internalType": "address",
          "name": "owner",
          "type": "address"
        },
        {
          "indexed": true,
          "internalType": "uint256",
          "name": "txIndex",
          "type": "uint256"
        }
      ],
      "name": "ExecuteTrans",
      "type": "event"
    },
    {
      "anonymous": false,
      "inputs": [
        {
          "indexed": true,
          "internalType": "address",
          "name": "owner",
          "type": "address"
        },
        {
          "indexed": true,
          "internalType": "uint256",
          "name": "txIndex",
          "type": "uint256"
        }
      ],
      "name": "RevokeTrans",
      "type": "event"
    },
    {
      "anonymous": false,
      "inputs": [
        {
          "indexed": false,
          "internalType": "bool",
          "name": "status",
          "type": "bool"
        }
      ],
      "name": "SetOwner",
      "type": "event"
    },
    {
      "anonymous": false,
      "inputs": [
        {
          "indexed": false,
          "internalType": "bool",
          "name": "status",
          "type": "bool"
        }
      ],
      "name": "Signup",
      "type": "event"
    },
    {
      "anonymous": false,
      "inputs": [
        {
          "indexed": true,
          "internalType": "address",
          "name": "owner",
          "type": "address"
        },
        {
          "indexed": true,
          "internalType": "uint256",
          "name": "txIndex",
          "type": "uint256"
        },
        {
          "indexed": true,
          "internalType": "address",
          "name": "to",
          "type": "address"
        },
        {
          "indexed": false,
          "internalType": "uint256",
          "name": "value",
          "type": "uint256"
        }
      ],
      "name": "SubmitTrans",
      "type": "event"
    },
    {
      "anonymous": false,
      "inputs": [
        {
          "indexed": false,
          "internalType": "bool",
          "name": "status",
          "type": "bool"
        }
      ],
      "name": "login",
      "type": "event"
    },
    {
      "inputs": [
        {
          "internalType": "address",
          "name": "a",
          "type": "address"
        },
        {
          "internalType": "uint256",
          "name": "_txIndex",
          "type": "uint256"
        }
      ],
      "name": "ConfirmTransactions",
      "outputs": [],
      "stateMutability": "nonpayable",
      "type": "function"
    },
    {
      "inputs": [
        {
          "internalType": "address",
          "name": "a",
          "type": "address"
        }
      ],
      "name": "DepositEth",
      "outputs": [],
      "stateMutability": "payable",
      "type": "function"
    },
    {
      "inputs": [
        {
          "internalType": "address",
          "name": "a",
          "type": "address"
        },
        {
          "internalType": "uint256",
          "name": "_txIndex",
          "type": "uint256"
        }
      ],
      "name": "ExecuteTransaction",
      "outputs": [],
      "stateMutability": "nonpayable",
      "type": "function"
    },
    {
      "inputs": [
        {
          "internalType": "address",
          "name": "a",
          "type": "address"
        },
        {
          "internalType": "string",
          "name": "password",
          "type": "string"
        }
      ],
      "name": "Login",
      "outputs": [],
      "stateMutability": "nonpayable",
      "type": "function"
    },
    {
      "inputs": [
        {
          "internalType": "address",
          "name": "a",
          "type": "address"
        },
        {
          "internalType": "string",
          "name": "SetPassword",
          "type": "string"
        }
      ],
      "name": "SignUp",
      "outputs": [],
      "stateMutability": "nonpayable",
      "type": "function"
    },
    {
      "inputs": [
        {
          "internalType": "address",
          "name": "a",
          "type": "address"
        },
        {
          "internalType": "address",
          "name": "_to",
          "type": "address"
        },
        {
          "internalType": "uint256",
          "name": "_value",
          "type": "uint256"
        }
      ],
      "name": "SubmitTransaction",
      "outputs": [],
      "stateMutability": "nonpayable",
      "type": "function"
    },
    {
      "inputs": [
        {
          "internalType": "address",
          "name": "a",
          "type": "address"
        }
      ],
      "name": "getBalance",
      "outputs": [
        {
          "internalType": "uint256",
          "name": "",
          "type": "uint256"
        }
      ],
      "stateMutability": "view",
      "type": "function"
    },
    {
      "inputs": [
        {
          "internalType": "address",
          "name": "a",
          "type": "address"
        }
      ],
      "name": "getTransaction",
      "outputs": [
        {
          "components": [
            {
              "internalType": "address",
              "name": "to",
              "type": "address"
            },
            {
              "internalType": "uint256",
              "name": "value",
              "type": "uint256"
            },
            {
              "internalType": "bool",
              "name": "executed",
              "type": "bool"
            },
            {
              "internalType": "uint256",
              "name": "noOfvotes",
              "type": "uint256"
            }
          ],
          "internalType": "struct Parental.Transaction[]",
          "name": "",
          "type": "tuple[]"
        }
      ],
      "stateMutability": "view",
      "type": "function"
    },
    {
      "inputs": [
        {
          "internalType": "address",
          "name": "a",
          "type": "address"
        }
      ],
      "name": "getTransactionCount",
      "outputs": [
        {
          "internalType": "uint256",
          "name": "",
          "type": "uint256"
        }
      ],
      "stateMutability": "view",
      "type": "function"
    },
    {
      "inputs": [
        {
          "internalType": "address",
          "name": "a",
          "type": "address"
        }
      ],
      "name": "getowners",
      "outputs": [
        {
          "internalType": "address[2]",
          "name": "",
          "type": "address[2]"
        }
      ],
      "stateMutability": "view",
      "type": "function"
    },
    {
      "inputs": [
        {
          "internalType": "address",
          "name": "",
          "type": "address"
        },
        {
          "internalType": "uint256",
          "name": "",
          "type": "uint256"
        },
        {
          "internalType": "address",
          "name": "",
          "type": "address"
        }
      ],
      "name": "isConfirmed",
      "outputs": [
        {
          "internalType": "bool",
          "name": "",
          "type": "bool"
        }
      ],
      "stateMutability": "view",
      "type": "function"
    },
    {
      "inputs": [
        {
          "internalType": "address",
          "name": "",
          "type": "address"
        },
        {
          "internalType": "address",
          "name": "",
          "type": "address"
        }
      ],
      "name": "isOwner",
      "outputs": [
        {
          "internalType": "bool",
          "name": "",
          "type": "bool"
        }
      ],
      "stateMutability": "view",
      "type": "function"
    },
    {
      "inputs": [
        {
          "internalType": "address",
          "name": "a",
          "type": "address"
        },
        {
          "internalType": "uint256",
          "name": "index",
          "type": "uint256"
        }
      ],
      "name": "removeTx",
      "outputs": [],
      "stateMutability": "nonpayable",
      "type": "function"
    },
    {
      "inputs": [
        {
          "internalType": "address",
          "name": "a",
          "type": "address"
        },
        {
          "internalType": "address",
          "name": "father",
          "type": "address"
        },
        {
          "internalType": "address",
          "name": "mother",
          "type": "address"
        },
        {
          "internalType": "uint256",
          "name": "vote",
          "type": "uint256"
        }
      ],
      "name": "setOwners",
      "outputs": [],
      "stateMutability": "nonpayable",
      "type": "function"
    },
    {
      "stateMutability": "payable",
      "type": "receive"
    }
  ],
  "bytecode": "0x608060405234801561001057600080fd5b50612e2b806100206000396000f3fe6080604052600436106100e15760003560e01c80637ddc02d41161007f578063a4b4e42b11610059578063a4b4e42b146102ca578063e0445354146102f3578063e6d66a5f14610330578063f8b2cb4f14610359576100e8565b80637ddc02d41461023b5780638abbd13d14610278578063985429c6146102a1576100e8565b80634adbf2ae116100bb5780634adbf2ae146101905780635445f318146101ac5780637372f9ac146101d55780637bb86379146101fe576100e8565b806323ca0cd2146100ed57806330b792a01461012a578063401e68d414610153576100e8565b366100e857005b600080fd5b3480156100f957600080fd5b50610114600480360381019061010f9190611f48565b610396565b6040516101219190612775565b60405180910390f35b34801561013657600080fd5b50610151600480360381019061014c91906120cb565b6103e1565b005b34801561015f57600080fd5b5061017a6004803603810190610175919061210b565b610832565b60405161018791906125da565b60405180910390f35b6101aa60048036038101906101a59190611f48565b61086e565b005b3480156101b857600080fd5b506101d360048036038101906101ce91906120cb565b610956565b005b3480156101e157600080fd5b506101fc60048036038101906101f791906120cb565b610d82565b005b34801561020a57600080fd5b5061022560048036038101906102209190611f48565b6112a2565b60405161023291906125b8565b60405180910390f35b34801561024757600080fd5b50610262600480360381019061025d9190611f75565b6113c4565b60405161026f91906125da565b60405180910390f35b34801561028457600080fd5b5061029f600480360381019061029a919061201c565b6113f3565b005b3480156102ad57600080fd5b506102c860048036038101906102c3919061206f565b6115c4565b005b3480156102d657600080fd5b506102f160048036038101906102ec919061206f565b611741565b005b3480156102ff57600080fd5b5061031a60048036038101906103159190611f48565b6118de565b604051610327919061259d565b60405180910390f35b34801561033c57600080fd5b5061035760048036038101906103529190611fb5565b61199e565b005b34801561036557600080fd5b50610380600480360381019061037b9190611f48565b611da0565b60405161038d9190612775565b60405180910390f35b60008060008373ffffffffffffffffffffffffffffffffffffffff1673ffffffffffffffffffffffffffffffffffffffff168152602001908152602001600020805490509050919050565b81600560008273ffffffffffffffffffffffffffffffffffffffff1673ffffffffffffffffffffffffffffffffffffffff16815260200190815260200160002060003373ffffffffffffffffffffffffffffffffffffffff1673ffffffffffffffffffffffffffffffffffffffff16815260200190815260200160002060009054906101000a900460ff166104ab576040517f08c379a00000000000000000000000000000000000000000000000000000000081526004016104a290612755565b60405180910390fd5b82826000808373ffffffffffffffffffffffffffffffffffffffff1673ffffffffffffffffffffffffffffffffffffffff168152602001908152602001600020805490508110610530576040517f08c379a000000000000000000000000000000000000000000000000000000000815260040161052790612615565b60405180910390fd5b84846000808373ffffffffffffffffffffffffffffffffffffffff1673ffffffffffffffffffffffffffffffffffffffff168152602001908152602001600020818154811061058257610581612b09565b5b906000526020600020906004020160020160009054906101000a900460ff16156105e1576040517f08c379a00000000000000000000000000000000000000000000000000000000081526004016105d890612675565b60405180910390fd5b8686600760008373ffffffffffffffffffffffffffffffffffffffff1673ffffffffffffffffffffffffffffffffffffffff168152602001908152602001600020600082815260200190815260200160002060003373ffffffffffffffffffffffffffffffffffffffff1673ffffffffffffffffffffffffffffffffffffffff16815260200190815260200160002060009054906101000a900460ff16156106be576040517f08c379a00000000000000000000000000000000000000000000000000000000081526004016106b590612735565b60405180910390fd5b60008060008b73ffffffffffffffffffffffffffffffffffffffff1673ffffffffffffffffffffffffffffffffffffffff16815260200190815260200160002089815481106107105761070f612b09565b5b90600052602060002090600402019050600181600301600082825461073591906128bc565b925050819055506001600760008c73ffffffffffffffffffffffffffffffffffffffff1673ffffffffffffffffffffffffffffffffffffffff16815260200190815260200160002060008b815260200190815260200160002060003373ffffffffffffffffffffffffffffffffffffffff1673ffffffffffffffffffffffffffffffffffffffff16815260200190815260200160002060006101000a81548160ff021916908315150217905550883373ffffffffffffffffffffffffffffffffffffffff167f6f315954c385fbab81f9695ad5677985ae06e1d323c5d9883f7502303a41f92260405160405180910390a350505050505050505050565b6007602052826000526040600020602052816000526040600020602052806000526040600020600092509250509054906101000a900460ff1681565b34600860008373ffffffffffffffffffffffffffffffffffffffff1673ffffffffffffffffffffffffffffffffffffffff16815260200190815260200160002060008282546108bd91906128bc565b925050819055503373ffffffffffffffffffffffffffffffffffffffff167f90890809c654f11d6e72a28fa60149770a0d11ec6c92319d6ceb2bb0a4ea1a1534600860008573ffffffffffffffffffffffffffffffffffffffff1673ffffffffffffffffffffffffffffffffffffffff1681526020019081526020016000205460405161094b929190612790565b60405180910390a250565b81600560008273ffffffffffffffffffffffffffffffffffffffff1673ffffffffffffffffffffffffffffffffffffffff16815260200190815260200160002060003373ffffffffffffffffffffffffffffffffffffffff1673ffffffffffffffffffffffffffffffffffffffff16815260200190815260200160002060009054906101000a900460ff16610a20576040517f08c379a0000000000000000000000000000000000000000000000000000000008152600401610a1790612755565b60405180910390fd5b82826000808373ffffffffffffffffffffffffffffffffffffffff1673ffffffffffffffffffffffffffffffffffffffff168152602001908152602001600020805490508110610aa5576040517f08c379a0000000000000000000000000000000000000000000000000000000008152600401610a9c90612615565b60405180910390fd5b84846000808373ffffffffffffffffffffffffffffffffffffffff1673ffffffffffffffffffffffffffffffffffffffff1681526020019081526020016000208181548110610af757610af6612b09565b5b906000526020600020906004020160020160009054906101000a900460ff1615610b56576040517f08c379a0000000000000000000000000000000000000000000000000000000008152600401610b4d90612675565b60405180910390fd5b60008060008973ffffffffffffffffffffffffffffffffffffffff1673ffffffffffffffffffffffffffffffffffffffff1681526020019081526020016000208781548110610ba857610ba7612b09565b5b90600052602060002090600402019050600660008973ffffffffffffffffffffffffffffffffffffffff1673ffffffffffffffffffffffffffffffffffffffff1681526020019081526020016000205481600301541015610c3e576040517f08c379a0000000000000000000000000000000000000000000000000000000008152600401610c35906126d5565b60405180910390fd5b60018160020160006101000a81548160ff02191690831515021790555060008160000160009054906101000a900473ffffffffffffffffffffffffffffffffffffffff1673ffffffffffffffffffffffffffffffffffffffff16614e208360010154604051610cac90612588565b600060405180830381858888f193505050503d8060008114610cea576040519150601f19603f3d011682016040523d82523d6000602084013e610cef565b606091505b5050905080610d33576040517f08c379a0000000000000000000000000000000000000000000000000000000008152600401610d2a90612715565b60405180910390fd5b873373ffffffffffffffffffffffffffffffffffffffff167f7b97296edc75a36a401f12e0613cb8b04d49b77d790dcf26a9b3a53c9ef24c9360405160405180910390a3505050505050505050565b81600560008273ffffffffffffffffffffffffffffffffffffffff1673ffffffffffffffffffffffffffffffffffffffff16815260200190815260200160002060003373ffffffffffffffffffffffffffffffffffffffff1673ffffffffffffffffffffffffffffffffffffffff16815260200190815260200160002060009054906101000a900460ff16610e4c576040517f08c379a0000000000000000000000000000000000000000000000000000000008152600401610e4390612755565b60405180910390fd5b82826000808373ffffffffffffffffffffffffffffffffffffffff1673ffffffffffffffffffffffffffffffffffffffff168152602001908152602001600020805490508110610ed1576040517f08c379a0000000000000000000000000000000000000000000000000000000008152600401610ec890612615565b60405180910390fd5b84846000808373ffffffffffffffffffffffffffffffffffffffff1673ffffffffffffffffffffffffffffffffffffffff1681526020019081526020016000208181548110610f2357610f22612b09565b5b906000526020600020906004020160020160009054906101000a900460ff1615610f82576040517f08c379a0000000000000000000000000000000000000000000000000000000008152600401610f7990612675565b60405180910390fd5b6000808873ffffffffffffffffffffffffffffffffffffffff1673ffffffffffffffffffffffffffffffffffffffff168152602001908152602001600020805490508610611005576040517f08c379a0000000000000000000000000000000000000000000000000000000008152600401610ffc90612635565b60405180910390fd5b60008690505b60016000808a73ffffffffffffffffffffffffffffffffffffffff1673ffffffffffffffffffffffffffffffffffffffff168152602001908152602001600020805490506110599190612912565b8110156111e6576000808973ffffffffffffffffffffffffffffffffffffffff1673ffffffffffffffffffffffffffffffffffffffff1681526020019081526020016000206001826110ab91906128bc565b815481106110bc576110bb612b09565b5b90600052602060002090600402016000808a73ffffffffffffffffffffffffffffffffffffffff1673ffffffffffffffffffffffffffffffffffffffff168152602001908152602001600020828154811061111a57611119612b09565b5b90600052602060002090600402016000820160009054906101000a900473ffffffffffffffffffffffffffffffffffffffff168160000160006101000a81548173ffffffffffffffffffffffffffffffffffffffff021916908373ffffffffffffffffffffffffffffffffffffffff160217905550600182015481600101556002820160009054906101000a900460ff168160020160006101000a81548160ff0219169083151502179055506003820154816003015590505080806111de90612a33565b91505061100b565b506000808873ffffffffffffffffffffffffffffffffffffffff1673ffffffffffffffffffffffffffffffffffffffff16815260200190815260200160002080548061123557611234612ada565b5b6001900381819060005260206000209060040201600080820160006101000a81549073ffffffffffffffffffffffffffffffffffffffff021916905560018201600090556002820160006101000a81549060ff021916905560038201600090555050905550505050505050565b60606000808373ffffffffffffffffffffffffffffffffffffffff1673ffffffffffffffffffffffffffffffffffffffff168152602001908152602001600020805480602002602001604051908101604052809291908181526020016000905b828210156113b957838290600052602060002090600402016040518060800160405290816000820160009054906101000a900473ffffffffffffffffffffffffffffffffffffffff1673ffffffffffffffffffffffffffffffffffffffff1673ffffffffffffffffffffffffffffffffffffffff168152602001600182015481526020016002820160009054906101000a900460ff1615151515815260200160038201548152505081526020019060010190611302565b505050509050919050565b60056020528160005260406000206020528060005260406000206000915091509054906101000a900460ff1681565b60008060008573ffffffffffffffffffffffffffffffffffffffff1673ffffffffffffffffffffffffffffffffffffffff1681526020019081526020016000208054905090506000808573ffffffffffffffffffffffffffffffffffffffff1673ffffffffffffffffffffffffffffffffffffffff16815260200190815260200160002060405180608001604052808573ffffffffffffffffffffffffffffffffffffffff1681526020018481526020016000151581526020016000815250908060018154018082558091505060019003906000526020600020906004020160009091909190915060008201518160000160006101000a81548173ffffffffffffffffffffffffffffffffffffffff021916908373ffffffffffffffffffffffffffffffffffffffff1602179055506020820151816001015560408201518160020160006101000a81548160ff0219169083151502179055506060820151816003015550508273ffffffffffffffffffffffffffffffffffffffff16813373ffffffffffffffffffffffffffffffffffffffff167f941bd0ada49d76f3ef7a5ec4d0f0aa4b60eabdf543214a83b699526fe0a97568856040516115b69190612775565b60405180910390a450505050565b8160011515600160008373ffffffffffffffffffffffffffffffffffffffff1673ffffffffffffffffffffffffffffffffffffffff16815260200190815260200160002060009054906101000a900460ff1615151415611659576040517f08c379a000000000000000000000000000000000000000000000000000000000815260040161165090612655565b60405180910390fd5b60018060008573ffffffffffffffffffffffffffffffffffffffff1673ffffffffffffffffffffffffffffffffffffffff16815260200190815260200160002060006101000a81548160ff02191690831515021790555081600260008573ffffffffffffffffffffffffffffffffffffffff1673ffffffffffffffffffffffffffffffffffffffff1681526020019081526020016000209080519060200190611703929190611de9565b507f344a6a83cccc69a3772eb48583a40999c35838df481ff16196244f8f35de3c7b600160405161173491906125da565b60405180910390a1505050565b8160011515600160008373ffffffffffffffffffffffffffffffffffffffff1673ffffffffffffffffffffffffffffffffffffffff16815260200190815260200160002060009054906101000a900460ff161515146117d5576040517f08c379a00000000000000000000000000000000000000000000000000000000081526004016117cc906126b5565b60405180910390fd5b600260008473ffffffffffffffffffffffffffffffffffffffff1673ffffffffffffffffffffffffffffffffffffffff1681526020019081526020016000206040516020016118249190612571565b604051602081830303815290604052805190602001208260405160200161184b919061255a565b60405160208183030381529060405280519060200120146118a1576040517f08c379a000000000000000000000000000000000000000000000000000000000815260040161189890612695565b60405180910390fd5b7f590dc88803dfdac1abf55b3e358e6b7a38e57fa1b784ddb5462e0500ae49cec460016040516118d191906125da565b60405180910390a1505050565b6118e6611e6f565b600460008373ffffffffffffffffffffffffffffffffffffffff1673ffffffffffffffffffffffffffffffffffffffff168152602001908152602001600020600280602002604051908101604052809291908260028015611992576020028201915b8160009054906101000a900473ffffffffffffffffffffffffffffffffffffffff1673ffffffffffffffffffffffffffffffffffffffff1681526020019060010190808311611948575b50505050509050919050565b8360011515600360008373ffffffffffffffffffffffffffffffffffffffff1673ffffffffffffffffffffffffffffffffffffffff16815260200190815260200160002060009054906101000a900460ff1615151415611a33576040517f08c379a0000000000000000000000000000000000000000000000000000000008152600401611a2a906125f5565b60405180910390fd5b6002821115611a77576040517f08c379a0000000000000000000000000000000000000000000000000000000008152600401611a6e906126f5565b60405180910390fd5b83600460008773ffffffffffffffffffffffffffffffffffffffff1673ffffffffffffffffffffffffffffffffffffffff168152602001908152602001600020600060028110611aca57611ac9612b09565b5b0160006101000a81548173ffffffffffffffffffffffffffffffffffffffff021916908373ffffffffffffffffffffffffffffffffffffffff16021790555082600460008773ffffffffffffffffffffffffffffffffffffffff1673ffffffffffffffffffffffffffffffffffffffff168152602001908152602001600020600160028110611b5c57611b5b612b09565b5b0160006101000a81548173ffffffffffffffffffffffffffffffffffffffff021916908373ffffffffffffffffffffffffffffffffffffffff16021790555081600660008773ffffffffffffffffffffffffffffffffffffffff1673ffffffffffffffffffffffffffffffffffffffff168152602001908152602001600020819055506001600360008773ffffffffffffffffffffffffffffffffffffffff1673ffffffffffffffffffffffffffffffffffffffff16815260200190815260200160002060006101000a81548160ff0219169083151502179055506001600560008773ffffffffffffffffffffffffffffffffffffffff1673ffffffffffffffffffffffffffffffffffffffff16815260200190815260200160002060008673ffffffffffffffffffffffffffffffffffffffff1673ffffffffffffffffffffffffffffffffffffffff16815260200190815260200160002060006101000a81548160ff0219169083151502179055506001600560008773ffffffffffffffffffffffffffffffffffffffff1673ffffffffffffffffffffffffffffffffffffffff16815260200190815260200160002060008573ffffffffffffffffffffffffffffffffffffffff1673ffffffffffffffffffffffffffffffffffffffff16815260200190815260200160002060006101000a81548160ff0219169083151502179055507fe34f8ff34666ed40a656c3d2ee9ca203734401945f12b3890f1ee7448e775e4d6001604051611d9191906125da565b60405180910390a15050505050565b6000600860008373ffffffffffffffffffffffffffffffffffffffff1673ffffffffffffffffffffffffffffffffffffffff168152602001908152602001600020549050919050565b828054611df5906129d0565b90600052602060002090601f016020900481019282611e175760008555611e5e565b82601f10611e3057805160ff1916838001178555611e5e565b82800160010185558215611e5e579182015b82811115611e5d578251825591602001919060010190611e42565b5b509050611e6b9190611e91565b5090565b6040518060400160405280600290602082028036833780820191505090505090565b5b80821115611eaa576000816000905550600101611e92565b5090565b6000611ec1611ebc846127de565b6127b9565b905082815260208101848484011115611edd57611edc612b6c565b5b611ee884828561298e565b509392505050565b600081359050611eff81612dc7565b92915050565b600082601f830112611f1a57611f19612b67565b5b8135611f2a848260208601611eae565b91505092915050565b600081359050611f4281612dde565b92915050565b600060208284031215611f5e57611f5d612b76565b5b6000611f6c84828501611ef0565b91505092915050565b60008060408385031215611f8c57611f8b612b76565b5b6000611f9a85828601611ef0565b9250506020611fab85828601611ef0565b9150509250929050565b60008060008060808587031215611fcf57611fce612b76565b5b6000611fdd87828801611ef0565b9450506020611fee87828801611ef0565b9350506040611fff87828801611ef0565b925050606061201087828801611f33565b91505092959194509250565b60008060006060848603121561203557612034612b76565b5b600061204386828701611ef0565b935050602061205486828701611ef0565b925050604061206586828701611f33565b9150509250925092565b6000806040838503121561208657612085612b76565b5b600061209485828601611ef0565b925050602083013567ffffffffffffffff8111156120b5576120b4612b71565b5b6120c185828601611f05565b9150509250929050565b600080604083850312156120e2576120e1612b76565b5b60006120f085828601611ef0565b925050602061210185828601611f33565b9150509250929050565b60008060006060848603121561212457612123612b76565b5b600061213286828701611ef0565b935050602061214386828701611f33565b925050604061215486828701611ef0565b9150509250925092565b600061216a838361218e565b60208301905092915050565b600061218283836124e7565b60808301905092915050565b61219781612946565b82525050565b6121a68161283e565b6121b08184612879565b92506121bb8261280f565b8060005b838110156121ec5781516121d3878261215e565b96506121de8361285f565b9250506001810190506121bf565b505050505050565b60006121ff82612849565b6122098185612884565b935061221483612819565b8060005b8381101561224557815161222c8882612176565b97506122378361286c565b925050600181019050612218565b5085935050505092915050565b61225b81612958565b82525050565b61226a81612958565b82525050565b600061227b82612854565b61228581856128b1565b935061229581856020860161299d565b80840191505092915050565b600081546122ae816129d0565b6122b881866128b1565b945060018216600081146122d357600181146122e457612317565b60ff19831686528186019350612317565b6122ed85612829565b60005b8381101561230f578154818901526001820191506020810190506122f0565b838801955050505b50505092915050565b600061232d6023836128a0565b915061233882612b8c565b604082019050919050565b6000612350601e836128a0565b915061235b82612bdb565b602082019050919050565b6000612373600d836128a0565b915061237e82612c04565b602082019050919050565b60006123966012836128a0565b91506123a182612c2d565b602082019050919050565b60006123b96023836128a0565b91506123c482612c56565b604082019050919050565b60006123dc6014836128a0565b91506123e782612ca5565b602082019050919050565b60006123ff600e836128a0565b915061240a82612cce565b602082019050919050565b60006124226010836128a0565b915061242d82612cf7565b602082019050919050565b6000612445601b836128a0565b915061245082612d20565b602082019050919050565b60006124686012836128a0565b915061247382612d49565b602082019050919050565b600061248b600083612895565b915061249682612d72565b600082019050919050565b60006124ae6020836128a0565b91506124b982612d75565b602082019050919050565b60006124d16015836128a0565b91506124dc82612d9e565b602082019050919050565b6080820160008201516124fd600085018261218e565b506020820151612510602085018261253c565b5060408201516125236040850182612252565b506060820151612536606085018261253c565b50505050565b61254581612984565b82525050565b61255481612984565b82525050565b60006125668284612270565b915081905092915050565b600061257d82846122a1565b915081905092915050565b60006125938261247e565b9150819050919050565b60006040820190506125b2600083018461219d565b92915050565b600060208201905081810360008301526125d281846121f4565b905092915050565b60006020820190506125ef6000830184612261565b92915050565b6000602082019050818103600083015261260e81612320565b9050919050565b6000602082019050818103600083015261262e81612343565b9050919050565b6000602082019050818103600083015261264e81612366565b9050919050565b6000602082019050818103600083015261266e81612389565b9050919050565b6000602082019050818103600083015261268e816123ac565b9050919050565b600060208201905081810360008301526126ae816123cf565b9050919050565b600060208201905081810360008301526126ce816123f2565b9050919050565b600060208201905081810360008301526126ee81612415565b9050919050565b6000602082019050818103600083015261270e81612438565b9050919050565b6000602082019050818103600083015261272e8161245b565b9050919050565b6000602082019050818103600083015261274e816124a1565b9050919050565b6000602082019050818103600083015261276e816124c4565b9050919050565b600060208201905061278a600083018461254b565b92915050565b60006040820190506127a5600083018561254b565b6127b2602083018461254b565b9392505050565b60006127c36127d4565b90506127cf8282612a02565b919050565b6000604051905090565b600067ffffffffffffffff8211156127f9576127f8612b38565b5b61280282612b7b565b9050602081019050919050565b6000819050919050565b6000819050602082019050919050565b60008190508160005260206000209050919050565b600060029050919050565b600081519050919050565b600081519050919050565b6000602082019050919050565b6000602082019050919050565b600081905092915050565b600082825260208201905092915050565b600081905092915050565b600082825260208201905092915050565b600081905092915050565b60006128c782612984565b91506128d283612984565b9250827fffffffffffffffffffffffffffffffffffffffffffffffffffffffffffffffff0382111561290757612906612a7c565b5b828201905092915050565b600061291d82612984565b915061292883612984565b92508282101561293b5761293a612a7c565b5b828203905092915050565b600061295182612964565b9050919050565b60008115159050919050565b600073ffffffffffffffffffffffffffffffffffffffff82169050919050565b6000819050919050565b82818337600083830152505050565b60005b838110156129bb5780820151818401526020810190506129a0565b838111156129ca576000848401525b50505050565b600060028204905060018216806129e857607f821691505b602082108114156129fc576129fb612aab565b5b50919050565b612a0b82612b7b565b810181811067ffffffffffffffff82111715612a2a57612a29612b38565b5b80604052505050565b6000612a3e82612984565b91507fffffffffffffffffffffffffffffffffffffffffffffffffffffffffffffffff821415612a7157612a70612a7c565b5b600182019050919050565b7f4e487b7100000000000000000000000000000000000000000000000000000000600052601160045260246000fd5b7f4e487b7100000000000000000000000000000000000000000000000000000000600052602260045260246000fd5b7f4e487b7100000000000000000000000000000000000000000000000000000000600052603160045260246000fd5b7f4e487b7100000000000000000000000000000000000000000000000000000000600052603260045260246000fd5b7f4e487b7100000000000000000000000000000000000000000000000000000000600052604160045260246000fd5b600080fd5b600080fd5b600080fd5b600080fd5b6000601f19601f8301169050919050565b7f4f776e65727320616c72656164792065786973747320666f722074686973207560008201527f7365720000000000000000000000000000000000000000000000000000000000602082015250565b7f54686973205472616e73616374696f6e20446f65736e27742065786973740000600082015250565b7f747820646f6e7420657869737400000000000000000000000000000000000000600082015250565b7f5573657220616c72656164792065786973740000000000000000000000000000600082015250565b7f54686973207472616e736163746f6e20697320616c726561647920657865637560008201527f7465640000000000000000000000000000000000000000000000000000000000602082015250565b7f70617373776f7264206e6f7420636f7272656374000000000000000000000000600082015250565b7f55736572206e6f74206578697374000000000000000000000000000000000000600082015250565b7f63616e6e6f742045786563757465212100000000000000000000000000000000600082015250565b7f6d6178696d756d206c696d6974206f6620766f74657320697320320000000000600082015250565b7f5472616e73616374696f6e206661696c65720000000000000000000000000000600082015250565b50565b7f7472616e73616374696f6e20697320616c726561647920636f6e6669726d6564600082015250565b7f596f7520646f6e27742068617665206163657373730000000000000000000000600082015250565b612dd081612946565b8114612ddb57600080fd5b50565b612de781612984565b8114612df257600080fd5b5056fea26469706673582212202b6b19a5dc08c41b08441847b5d45dad2c4eb96004ec912968e209598b9a269964736f6c63430008060033",
  "linkReferences": {},
  "deployedLinkReferences": {}
}