{
  "_format": "hh-sol-artifact-1",
  "contractName": "Parental",
  "sourceName": "contracts/Parental.sol",
  "abi": [
    {
      "inputs": [
        {
          "internalType": "address",
          "name": "father",
          "type": "address"
        },
        {
          "internalType": "address",
          "name": "mother",
          "type": "address"
        }
      ],
      "stateMutability": "nonpayable",
      "type": "constructor"
    },
    {
      "anonymous": false,
      "inputs": [
        {
          "indexed": true,
          "internalType": "address",
          "name": "owner",
          "type": "address"
        },
        {
          "indexed": true,
          "internalType": "uint256",
          "name": "txIndex",
          "type": "uint256"
        }
      ],
      "name": "ConfirmTrans",
      "type": "event"
    },
    {
      "anonymous": false,
      "inputs": [
        {
          "indexed": true,
          "internalType": "address",
          "name": "sender",
          "type": "address"
        },
        {
          "indexed": false,
          "internalType": "uint256",
          "name": "amount",
          "type": "uint256"
        }
      ],
      "name": "Deposit",
      "type": "event"
    },
    {
      "anonymous": false,
      "inputs": [
        {
          "indexed": true,
          "internalType": "address",
          "name": "owner",
          "type": "address"
        },
        {
          "indexed": true,
          "internalType": "uint256",
          "name": "txIndex",
          "type": "uint256"
        }
      ],
      "name": "ExecuteTrans",
      "type": "event"
    },
    {
      "anonymous": false,
      "inputs": [
        {
          "indexed": true,
          "internalType": "address",
          "name": "owner",
          "type": "address"
        },
        {
          "indexed": true,
          "internalType": "uint256",
          "name": "txIndex",
          "type": "uint256"
        }
      ],
      "name": "RemoveTrans",
      "type": "event"
    },
    {
      "anonymous": false,
      "inputs": [
        {
          "indexed": true,
          "internalType": "address",
          "name": "owner",
          "type": "address"
        },
        {
          "indexed": true,
          "internalType": "uint256",
          "name": "txIndex",
          "type": "uint256"
        }
      ],
      "name": "RevokeTrans",
      "type": "event"
    },
    {
      "anonymous": false,
      "inputs": [
        {
          "indexed": true,
          "internalType": "address",
          "name": "owner",
          "type": "address"
        },
        {
          "indexed": true,
          "internalType": "uint256",
          "name": "txIndex",
          "type": "uint256"
        },
        {
          "indexed": true,
          "internalType": "address",
          "name": "to",
          "type": "address"
        },
        {
          "indexed": false,
          "internalType": "uint256",
          "name": "value",
          "type": "uint256"
        }
      ],
      "name": "SubmitTrans",
      "type": "event"
    },
    {
      "inputs": [
        {
          "internalType": "uint256",
          "name": "_txIndex",
          "type": "uint256"
        }
      ],
      "name": "ConfirmTransactions",
      "outputs": [],
      "stateMutability": "nonpayable",
      "type": "function"
    },
    {
      "inputs": [],
      "name": "DepositEth",
      "outputs": [],
      "stateMutability": "payable",
      "type": "function"
    },
    {
      "inputs": [
        {
          "internalType": "uint256",
          "name": "_txIndex",
          "type": "uint256"
        }
      ],
      "name": "ExecuteTransaction",
      "outputs": [],
      "stateMutability": "nonpayable",
      "type": "function"
    },
    {
      "inputs": [
        {
          "internalType": "address",
          "name": "_to",
          "type": "address"
        },
        {
          "internalType": "uint256",
          "name": "_value",
          "type": "uint256"
        },
        {
          "internalType": "string",
          "name": "msg1",
          "type": "string"
        }
      ],
      "name": "SubmitTransaction",
      "outputs": [],
      "stateMutability": "nonpayable",
      "type": "function"
    },
    {
      "inputs": [
        {
          "internalType": "address",
          "name": "user",
          "type": "address"
        }
      ],
      "name": "addUser",
      "outputs": [],
      "stateMutability": "nonpayable",
      "type": "function"
    },
    {
      "inputs": [],
      "name": "deleteFunds",
      "outputs": [],
      "stateMutability": "nonpayable",
      "type": "function"
    },
    {
      "inputs": [],
      "name": "getBalance",
      "outputs": [
        {
          "internalType": "uint256",
          "name": "",
          "type": "uint256"
        }
      ],
      "stateMutability": "view",
      "type": "function"
    },
    {
      "inputs": [],
      "name": "getOwners",
      "outputs": [
        {
          "internalType": "address[2]",
          "name": "",
          "type": "address[2]"
        }
      ],
      "stateMutability": "view",
      "type": "function"
    },
    {
      "inputs": [],
      "name": "getTransaction",
      "outputs": [
        {
          "components": [
            {
              "internalType": "address",
              "name": "from",
              "type": "address"
            },
            {
              "internalType": "address",
              "name": "to",
              "type": "address"
            },
            {
              "internalType": "uint256",
              "name": "value",
              "type": "uint256"
            },
            {
              "internalType": "bool",
              "name": "executed",
              "type": "bool"
            },
            {
              "internalType": "uint256",
              "name": "noOfvotes",
              "type": "uint256"
            },
            {
              "internalType": "string",
              "name": "message",
              "type": "string"
            }
          ],
          "internalType": "struct Parental.Transaction[]",
          "name": "",
          "type": "tuple[]"
        }
      ],
      "stateMutability": "view",
      "type": "function"
    },
    {
      "inputs": [],
      "name": "getTransactionCount",
      "outputs": [
        {
          "internalType": "uint256",
          "name": "",
          "type": "uint256"
        }
      ],
      "stateMutability": "view",
      "type": "function"
    },
    {
      "inputs": [],
      "name": "getUsers",
      "outputs": [
        {
          "internalType": "address[]",
          "name": "",
          "type": "address[]"
        }
      ],
      "stateMutability": "view",
      "type": "function"
    },
    {
      "inputs": [
        {
          "internalType": "uint256",
          "name": "",
          "type": "uint256"
        },
        {
          "internalType": "address",
          "name": "",
          "type": "address"
        }
      ],
      "name": "isConfirmed",
      "outputs": [
        {
          "internalType": "bool",
          "name": "",
          "type": "bool"
        }
      ],
      "stateMutability": "view",
      "type": "function"
    },
    {
      "inputs": [
        {
          "internalType": "uint256",
          "name": "index",
          "type": "uint256"
        }
      ],
      "name": "removeTx",
      "outputs": [],
      "stateMutability": "nonpayable",
      "type": "function"
    },
    {
      "inputs": [
        {
          "internalType": "uint256",
          "name": "",
          "type": "uint256"
        }
      ],
      "name": "transactions",
      "outputs": [
        {
          "internalType": "address",
          "name": "from",
          "type": "address"
        },
        {
          "internalType": "address",
          "name": "to",
          "type": "address"
        },
        {
          "internalType": "uint256",
          "name": "value",
          "type": "uint256"
        },
        {
          "internalType": "bool",
          "name": "executed",
          "type": "bool"
        },
        {
          "internalType": "uint256",
          "name": "noOfvotes",
          "type": "uint256"
        },
        {
          "internalType": "string",
          "name": "message",
          "type": "string"
        }
      ],
      "stateMutability": "view",
      "type": "function"
    },
    {
      "inputs": [],
      "name": "votes",
      "outputs": [
        {
          "internalType": "uint256",
          "name": "",
          "type": "uint256"
        }
      ],
      "stateMutability": "view",
      "type": "function"
    },
    {
      "stateMutability": "payable",
      "type": "receive"
    }
  ],
  "bytecode": "0x60806040523480156200001157600080fd5b5060405162002ef938038062002ef983398181016040528101906200003791906200027b565b81600080600281106200004f576200004e620002f6565b5b0160006101000a81548173ffffffffffffffffffffffffffffffffffffffff021916908373ffffffffffffffffffffffffffffffffffffffff160217905550806000600160028110620000a757620000a6620002f6565b5b0160006101000a81548173ffffffffffffffffffffffffffffffffffffffff021916908373ffffffffffffffffffffffffffffffffffffffff1602179055506002829080600181540180825580915050600190039060005260206000200160009091909190916101000a81548173ffffffffffffffffffffffffffffffffffffffff021916908373ffffffffffffffffffffffffffffffffffffffff1602179055506002819080600181540180825580915050600190039060005260206000200160009091909190916101000a81548173ffffffffffffffffffffffffffffffffffffffff021916908373ffffffffffffffffffffffffffffffffffffffff1602179055506001600360008473ffffffffffffffffffffffffffffffffffffffff1673ffffffffffffffffffffffffffffffffffffffff16815260200190815260200160002060006101000a81548160ff0219169083151502179055506001600360008373ffffffffffffffffffffffffffffffffffffffff1673ffffffffffffffffffffffffffffffffffffffff16815260200190815260200160002060006101000a81548160ff021916908315150217905550505062000344565b60008151905062000275816200032a565b92915050565b6000806040838503121562000295576200029462000325565b5b6000620002a58582860162000264565b9250506020620002b88582860162000264565b9150509250929050565b6000620002cf82620002d6565b9050919050565b600073ffffffffffffffffffffffffffffffffffffffff82169050919050565b7f4e487b7100000000000000000000000000000000000000000000000000000000600052603260045260246000fd5b600080fd5b6200033581620002c2565b81146200034157600080fd5b50565b612ba580620003546000396000f3fe6080604052600436106100eb5760003560e01c80635d845dcb1161008a578063ae30dc3f11610059578063ae30dc3f146102c0578063b7fa9c6e146102e9578063e168c3ec14610312578063eb841c851461033d576100f2565b80635d845dcb146101ed57806380f59a65146102165780639ace38c214610253578063a0e67e2b14610295576100f2565b8063421b2d8b116100c6578063421b2d8b14610178578063497347fa146101a157806359705f81146101b85780635b37930b146101e3576100f2565b8062ce8e3e146100f757806312065fe0146101225780632e7700f01461014d576100f2565b366100f257005b600080fd5b34801561010357600080fd5b5061010c610366565b60405161011991906123a1565b60405180910390f35b34801561012e57600080fd5b506101376103f4565b6040516101449190612540565b60405180910390f35b34801561015957600080fd5b506101626103fc565b60405161016f9190612540565b60405180910390f35b34801561018457600080fd5b5061019f600480360381019061019a9190611dd4565b610409565b005b3480156101ad57600080fd5b506101b66106d3565b005b3480156101c457600080fd5b506101cd610830565b6040516101da91906123c3565b60405180910390f35b6101eb6109fc565b005b3480156101f957600080fd5b50610214600480360381019061020f9190611e70565b610a4c565b005b34801561022257600080fd5b5061023d60048036038101906102389190611e9d565b610df3565b60405161024a91906123e5565b60405180910390f35b34801561025f57600080fd5b5061027a60048036038101906102759190611e70565b610e22565b60405161028c9695949392919061231e565b60405180910390f35b3480156102a157600080fd5b506102aa610f43565b6040516102b79190612386565b60405180910390f35b3480156102cc57600080fd5b506102e760048036038101906102e29190611e70565b610fc4565b005b3480156102f557600080fd5b50610310600480360381019061030b9190611e70565b61133e565b005b34801561031e57600080fd5b50610327611937565b6040516103349190612540565b60405180910390f35b34801561034957600080fd5b50610364600480360381019061035f9190611e01565b61193d565b005b606060028054806020026020016040519081016040528092919081815260200182805480156103ea57602002820191906000526020600020905b8160009054906101000a900473ffffffffffffffffffffffffffffffffffffffff1673ffffffffffffffffffffffffffffffffffffffff16815260200190600101908083116103a0575b5050505050905090565b600047905090565b6000600680549050905090565b6000806002811061041d5761041c6128d5565b5b0160009054906101000a900473ffffffffffffffffffffffffffffffffffffffff1673ffffffffffffffffffffffffffffffffffffffff163373ffffffffffffffffffffffffffffffffffffffff1614806104d957506000600160028110610488576104876128d5565b5b0160009054906101000a900473ffffffffffffffffffffffffffffffffffffffff1673ffffffffffffffffffffffffffffffffffffffff163373ffffffffffffffffffffffffffffffffffffffff16145b610518576040517f08c379a000000000000000000000000000000000000000000000000000000000815260040161050f90612520565b60405180910390fd5b600073ffffffffffffffffffffffffffffffffffffffff168173ffffffffffffffffffffffffffffffffffffffff161415610588576040517f08c379a000000000000000000000000000000000000000000000000000000000815260040161057f90612400565b60405180910390fd5b600360008273ffffffffffffffffffffffffffffffffffffffff1673ffffffffffffffffffffffffffffffffffffffff16815260200190815260200160002060009054906101000a900460ff1615610615576040517f08c379a000000000000000000000000000000000000000000000000000000000815260040161060c906124a0565b60405180910390fd5b6001600360008373ffffffffffffffffffffffffffffffffffffffff1673ffffffffffffffffffffffffffffffffffffffff16815260200190815260200160002060006101000a81548160ff0219169083151502179055506002819080600181540180825580915050600190039060005260206000200160009091909190916101000a81548173ffffffffffffffffffffffffffffffffffffffff021916908373ffffffffffffffffffffffffffffffffffffffff16021790555050565b600080600281106106e7576106e66128d5565b5b0160009054906101000a900473ffffffffffffffffffffffffffffffffffffffff1673ffffffffffffffffffffffffffffffffffffffff163373ffffffffffffffffffffffffffffffffffffffff1614806107a357506000600160028110610752576107516128d5565b5b0160009054906101000a900473ffffffffffffffffffffffffffffffffffffffff1673ffffffffffffffffffffffffffffffffffffffff163373ffffffffffffffffffffffffffffffffffffffff16145b6107e2576040517f08c379a00000000000000000000000000000000000000000000000000000000081526004016107d990612520565b60405180910390fd5b600080600281106107f6576107f56128d5565b5b0160009054906101000a900473ffffffffffffffffffffffffffffffffffffffff1673ffffffffffffffffffffffffffffffffffffffff16ff5b60606006805480602002602001604051908101604052809291908181526020016000905b828210156109f357838290600052602060002090600602016040518060c00160405290816000820160009054906101000a900473ffffffffffffffffffffffffffffffffffffffff1673ffffffffffffffffffffffffffffffffffffffff1673ffffffffffffffffffffffffffffffffffffffff1681526020016001820160009054906101000a900473ffffffffffffffffffffffffffffffffffffffff1673ffffffffffffffffffffffffffffffffffffffff1673ffffffffffffffffffffffffffffffffffffffff168152602001600282015481526020016003820160009054906101000a900460ff16151515158152602001600482015481526020016005820180546109629061279c565b80601f016020809104026020016040519081016040528092919081815260200182805461098e9061279c565b80156109db5780601f106109b0576101008083540402835291602001916109db565b820191906000526020600020905b8154815290600101906020018083116109be57829003601f168201915b50505050508152505081526020019060010190610854565b50505050905090565b3373ffffffffffffffffffffffffffffffffffffffff167fe1fffcc4923d04b559f4d29a8bfc6cda04eb5b0d3c460751c2402c5c5cc9109c34604051610a429190612540565b60405180910390a2565b60008060028110610a6057610a5f6128d5565b5b0160009054906101000a900473ffffffffffffffffffffffffffffffffffffffff1673ffffffffffffffffffffffffffffffffffffffff163373ffffffffffffffffffffffffffffffffffffffff161480610b1c57506000600160028110610acb57610aca6128d5565b5b0160009054906101000a900473ffffffffffffffffffffffffffffffffffffffff1673ffffffffffffffffffffffffffffffffffffffff163373ffffffffffffffffffffffffffffffffffffffff16145b610b5b576040517f08c379a0000000000000000000000000000000000000000000000000000000008152600401610b5290612520565b60405180910390fd5b806006805490508110610ba3576040517f08c379a0000000000000000000000000000000000000000000000000000000008152600401610b9a90612440565b60405180910390fd5b8160068181548110610bb857610bb76128d5565b5b906000526020600020906006020160030160009054906101000a900460ff1615610c17576040517f08c379a0000000000000000000000000000000000000000000000000000000008152600401610c0e90612480565b60405180910390fd5b826005600082815260200190815260200160002060003373ffffffffffffffffffffffffffffffffffffffff1673ffffffffffffffffffffffffffffffffffffffff16815260200190815260200160002060009054906101000a900460ff1615610cb6576040517f08c379a0000000000000000000000000000000000000000000000000000000008152600401610cad90612500565b60405180910390fd5b600060068581548110610ccc57610ccb6128d5565b5b906000526020600020906006020190504781600201541115610d23576040517f08c379a0000000000000000000000000000000000000000000000000000000008152600401610d1a90612420565b60405180910390fd5b6001816004016000828254610d389190612688565b9250508190555060016005600087815260200190815260200160002060003373ffffffffffffffffffffffffffffffffffffffff1673ffffffffffffffffffffffffffffffffffffffff16815260200190815260200160002060006101000a81548160ff021916908315150217905550843373ffffffffffffffffffffffffffffffffffffffff167f6f315954c385fbab81f9695ad5677985ae06e1d323c5d9883f7502303a41f92260405160405180910390a35050505050565b60056020528160005260406000206020528060005260406000206000915091509054906101000a900460ff1681565b60068181548110610e3257600080fd5b90600052602060002090600602016000915090508060000160009054906101000a900473ffffffffffffffffffffffffffffffffffffffff16908060010160009054906101000a900473ffffffffffffffffffffffffffffffffffffffff16908060020154908060030160009054906101000a900460ff1690806004015490806005018054610ec09061279c565b80601f0160208091040260200160405190810160405280929190818152602001828054610eec9061279c565b8015610f395780601f10610f0e57610100808354040283529160200191610f39565b820191906000526020600020905b815481529060010190602001808311610f1c57829003601f168201915b5050505050905086565b610f4b611ba8565b6000600280602002604051908101604052809291908260028015610fba576020028201915b8160009054906101000a900473ffffffffffffffffffffffffffffffffffffffff1673ffffffffffffffffffffffffffffffffffffffff1681526020019060010190808311610f70575b5050505050905090565b60008060028110610fd857610fd76128d5565b5b0160009054906101000a900473ffffffffffffffffffffffffffffffffffffffff1673ffffffffffffffffffffffffffffffffffffffff163373ffffffffffffffffffffffffffffffffffffffff16148061109457506000600160028110611043576110426128d5565b5b0160009054906101000a900473ffffffffffffffffffffffffffffffffffffffff1673ffffffffffffffffffffffffffffffffffffffff163373ffffffffffffffffffffffffffffffffffffffff16145b6110d3576040517f08c379a00000000000000000000000000000000000000000000000000000000081526004016110ca90612520565b60405180910390fd5b80600680549050811061111b576040517f08c379a000000000000000000000000000000000000000000000000000000000815260040161111290612440565b60405180910390fd5b81600681815481106111305761112f6128d5565b5b906000526020600020906006020160030160009054906101000a900460ff161561118f576040517f08c379a000000000000000000000000000000000000000000000000000000000815260040161118690612480565b60405180910390fd5b6000600684815481106111a5576111a46128d5565b5b90600052602060002090600602019050600454816004015410156111fe576040517f08c379a00000000000000000000000000000000000000000000000000000000081526004016111f5906124c0565b60405180910390fd5b60018160030160006101000a81548160ff02191690831515021790555060008160010160009054906101000a900473ffffffffffffffffffffffffffffffffffffffff1673ffffffffffffffffffffffffffffffffffffffff16614e20836002015460405161126c90612309565b600060405180830381858888f193505050503d80600081146112aa576040519150601f19603f3d011682016040523d82523d6000602084013e6112af565b606091505b50509050806112f3576040517f08c379a00000000000000000000000000000000000000000000000000000000081526004016112ea906124e0565b60405180910390fd5b843373ffffffffffffffffffffffffffffffffffffffff167f7b97296edc75a36a401f12e0613cb8b04d49b77d790dcf26a9b3a53c9ef24c9360405160405180910390a35050505050565b60008060028110611352576113516128d5565b5b0160009054906101000a900473ffffffffffffffffffffffffffffffffffffffff1673ffffffffffffffffffffffffffffffffffffffff163373ffffffffffffffffffffffffffffffffffffffff16148061140e575060006001600281106113bd576113bc6128d5565b5b0160009054906101000a900473ffffffffffffffffffffffffffffffffffffffff1673ffffffffffffffffffffffffffffffffffffffff163373ffffffffffffffffffffffffffffffffffffffff16145b61144d576040517f08c379a000000000000000000000000000000000000000000000000000000000815260040161144490612520565b60405180910390fd5b806006805490508110611495576040517f08c379a000000000000000000000000000000000000000000000000000000000815260040161148c90612440565b60405180910390fd5b81600681815481106114aa576114a96128d5565b5b906000526020600020906006020160030160009054906101000a900460ff1615611509576040517f08c379a000000000000000000000000000000000000000000000000000000000815260040161150090612480565b60405180910390fd5b6006805490508310611550576040517f08c379a000000000000000000000000000000000000000000000000000000000815260040161154790612460565b60405180910390fd5b60008390505b600160068054905061156891906126de565b81101561170457600660018261157e9190612688565b8154811061158f5761158e6128d5565b5b9060005260206000209060060201600682815481106115b1576115b06128d5565b5b90600052602060002090600602016000820160009054906101000a900473ffffffffffffffffffffffffffffffffffffffff168160000160006101000a81548173ffffffffffffffffffffffffffffffffffffffff021916908373ffffffffffffffffffffffffffffffffffffffff1602179055506001820160009054906101000a900473ffffffffffffffffffffffffffffffffffffffff168160010160006101000a81548173ffffffffffffffffffffffffffffffffffffffff021916908373ffffffffffffffffffffffffffffffffffffffff160217905550600282015481600201556003820160009054906101000a900460ff168160030160006101000a81548160ff0219169083151502179055506004820154816004015560058201816005019080546116e29061279c565b6116ed929190611bca565b5090505080806116fc906127ff565b915050611556565b506006805480611717576117166128a6565b5b6001900381819060005260206000209060060201600080820160006101000a81549073ffffffffffffffffffffffffffffffffffffffff02191690556001820160006101000a81549073ffffffffffffffffffffffffffffffffffffffff021916905560028201600090556003820160006101000a81549060ff021916905560048201600090556005820160006117ae9190611c57565b505090556000600560008581526020019081526020016000206000806000600281106117dd576117dc6128d5565b5b0160009054906101000a900473ffffffffffffffffffffffffffffffffffffffff1673ffffffffffffffffffffffffffffffffffffffff1673ffffffffffffffffffffffffffffffffffffffff16815260200190815260200160002060006101000a81548160ff02191690831515021790555060006005600085815260200190815260200160002060008060016002811061187b5761187a6128d5565b5b0160009054906101000a900473ffffffffffffffffffffffffffffffffffffffff1673ffffffffffffffffffffffffffffffffffffffff1673ffffffffffffffffffffffffffffffffffffffff16815260200190815260200160002060006101000a81548160ff021916908315150217905550823373ffffffffffffffffffffffffffffffffffffffff167ff7d3316de78d34a2b6a24ed3da8db473c3349d4ef5f01d32ef556014d97fd89660405160405180910390a3505050565b60045481565b600360003373ffffffffffffffffffffffffffffffffffffffff1673ffffffffffffffffffffffffffffffffffffffff16815260200190815260200160002060009054906101000a900460ff166119c9576040517f08c379a00000000000000000000000000000000000000000000000000000000081526004016119c090612520565b60405180910390fd5b6000600680549050905060066040518060c001604052803373ffffffffffffffffffffffffffffffffffffffff1681526020018673ffffffffffffffffffffffffffffffffffffffff1681526020018581526020016000151581526020016000815260200184815250908060018154018082558091505060019003906000526020600020906006020160009091909190915060008201518160000160006101000a81548173ffffffffffffffffffffffffffffffffffffffff021916908373ffffffffffffffffffffffffffffffffffffffff16021790555060208201518160010160006101000a81548173ffffffffffffffffffffffffffffffffffffffff021916908373ffffffffffffffffffffffffffffffffffffffff1602179055506040820151816002015560608201518160030160006101000a81548160ff0219169083151502179055506080820151816004015560a0820151816005019080519060200190611b39929190611c97565b5050508373ffffffffffffffffffffffffffffffffffffffff16813373ffffffffffffffffffffffffffffffffffffffff167f941bd0ada49d76f3ef7a5ec4d0f0aa4b60eabdf543214a83b699526fe0a9756886604051611b9a9190612540565b60405180910390a450505050565b6040518060400160405280600290602082028036833780820191505090505090565b828054611bd69061279c565b90600052602060002090601f016020900481019282611bf85760008555611c46565b82601f10611c095780548555611c46565b82800160010185558215611c4657600052602060002091601f016020900482015b82811115611c45578254825591600101919060010190611c2a565b5b509050611c539190611d1d565b5090565b508054611c639061279c565b6000825580601f10611c755750611c94565b601f016020900490600052602060002090810190611c939190611d1d565b5b50565b828054611ca39061279c565b90600052602060002090601f016020900481019282611cc55760008555611d0c565b82601f10611cde57805160ff1916838001178555611d0c565b82800160010185558215611d0c579182015b82811115611d0b578251825591602001919060010190611cf0565b5b509050611d199190611d1d565b5090565b5b80821115611d36576000816000905550600101611d1e565b5090565b6000611d4d611d4884612580565b61255b565b905082815260208101848484011115611d6957611d68612938565b5b611d7484828561275a565b509392505050565b600081359050611d8b81612b41565b92915050565b600082601f830112611da657611da5612933565b5b8135611db6848260208601611d3a565b91505092915050565b600081359050611dce81612b58565b92915050565b600060208284031215611dea57611de9612942565b5b6000611df884828501611d7c565b91505092915050565b600080600060608486031215611e1a57611e19612942565b5b6000611e2886828701611d7c565b9350506020611e3986828701611dbf565b925050604084013567ffffffffffffffff811115611e5a57611e5961293d565b5b611e6686828701611d91565b9150509250925092565b600060208284031215611e8657611e85612942565b5b6000611e9484828501611dbf565b91505092915050565b60008060408385031215611eb457611eb3612942565b5b6000611ec285828601611dbf565b9250506020611ed385828601611d7c565b9150509250929050565b6000611ee98383611f09565b60208301905092915050565b6000611f018383612262565b905092915050565b611f1281612712565b82525050565b611f2181612712565b82525050565b611f30816125db565b611f3a818461262e565b9250611f45826125b1565b8060005b83811015611f76578151611f5d8782611edd565b9650611f6883612607565b925050600181019050611f49565b505050505050565b6000611f89826125e6565b611f938185612639565b9350611f9e836125bb565b8060005b83811015611fcf578151611fb68882611edd565b9750611fc183612614565b925050600181019050611fa2565b5085935050505092915050565b6000611fe7826125f1565b611ff1818561264a565b935083602082028501612003856125cb565b8060005b8581101561203f57848403895281516120208582611ef5565b945061202b83612621565b925060208a01995050600181019050612007565b50829750879550505050505092915050565b61205a81612724565b82525050565b61206981612724565b82525050565b600061207a826125fc565b6120848185612666565b9350612094818560208601612769565b61209d81612947565b840191505092915050565b60006120b3826125fc565b6120bd8185612677565b93506120cd818560208601612769565b6120d681612947565b840191505092915050565b60006120ee600d83612677565b91506120f982612958565b602082019050919050565b6000612111602283612677565b915061211c82612981565b604082019050919050565b6000612134601e83612677565b915061213f826129d0565b602082019050919050565b6000612157600d83612677565b9150612162826129f9565b602082019050919050565b600061217a602383612677565b915061218582612a22565b604082019050919050565b600061219d601283612677565b91506121a882612a71565b602082019050919050565b60006121c0601083612677565b91506121cb82612a9a565b602082019050919050565b60006121e3601283612677565b91506121ee82612ac3565b602082019050919050565b600061220660008361265b565b915061221182612aec565b600082019050919050565b6000612229602083612677565b915061223482612aef565b602082019050919050565b600061224c601583612677565b915061225782612b18565b602082019050919050565b600060c08301600083015161227a6000860182611f09565b50602083015161228d6020860182611f09565b5060408301516122a060408601826122eb565b5060608301516122b36060860182612051565b5060808301516122c660808601826122eb565b5060a083015184820360a08601526122de828261206f565b9150508091505092915050565b6122f481612750565b82525050565b61230381612750565b82525050565b6000612314826121f9565b9150819050919050565b600060c0820190506123336000830189611f18565b6123406020830188611f18565b61234d60408301876122fa565b61235a6060830186612060565b61236760808301856122fa565b81810360a083015261237981846120a8565b9050979650505050505050565b600060408201905061239b6000830184611f27565b92915050565b600060208201905081810360008301526123bb8184611f7e565b905092915050565b600060208201905081810360008301526123dd8184611fdc565b905092915050565b60006020820190506123fa6000830184612060565b92915050565b60006020820190508181036000830152612419816120e1565b9050919050565b6000602082019050818103600083015261243981612104565b9050919050565b6000602082019050818103600083015261245981612127565b9050919050565b600060208201905081810360008301526124798161214a565b9050919050565b600060208201905081810360008301526124998161216d565b9050919050565b600060208201905081810360008301526124b981612190565b9050919050565b600060208201905081810360008301526124d9816121b3565b9050919050565b600060208201905081810360008301526124f9816121d6565b9050919050565b600060208201905081810360008301526125198161221c565b9050919050565b600060208201905081810360008301526125398161223f565b9050919050565b600060208201905061255560008301846122fa565b92915050565b6000612565612576565b905061257182826127ce565b919050565b6000604051905090565b600067ffffffffffffffff82111561259b5761259a612904565b5b6125a482612947565b9050602081019050919050565b6000819050919050565b6000819050602082019050919050565b6000819050602082019050919050565b600060029050919050565b600081519050919050565b600081519050919050565b600081519050919050565b6000602082019050919050565b6000602082019050919050565b6000602082019050919050565b600081905092915050565b600082825260208201905092915050565b600082825260208201905092915050565b600081905092915050565b600082825260208201905092915050565b600082825260208201905092915050565b600061269382612750565b915061269e83612750565b9250827fffffffffffffffffffffffffffffffffffffffffffffffffffffffffffffffff038211156126d3576126d2612848565b5b828201905092915050565b60006126e982612750565b91506126f483612750565b92508282101561270757612706612848565b5b828203905092915050565b600061271d82612730565b9050919050565b60008115159050919050565b600073ffffffffffffffffffffffffffffffffffffffff82169050919050565b6000819050919050565b82818337600083830152505050565b60005b8381101561278757808201518184015260208101905061276c565b83811115612796576000848401525b50505050565b600060028204905060018216806127b457607f821691505b602082108114156127c8576127c7612877565b5b50919050565b6127d782612947565b810181811067ffffffffffffffff821117156127f6576127f5612904565b5b80604052505050565b600061280a82612750565b91507fffffffffffffffffffffffffffffffffffffffffffffffffffffffffffffffff82141561283d5761283c612848565b5b600182019050919050565b7f4e487b7100000000000000000000000000000000000000000000000000000000600052601160045260246000fd5b7f4e487b7100000000000000000000000000000000000000000000000000000000600052602260045260246000fd5b7f4e487b7100000000000000000000000000000000000000000000000000000000600052603160045260246000fd5b7f4e487b7100000000000000000000000000000000000000000000000000000000600052603260045260246000fd5b7f4e487b7100000000000000000000000000000000000000000000000000000000600052604160045260246000fd5b600080fd5b600080fd5b600080fd5b600080fd5b6000601f19601f8301169050919050565b7f496e76616c6964204f776e657200000000000000000000000000000000000000600082015250565b7f506c6561736520616464206d6f72652042616c616e636520746f20436f6e666960008201527f726d000000000000000000000000000000000000000000000000000000000000602082015250565b7f54686973205472616e73616374696f6e20446f65736e27742065786973740000600082015250565b7f747820646f6e7420657869737400000000000000000000000000000000000000600082015250565b7f54686973207472616e736163746f6e20697320616c726561647920657865637560008201527f7465640000000000000000000000000000000000000000000000000000000000602082015250565b7f75736572206973206e6f7420756e697175650000000000000000000000000000600082015250565b7f63616e6e6f742045786563757465212100000000000000000000000000000000600082015250565b7f5472616e73616374696f6e206661696c65720000000000000000000000000000600082015250565b50565b7f7472616e73616374696f6e20697320616c726561647920636f6e6669726d6564600082015250565b7f596f7520646f6e27742068617665206163657373730000000000000000000000600082015250565b612b4a81612712565b8114612b5557600080fd5b50565b612b6181612750565b8114612b6c57600080fd5b5056fea26469706673582212205d9bc63eaf3ab9ecdecb35f94432a5a5a987a57782de646293b8c9b0a537cc5e64736f6c63430008060033",
  "linkReferences": {},
  "deployedLinkReferences": {}
}