{
  "_format": "hh-sol-artifact-1",
  "contractName": "Parental",
  "sourceName": "contracts/Parental.sol",
  "abi": [
    {
      "anonymous": false,
      "inputs": [
        {
          "indexed": true,
          "internalType": "address",
          "name": "owner",
          "type": "address"
        },
        {
          "indexed": true,
          "internalType": "uint256",
          "name": "txIndex",
          "type": "uint256"
        }
      ],
      "name": "ConfirmTrans",
      "type": "event"
    },
    {
      "anonymous": false,
      "inputs": [
        {
          "indexed": true,
          "internalType": "address",
          "name": "sender",
          "type": "address"
        },
        {
          "indexed": false,
          "internalType": "uint256",
          "name": "amount",
          "type": "uint256"
        },
        {
          "indexed": false,
          "internalType": "uint256",
          "name": "balance",
          "type": "uint256"
        }
      ],
      "name": "Deposit",
      "type": "event"
    },
    {
      "anonymous": false,
      "inputs": [
        {
          "indexed": true,
          "internalType": "address",
          "name": "owner",
          "type": "address"
        },
        {
          "indexed": true,
          "internalType": "uint256",
          "name": "txIndex",
          "type": "uint256"
        }
      ],
      "name": "ExecuteTrans",
      "type": "event"
    },
    {
      "anonymous": false,
      "inputs": [
        {
          "indexed": true,
          "internalType": "address",
          "name": "owner",
          "type": "address"
        },
        {
          "indexed": true,
          "internalType": "uint256",
          "name": "txIndex",
          "type": "uint256"
        }
      ],
      "name": "RevokeTrans",
      "type": "event"
    },
    {
      "anonymous": false,
      "inputs": [
        {
          "indexed": false,
          "internalType": "bool",
          "name": "status",
          "type": "bool"
        }
      ],
      "name": "SetOwner",
      "type": "event"
    },
    {
      "anonymous": false,
      "inputs": [
        {
          "indexed": false,
          "internalType": "bool",
          "name": "status",
          "type": "bool"
        }
      ],
      "name": "Signup",
      "type": "event"
    },
    {
      "anonymous": false,
      "inputs": [
        {
          "indexed": true,
          "internalType": "address",
          "name": "owner",
          "type": "address"
        },
        {
          "indexed": true,
          "internalType": "uint256",
          "name": "txIndex",
          "type": "uint256"
        },
        {
          "indexed": true,
          "internalType": "address",
          "name": "to",
          "type": "address"
        },
        {
          "indexed": false,
          "internalType": "uint256",
          "name": "value",
          "type": "uint256"
        }
      ],
      "name": "SubmitTrans",
      "type": "event"
    },
    {
      "anonymous": false,
      "inputs": [
        {
          "indexed": false,
          "internalType": "bool",
          "name": "status",
          "type": "bool"
        }
      ],
      "name": "login",
      "type": "event"
    },
    {
      "inputs": [
        {
          "internalType": "address",
          "name": "a",
          "type": "address"
        },
        {
          "internalType": "uint256",
          "name": "_txIndex",
          "type": "uint256"
        }
      ],
      "name": "ConfirmTransactions",
      "outputs": [],
      "stateMutability": "nonpayable",
      "type": "function"
    },
    {
      "inputs": [
        {
          "internalType": "address",
          "name": "a",
          "type": "address"
        }
      ],
      "name": "DepositEth",
      "outputs": [],
      "stateMutability": "payable",
      "type": "function"
    },
    {
      "inputs": [
        {
          "internalType": "address",
          "name": "a",
          "type": "address"
        },
        {
          "internalType": "uint256",
          "name": "_txIndex",
          "type": "uint256"
        }
      ],
      "name": "ExecuteTransaction",
      "outputs": [],
      "stateMutability": "nonpayable",
      "type": "function"
    },
    {
      "inputs": [
        {
          "internalType": "address",
          "name": "a",
          "type": "address"
        },
        {
          "internalType": "string",
          "name": "password",
          "type": "string"
        }
      ],
      "name": "Login",
      "outputs": [],
      "stateMutability": "nonpayable",
      "type": "function"
    },
    {
      "inputs": [
        {
          "internalType": "address",
          "name": "a",
          "type": "address"
        },
        {
          "internalType": "string",
          "name": "SetPassword",
          "type": "string"
        }
      ],
      "name": "SignUp",
      "outputs": [],
      "stateMutability": "nonpayable",
      "type": "function"
    },
    {
      "inputs": [
        {
          "internalType": "address",
          "name": "a",
          "type": "address"
        },
        {
          "internalType": "address",
          "name": "_to",
          "type": "address"
        },
        {
          "internalType": "uint256",
          "name": "_value",
          "type": "uint256"
        },
        {
          "internalType": "string",
          "name": "msg1",
          "type": "string"
        }
      ],
      "name": "SubmitTransaction",
      "outputs": [],
      "stateMutability": "nonpayable",
      "type": "function"
    },
    {
      "inputs": [
        {
          "internalType": "address",
          "name": "a",
          "type": "address"
        }
      ],
      "name": "getBalance",
      "outputs": [
        {
          "internalType": "uint256",
          "name": "",
          "type": "uint256"
        }
      ],
      "stateMutability": "view",
      "type": "function"
    },
    {
      "inputs": [
        {
          "internalType": "address",
          "name": "a",
          "type": "address"
        }
      ],
      "name": "getTransaction",
      "outputs": [
        {
          "components": [
            {
              "internalType": "address",
              "name": "to",
              "type": "address"
            },
            {
              "internalType": "uint256",
              "name": "value",
              "type": "uint256"
            },
            {
              "internalType": "bool",
              "name": "executed",
              "type": "bool"
            },
            {
              "internalType": "uint256",
              "name": "noOfvotes",
              "type": "uint256"
            },
            {
              "internalType": "string",
              "name": "message",
              "type": "string"
            }
          ],
          "internalType": "struct Parental.Transaction[]",
          "name": "",
          "type": "tuple[]"
        }
      ],
      "stateMutability": "view",
      "type": "function"
    },
    {
      "inputs": [
        {
          "internalType": "address",
          "name": "a",
          "type": "address"
        }
      ],
      "name": "getTransactionCount",
      "outputs": [
        {
          "internalType": "uint256",
          "name": "",
          "type": "uint256"
        }
      ],
      "stateMutability": "view",
      "type": "function"
    },
    {
      "inputs": [
        {
          "internalType": "address",
          "name": "a",
          "type": "address"
        }
      ],
      "name": "getowners",
      "outputs": [
        {
          "internalType": "address[2]",
          "name": "",
          "type": "address[2]"
        }
      ],
      "stateMutability": "view",
      "type": "function"
    },
    {
      "inputs": [
        {
          "internalType": "address",
          "name": "",
          "type": "address"
        },
        {
          "internalType": "uint256",
          "name": "",
          "type": "uint256"
        },
        {
          "internalType": "address",
          "name": "",
          "type": "address"
        }
      ],
      "name": "isConfirmed",
      "outputs": [
        {
          "internalType": "bool",
          "name": "",
          "type": "bool"
        }
      ],
      "stateMutability": "view",
      "type": "function"
    },
    {
      "inputs": [
        {
          "internalType": "address",
          "name": "",
          "type": "address"
        },
        {
          "internalType": "address",
          "name": "",
          "type": "address"
        }
      ],
      "name": "isOwner",
      "outputs": [
        {
          "internalType": "bool",
          "name": "",
          "type": "bool"
        }
      ],
      "stateMutability": "view",
      "type": "function"
    },
    {
      "inputs": [
        {
          "internalType": "address",
          "name": "a",
          "type": "address"
        },
        {
          "internalType": "uint256",
          "name": "index",
          "type": "uint256"
        }
      ],
      "name": "removeTx",
      "outputs": [],
      "stateMutability": "nonpayable",
      "type": "function"
    },
    {
      "inputs": [
        {
          "internalType": "address",
          "name": "a",
          "type": "address"
        },
        {
          "internalType": "address",
          "name": "father",
          "type": "address"
        },
        {
          "internalType": "address",
          "name": "mother",
          "type": "address"
        },
        {
          "internalType": "uint256",
          "name": "vote",
          "type": "uint256"
        }
      ],
      "name": "setOwners",
      "outputs": [],
      "stateMutability": "nonpayable",
      "type": "function"
    },
    {
      "stateMutability": "payable",
      "type": "receive"
    }
  ],
  "bytecode": "0x608060405234801561001057600080fd5b5061308c806100206000396000f3fe6080604052600436106100e15760003560e01c80637ddc02d41161007f578063c903285111610059578063c9032851146102ca578063e0445354146102f3578063e6d66a5f14610330578063f8b2cb4f14610359576100e8565b80637ddc02d41461023b578063985429c614610278578063a4b4e42b146102a1576100e8565b80634adbf2ae116100bb5780634adbf2ae146101905780635445f318146101ac5780637372f9ac146101d55780637bb86379146101fe576100e8565b806323ca0cd2146100ed57806330b792a01461012a578063401e68d414610153576100e8565b366100e857005b600080fd5b3480156100f957600080fd5b50610114600480360381019061010f91906120fb565b610396565b60405161012191906129c5565b60405180910390f35b34801561013657600080fd5b50610151600480360381019061014c91906122ae565b6103e1565b005b34801561015f57600080fd5b5061017a600480360381019061017591906122ee565b610832565b604051610187919061282a565b60405180910390f35b6101aa60048036038101906101a591906120fb565b61086e565b005b3480156101b857600080fd5b506101d360048036038101906101ce91906122ae565b610956565b005b3480156101e157600080fd5b506101fc60048036038101906101f791906122ae565b610d82565b005b34801561020a57600080fd5b50610225600480360381019061022091906120fb565b6112d2565b6040516102329190612808565b60405180910390f35b34801561024757600080fd5b50610262600480360381019061025d9190612128565b611486565b60405161026f919061282a565b60405180910390f35b34801561028457600080fd5b5061029f600480360381019061029a9190612252565b6114b5565b005b3480156102ad57600080fd5b506102c860048036038101906102c39190612252565b611632565b005b3480156102d657600080fd5b506102f160048036038101906102ec91906121cf565b6117cf565b005b3480156102ff57600080fd5b5061031a600480360381019061031591906120fb565b6119c4565b60405161032791906127ed565b60405180910390f35b34801561033c57600080fd5b5061035760048036038101906103529190612168565b611a84565b005b34801561036557600080fd5b50610380600480360381019061037b91906120fb565b611e86565b60405161038d91906129c5565b60405180910390f35b60008060008373ffffffffffffffffffffffffffffffffffffffff1673ffffffffffffffffffffffffffffffffffffffff168152602001908152602001600020805490509050919050565b81600560008273ffffffffffffffffffffffffffffffffffffffff1673ffffffffffffffffffffffffffffffffffffffff16815260200190815260200160002060003373ffffffffffffffffffffffffffffffffffffffff1673ffffffffffffffffffffffffffffffffffffffff16815260200190815260200160002060009054906101000a900460ff166104ab576040517f08c379a00000000000000000000000000000000000000000000000000000000081526004016104a2906129a5565b60405180910390fd5b82826000808373ffffffffffffffffffffffffffffffffffffffff1673ffffffffffffffffffffffffffffffffffffffff168152602001908152602001600020805490508110610530576040517f08c379a000000000000000000000000000000000000000000000000000000000815260040161052790612865565b60405180910390fd5b84846000808373ffffffffffffffffffffffffffffffffffffffff1673ffffffffffffffffffffffffffffffffffffffff168152602001908152602001600020818154811061058257610581612d6a565b5b906000526020600020906005020160020160009054906101000a900460ff16156105e1576040517f08c379a00000000000000000000000000000000000000000000000000000000081526004016105d8906128c5565b60405180910390fd5b8686600760008373ffffffffffffffffffffffffffffffffffffffff1673ffffffffffffffffffffffffffffffffffffffff168152602001908152602001600020600082815260200190815260200160002060003373ffffffffffffffffffffffffffffffffffffffff1673ffffffffffffffffffffffffffffffffffffffff16815260200190815260200160002060009054906101000a900460ff16156106be576040517f08c379a00000000000000000000000000000000000000000000000000000000081526004016106b590612985565b60405180910390fd5b60008060008b73ffffffffffffffffffffffffffffffffffffffff1673ffffffffffffffffffffffffffffffffffffffff16815260200190815260200160002089815481106107105761070f612d6a565b5b9060005260206000209060050201905060018160030160008282546107359190612b1d565b925050819055506001600760008c73ffffffffffffffffffffffffffffffffffffffff1673ffffffffffffffffffffffffffffffffffffffff16815260200190815260200160002060008b815260200190815260200160002060003373ffffffffffffffffffffffffffffffffffffffff1673ffffffffffffffffffffffffffffffffffffffff16815260200190815260200160002060006101000a81548160ff021916908315150217905550883373ffffffffffffffffffffffffffffffffffffffff167f6f315954c385fbab81f9695ad5677985ae06e1d323c5d9883f7502303a41f92260405160405180910390a350505050505050505050565b6007602052826000526040600020602052816000526040600020602052806000526040600020600092509250509054906101000a900460ff1681565b34600860008373ffffffffffffffffffffffffffffffffffffffff1673ffffffffffffffffffffffffffffffffffffffff16815260200190815260200160002060008282546108bd9190612b1d565b925050819055503373ffffffffffffffffffffffffffffffffffffffff167f90890809c654f11d6e72a28fa60149770a0d11ec6c92319d6ceb2bb0a4ea1a1534600860008573ffffffffffffffffffffffffffffffffffffffff1673ffffffffffffffffffffffffffffffffffffffff1681526020019081526020016000205460405161094b9291906129e0565b60405180910390a250565b81600560008273ffffffffffffffffffffffffffffffffffffffff1673ffffffffffffffffffffffffffffffffffffffff16815260200190815260200160002060003373ffffffffffffffffffffffffffffffffffffffff1673ffffffffffffffffffffffffffffffffffffffff16815260200190815260200160002060009054906101000a900460ff16610a20576040517f08c379a0000000000000000000000000000000000000000000000000000000008152600401610a17906129a5565b60405180910390fd5b82826000808373ffffffffffffffffffffffffffffffffffffffff1673ffffffffffffffffffffffffffffffffffffffff168152602001908152602001600020805490508110610aa5576040517f08c379a0000000000000000000000000000000000000000000000000000000008152600401610a9c90612865565b60405180910390fd5b84846000808373ffffffffffffffffffffffffffffffffffffffff1673ffffffffffffffffffffffffffffffffffffffff1681526020019081526020016000208181548110610af757610af6612d6a565b5b906000526020600020906005020160020160009054906101000a900460ff1615610b56576040517f08c379a0000000000000000000000000000000000000000000000000000000008152600401610b4d906128c5565b60405180910390fd5b60008060008973ffffffffffffffffffffffffffffffffffffffff1673ffffffffffffffffffffffffffffffffffffffff1681526020019081526020016000208781548110610ba857610ba7612d6a565b5b90600052602060002090600502019050600660008973ffffffffffffffffffffffffffffffffffffffff1673ffffffffffffffffffffffffffffffffffffffff1681526020019081526020016000205481600301541015610c3e576040517f08c379a0000000000000000000000000000000000000000000000000000000008152600401610c3590612925565b60405180910390fd5b60018160020160006101000a81548160ff02191690831515021790555060008160000160009054906101000a900473ffffffffffffffffffffffffffffffffffffffff1673ffffffffffffffffffffffffffffffffffffffff16614e208360010154604051610cac906127d8565b600060405180830381858888f193505050503d8060008114610cea576040519150601f19603f3d011682016040523d82523d6000602084013e610cef565b606091505b5050905080610d33576040517f08c379a0000000000000000000000000000000000000000000000000000000008152600401610d2a90612965565b60405180910390fd5b873373ffffffffffffffffffffffffffffffffffffffff167f7b97296edc75a36a401f12e0613cb8b04d49b77d790dcf26a9b3a53c9ef24c9360405160405180910390a3505050505050505050565b81600560008273ffffffffffffffffffffffffffffffffffffffff1673ffffffffffffffffffffffffffffffffffffffff16815260200190815260200160002060003373ffffffffffffffffffffffffffffffffffffffff1673ffffffffffffffffffffffffffffffffffffffff16815260200190815260200160002060009054906101000a900460ff16610e4c576040517f08c379a0000000000000000000000000000000000000000000000000000000008152600401610e43906129a5565b60405180910390fd5b82826000808373ffffffffffffffffffffffffffffffffffffffff1673ffffffffffffffffffffffffffffffffffffffff168152602001908152602001600020805490508110610ed1576040517f08c379a0000000000000000000000000000000000000000000000000000000008152600401610ec890612865565b60405180910390fd5b84846000808373ffffffffffffffffffffffffffffffffffffffff1673ffffffffffffffffffffffffffffffffffffffff1681526020019081526020016000208181548110610f2357610f22612d6a565b5b906000526020600020906005020160020160009054906101000a900460ff1615610f82576040517f08c379a0000000000000000000000000000000000000000000000000000000008152600401610f79906128c5565b60405180910390fd5b6000808873ffffffffffffffffffffffffffffffffffffffff1673ffffffffffffffffffffffffffffffffffffffff168152602001908152602001600020805490508610611005576040517f08c379a0000000000000000000000000000000000000000000000000000000008152600401610ffc90612885565b60405180910390fd5b60008690505b60016000808a73ffffffffffffffffffffffffffffffffffffffff1673ffffffffffffffffffffffffffffffffffffffff168152602001908152602001600020805490506110599190612b73565b811015611206576000808973ffffffffffffffffffffffffffffffffffffffff1673ffffffffffffffffffffffffffffffffffffffff1681526020019081526020016000206001826110ab9190612b1d565b815481106110bc576110bb612d6a565b5b90600052602060002090600502016000808a73ffffffffffffffffffffffffffffffffffffffff1673ffffffffffffffffffffffffffffffffffffffff168152602001908152602001600020828154811061111a57611119612d6a565b5b90600052602060002090600502016000820160009054906101000a900473ffffffffffffffffffffffffffffffffffffffff168160000160006101000a81548173ffffffffffffffffffffffffffffffffffffffff021916908373ffffffffffffffffffffffffffffffffffffffff160217905550600182015481600101556002820160009054906101000a900460ff168160020160006101000a81548160ff0219169083151502179055506003820154816003015560048201816004019080546111e490612c31565b6111ef929190611ecf565b5090505080806111fe90612c94565b91505061100b565b506000808873ffffffffffffffffffffffffffffffffffffffff1673ffffffffffffffffffffffffffffffffffffffff16815260200190815260200160002080548061125557611254612d3b565b5b6001900381819060005260206000209060050201600080820160006101000a81549073ffffffffffffffffffffffffffffffffffffffff021916905560018201600090556002820160006101000a81549060ff021916905560038201600090556004820160006112c59190611f5c565b5050905550505050505050565b60606000808373ffffffffffffffffffffffffffffffffffffffff1673ffffffffffffffffffffffffffffffffffffffff168152602001908152602001600020805480602002602001604051908101604052809291908181526020016000905b8282101561147b57838290600052602060002090600502016040518060a00160405290816000820160009054906101000a900473ffffffffffffffffffffffffffffffffffffffff1673ffffffffffffffffffffffffffffffffffffffff1673ffffffffffffffffffffffffffffffffffffffff168152602001600182015481526020016002820160009054906101000a900460ff16151515158152602001600382015481526020016004820180546113ea90612c31565b80601f016020809104026020016040519081016040528092919081815260200182805461141690612c31565b80156114635780601f1061143857610100808354040283529160200191611463565b820191906000526020600020905b81548152906001019060200180831161144657829003601f168201915b50505050508152505081526020019060010190611332565b505050509050919050565b60056020528160005260406000206020528060005260406000206000915091509054906101000a900460ff1681565b8160011515600160008373ffffffffffffffffffffffffffffffffffffffff1673ffffffffffffffffffffffffffffffffffffffff16815260200190815260200160002060009054906101000a900460ff161515141561154a576040517f08c379a0000000000000000000000000000000000000000000000000000000008152600401611541906128a5565b60405180910390fd5b60018060008573ffffffffffffffffffffffffffffffffffffffff1673ffffffffffffffffffffffffffffffffffffffff16815260200190815260200160002060006101000a81548160ff02191690831515021790555081600260008573ffffffffffffffffffffffffffffffffffffffff1673ffffffffffffffffffffffffffffffffffffffff16815260200190815260200160002090805190602001906115f4929190611f9c565b507f344a6a83cccc69a3772eb48583a40999c35838df481ff16196244f8f35de3c7b6001604051611625919061282a565b60405180910390a1505050565b8160011515600160008373ffffffffffffffffffffffffffffffffffffffff1673ffffffffffffffffffffffffffffffffffffffff16815260200190815260200160002060009054906101000a900460ff161515146116c6576040517f08c379a00000000000000000000000000000000000000000000000000000000081526004016116bd90612905565b60405180910390fd5b600260008473ffffffffffffffffffffffffffffffffffffffff1673ffffffffffffffffffffffffffffffffffffffff16815260200190815260200160002060405160200161171591906127c1565b604051602081830303815290604052805190602001208260405160200161173c91906127aa565b6040516020818303038152906040528051906020012014611792576040517f08c379a0000000000000000000000000000000000000000000000000000000008152600401611789906128e5565b60405180910390fd5b7f590dc88803dfdac1abf55b3e358e6b7a38e57fa1b784ddb5462e0500ae49cec460016040516117c2919061282a565b60405180910390a1505050565b60008060008673ffffffffffffffffffffffffffffffffffffffff1673ffffffffffffffffffffffffffffffffffffffff1681526020019081526020016000208054905090506000808673ffffffffffffffffffffffffffffffffffffffff1673ffffffffffffffffffffffffffffffffffffffff1681526020019081526020016000206040518060a001604052808673ffffffffffffffffffffffffffffffffffffffff1681526020018581526020016000151581526020016000815260200184815250908060018154018082558091505060019003906000526020600020906005020160009091909190915060008201518160000160006101000a81548173ffffffffffffffffffffffffffffffffffffffff021916908373ffffffffffffffffffffffffffffffffffffffff1602179055506020820151816001015560408201518160020160006101000a81548160ff021916908315150217905550606082015181600301556080820151816004019080519060200190611954929190611f9c565b5050508373ffffffffffffffffffffffffffffffffffffffff16813373ffffffffffffffffffffffffffffffffffffffff167f941bd0ada49d76f3ef7a5ec4d0f0aa4b60eabdf543214a83b699526fe0a97568866040516119b591906129c5565b60405180910390a45050505050565b6119cc612022565b600460008373ffffffffffffffffffffffffffffffffffffffff1673ffffffffffffffffffffffffffffffffffffffff168152602001908152602001600020600280602002604051908101604052809291908260028015611a78576020028201915b8160009054906101000a900473ffffffffffffffffffffffffffffffffffffffff1673ffffffffffffffffffffffffffffffffffffffff1681526020019060010190808311611a2e575b50505050509050919050565b8360011515600360008373ffffffffffffffffffffffffffffffffffffffff1673ffffffffffffffffffffffffffffffffffffffff16815260200190815260200160002060009054906101000a900460ff1615151415611b19576040517f08c379a0000000000000000000000000000000000000000000000000000000008152600401611b1090612845565b60405180910390fd5b6002821115611b5d576040517f08c379a0000000000000000000000000000000000000000000000000000000008152600401611b5490612945565b60405180910390fd5b83600460008773ffffffffffffffffffffffffffffffffffffffff1673ffffffffffffffffffffffffffffffffffffffff168152602001908152602001600020600060028110611bb057611baf612d6a565b5b0160006101000a81548173ffffffffffffffffffffffffffffffffffffffff021916908373ffffffffffffffffffffffffffffffffffffffff16021790555082600460008773ffffffffffffffffffffffffffffffffffffffff1673ffffffffffffffffffffffffffffffffffffffff168152602001908152602001600020600160028110611c4257611c41612d6a565b5b0160006101000a81548173ffffffffffffffffffffffffffffffffffffffff021916908373ffffffffffffffffffffffffffffffffffffffff16021790555081600660008773ffffffffffffffffffffffffffffffffffffffff1673ffffffffffffffffffffffffffffffffffffffff168152602001908152602001600020819055506001600360008773ffffffffffffffffffffffffffffffffffffffff1673ffffffffffffffffffffffffffffffffffffffff16815260200190815260200160002060006101000a81548160ff0219169083151502179055506001600560008773ffffffffffffffffffffffffffffffffffffffff1673ffffffffffffffffffffffffffffffffffffffff16815260200190815260200160002060008673ffffffffffffffffffffffffffffffffffffffff1673ffffffffffffffffffffffffffffffffffffffff16815260200190815260200160002060006101000a81548160ff0219169083151502179055506001600560008773ffffffffffffffffffffffffffffffffffffffff1673ffffffffffffffffffffffffffffffffffffffff16815260200190815260200160002060008573ffffffffffffffffffffffffffffffffffffffff1673ffffffffffffffffffffffffffffffffffffffff16815260200190815260200160002060006101000a81548160ff0219169083151502179055507fe34f8ff34666ed40a656c3d2ee9ca203734401945f12b3890f1ee7448e775e4d6001604051611e77919061282a565b60405180910390a15050505050565b6000600860008373ffffffffffffffffffffffffffffffffffffffff1673ffffffffffffffffffffffffffffffffffffffff168152602001908152602001600020549050919050565b828054611edb90612c31565b90600052602060002090601f016020900481019282611efd5760008555611f4b565b82601f10611f0e5780548555611f4b565b82800160010185558215611f4b57600052602060002091601f016020900482015b82811115611f4a578254825591600101919060010190611f2f565b5b509050611f589190612044565b5090565b508054611f6890612c31565b6000825580601f10611f7a5750611f99565b601f016020900490600052602060002090810190611f989190612044565b5b50565b828054611fa890612c31565b90600052602060002090601f016020900481019282611fca5760008555612011565b82601f10611fe357805160ff1916838001178555612011565b82800160010185558215612011579182015b82811115612010578251825591602001919060010190611ff5565b5b50905061201e9190612044565b5090565b6040518060400160405280600290602082028036833780820191505090505090565b5b8082111561205d576000816000905550600101612045565b5090565b600061207461206f84612a2e565b612a09565b9050828152602081018484840111156120905761208f612dcd565b5b61209b848285612bef565b509392505050565b6000813590506120b281613028565b92915050565b600082601f8301126120cd576120cc612dc8565b5b81356120dd848260208601612061565b91505092915050565b6000813590506120f58161303f565b92915050565b60006020828403121561211157612110612dd7565b5b600061211f848285016120a3565b91505092915050565b6000806040838503121561213f5761213e612dd7565b5b600061214d858286016120a3565b925050602061215e858286016120a3565b9150509250929050565b6000806000806080858703121561218257612181612dd7565b5b6000612190878288016120a3565b94505060206121a1878288016120a3565b93505060406121b2878288016120a3565b92505060606121c3878288016120e6565b91505092959194509250565b600080600080608085870312156121e9576121e8612dd7565b5b60006121f7878288016120a3565b9450506020612208878288016120a3565b9350506040612219878288016120e6565b925050606085013567ffffffffffffffff81111561223a57612239612dd2565b5b612246878288016120b8565b91505092959194509250565b6000806040838503121561226957612268612dd7565b5b6000612277858286016120a3565b925050602083013567ffffffffffffffff81111561229857612297612dd2565b5b6122a4858286016120b8565b9150509250929050565b600080604083850312156122c5576122c4612dd7565b5b60006122d3858286016120a3565b92505060206122e4858286016120e6565b9150509250929050565b60008060006060848603121561230757612306612dd7565b5b6000612315868287016120a3565b9350506020612326868287016120e6565b9250506040612337868287016120a3565b9150509250925092565b600061234d838361236d565b60208301905092915050565b60006123658383612716565b905092915050565b61237681612ba7565b82525050565b61238581612a8e565b61238f8184612ac9565b925061239a82612a5f565b8060005b838110156123cb5781516123b28782612341565b96506123bd83612aaf565b92505060018101905061239e565b505050505050565b60006123de82612a99565b6123e88185612ad4565b9350836020820285016123fa85612a69565b8060005b8581101561243657848403895281516124178582612359565b945061242283612abc565b925060208a019950506001810190506123fe565b50829750879550505050505092915050565b61245181612bb9565b82525050565b61246081612bb9565b82525050565b600061247182612aa4565b61247b8185612af0565b935061248b818560208601612bfe565b61249481612ddc565b840191505092915050565b60006124aa82612aa4565b6124b48185612b12565b93506124c4818560208601612bfe565b80840191505092915050565b600081546124dd81612c31565b6124e78186612b12565b94506001821660008114612502576001811461251357612546565b60ff19831686528186019350612546565b61251c85612a79565b60005b8381101561253e5781548189015260018201915060208101905061251f565b838801955050505b50505092915050565b600061255c602383612b01565b915061256782612ded565b604082019050919050565b600061257f601e83612b01565b915061258a82612e3c565b602082019050919050565b60006125a2600d83612b01565b91506125ad82612e65565b602082019050919050565b60006125c5601283612b01565b91506125d082612e8e565b602082019050919050565b60006125e8602383612b01565b91506125f382612eb7565b604082019050919050565b600061260b601483612b01565b915061261682612f06565b602082019050919050565b600061262e600e83612b01565b915061263982612f2f565b602082019050919050565b6000612651601083612b01565b915061265c82612f58565b602082019050919050565b6000612674601b83612b01565b915061267f82612f81565b602082019050919050565b6000612697601283612b01565b91506126a282612faa565b602082019050919050565b60006126ba600083612ae5565b91506126c582612fd3565b600082019050919050565b60006126dd602083612b01565b91506126e882612fd6565b602082019050919050565b6000612700601583612b01565b915061270b82612fff565b602082019050919050565b600060a08301600083015161272e600086018261236d565b506020830151612741602086018261278c565b5060408301516127546040860182612448565b506060830151612767606086018261278c565b506080830151848203608086015261277f8282612466565b9150508091505092915050565b61279581612be5565b82525050565b6127a481612be5565b82525050565b60006127b6828461249f565b915081905092915050565b60006127cd82846124d0565b915081905092915050565b60006127e3826126ad565b9150819050919050565b6000604082019050612802600083018461237c565b92915050565b6000602082019050818103600083015261282281846123d3565b905092915050565b600060208201905061283f6000830184612457565b92915050565b6000602082019050818103600083015261285e8161254f565b9050919050565b6000602082019050818103600083015261287e81612572565b9050919050565b6000602082019050818103600083015261289e81612595565b9050919050565b600060208201905081810360008301526128be816125b8565b9050919050565b600060208201905081810360008301526128de816125db565b9050919050565b600060208201905081810360008301526128fe816125fe565b9050919050565b6000602082019050818103600083015261291e81612621565b9050919050565b6000602082019050818103600083015261293e81612644565b9050919050565b6000602082019050818103600083015261295e81612667565b9050919050565b6000602082019050818103600083015261297e8161268a565b9050919050565b6000602082019050818103600083015261299e816126d0565b9050919050565b600060208201905081810360008301526129be816126f3565b9050919050565b60006020820190506129da600083018461279b565b92915050565b60006040820190506129f5600083018561279b565b612a02602083018461279b565b9392505050565b6000612a13612a24565b9050612a1f8282612c63565b919050565b6000604051905090565b600067ffffffffffffffff821115612a4957612a48612d99565b5b612a5282612ddc565b9050602081019050919050565b6000819050919050565b6000819050602082019050919050565b60008190508160005260206000209050919050565b600060029050919050565b600081519050919050565b600081519050919050565b6000602082019050919050565b6000602082019050919050565b600081905092915050565b600082825260208201905092915050565b600081905092915050565b600082825260208201905092915050565b600082825260208201905092915050565b600081905092915050565b6000612b2882612be5565b9150612b3383612be5565b9250827fffffffffffffffffffffffffffffffffffffffffffffffffffffffffffffffff03821115612b6857612b67612cdd565b5b828201905092915050565b6000612b7e82612be5565b9150612b8983612be5565b925082821015612b9c57612b9b612cdd565b5b828203905092915050565b6000612bb282612bc5565b9050919050565b60008115159050919050565b600073ffffffffffffffffffffffffffffffffffffffff82169050919050565b6000819050919050565b82818337600083830152505050565b60005b83811015612c1c578082015181840152602081019050612c01565b83811115612c2b576000848401525b50505050565b60006002820490506001821680612c4957607f821691505b60208210811415612c5d57612c5c612d0c565b5b50919050565b612c6c82612ddc565b810181811067ffffffffffffffff82111715612c8b57612c8a612d99565b5b80604052505050565b6000612c9f82612be5565b91507fffffffffffffffffffffffffffffffffffffffffffffffffffffffffffffffff821415612cd257612cd1612cdd565b5b600182019050919050565b7f4e487b7100000000000000000000000000000000000000000000000000000000600052601160045260246000fd5b7f4e487b7100000000000000000000000000000000000000000000000000000000600052602260045260246000fd5b7f4e487b7100000000000000000000000000000000000000000000000000000000600052603160045260246000fd5b7f4e487b7100000000000000000000000000000000000000000000000000000000600052603260045260246000fd5b7f4e487b7100000000000000000000000000000000000000000000000000000000600052604160045260246000fd5b600080fd5b600080fd5b600080fd5b600080fd5b6000601f19601f8301169050919050565b7f4f776e65727320616c72656164792065786973747320666f722074686973207560008201527f7365720000000000000000000000000000000000000000000000000000000000602082015250565b7f54686973205472616e73616374696f6e20446f65736e27742065786973740000600082015250565b7f747820646f6e7420657869737400000000000000000000000000000000000000600082015250565b7f5573657220616c72656164792065786973740000000000000000000000000000600082015250565b7f54686973207472616e736163746f6e20697320616c726561647920657865637560008201527f7465640000000000000000000000000000000000000000000000000000000000602082015250565b7f70617373776f7264206e6f7420636f7272656374000000000000000000000000600082015250565b7f55736572206e6f74206578697374000000000000000000000000000000000000600082015250565b7f63616e6e6f742045786563757465212100000000000000000000000000000000600082015250565b7f6d6178696d756d206c696d6974206f6620766f74657320697320320000000000600082015250565b7f5472616e73616374696f6e206661696c65720000000000000000000000000000600082015250565b50565b7f7472616e73616374696f6e20697320616c726561647920636f6e6669726d6564600082015250565b7f596f7520646f6e27742068617665206163657373730000000000000000000000600082015250565b61303181612ba7565b811461303c57600080fd5b50565b61304881612be5565b811461305357600080fd5b5056fea2646970667358221220359b220e54b5f4381b3902c79dc534e0019d8c1c65a888e5a3207375cd4af93f64736f6c63430008060033",
  "linkReferences": {},
  "deployedLinkReferences": {}
}