{
  "_format": "hh-sol-artifact-1",
  "contractName": "Parental",
  "sourceName": "contracts/Parental.sol",
  "abi": [
    {
      "anonymous": false,
      "inputs": [
        {
          "indexed": true,
          "internalType": "address",
          "name": "owner",
          "type": "address"
        },
        {
          "indexed": true,
          "internalType": "uint256",
          "name": "txIndex",
          "type": "uint256"
        }
      ],
      "name": "ConfirmTrans",
      "type": "event"
    },
    {
      "anonymous": false,
      "inputs": [
        {
          "indexed": true,
          "internalType": "address",
          "name": "sender",
          "type": "address"
        },
        {
          "indexed": false,
          "internalType": "uint256",
          "name": "amount",
          "type": "uint256"
        },
        {
          "indexed": false,
          "internalType": "uint256",
          "name": "balance",
          "type": "uint256"
        }
      ],
      "name": "Deposit",
      "type": "event"
    },
    {
      "anonymous": false,
      "inputs": [
        {
          "indexed": true,
          "internalType": "address",
          "name": "owner",
          "type": "address"
        },
        {
          "indexed": true,
          "internalType": "uint256",
          "name": "txIndex",
          "type": "uint256"
        }
      ],
      "name": "ExecuteTrans",
      "type": "event"
    },
    {
      "anonymous": false,
      "inputs": [
        {
          "indexed": true,
          "internalType": "address",
          "name": "owner",
          "type": "address"
        },
        {
          "indexed": true,
          "internalType": "uint256",
          "name": "txIndex",
          "type": "uint256"
        }
      ],
      "name": "RevokeTrans",
      "type": "event"
    },
    {
      "anonymous": false,
      "inputs": [
        {
          "indexed": false,
          "internalType": "bool",
          "name": "status",
          "type": "bool"
        }
      ],
      "name": "Signup",
      "type": "event"
    },
    {
      "anonymous": false,
      "inputs": [
        {
          "indexed": true,
          "internalType": "address",
          "name": "owner",
          "type": "address"
        },
        {
          "indexed": true,
          "internalType": "uint256",
          "name": "txIndex",
          "type": "uint256"
        },
        {
          "indexed": true,
          "internalType": "address",
          "name": "to",
          "type": "address"
        },
        {
          "indexed": false,
          "internalType": "uint256",
          "name": "value",
          "type": "uint256"
        }
      ],
      "name": "SubmitTrans",
      "type": "event"
    },
    {
      "anonymous": false,
      "inputs": [
        {
          "indexed": false,
          "internalType": "bool",
          "name": "status",
          "type": "bool"
        }
      ],
      "name": "login",
      "type": "event"
    },
    {
      "inputs": [
        {
          "internalType": "address",
          "name": "a",
          "type": "address"
        },
        {
          "internalType": "uint256",
          "name": "_txIndex",
          "type": "uint256"
        }
      ],
      "name": "ConfirmTransactions",
      "outputs": [],
      "stateMutability": "nonpayable",
      "type": "function"
    },
    {
      "inputs": [
        {
          "internalType": "address",
          "name": "a",
          "type": "address"
        }
      ],
      "name": "DepositEth",
      "outputs": [],
      "stateMutability": "payable",
      "type": "function"
    },
    {
      "inputs": [
        {
          "internalType": "address",
          "name": "a",
          "type": "address"
        },
        {
          "internalType": "uint256",
          "name": "_txIndex",
          "type": "uint256"
        }
      ],
      "name": "ExecuteTransaction",
      "outputs": [],
      "stateMutability": "nonpayable",
      "type": "function"
    },
    {
      "inputs": [
        {
          "internalType": "address",
          "name": "a",
          "type": "address"
        },
        {
          "internalType": "string",
          "name": "password",
          "type": "string"
        }
      ],
      "name": "Login",
      "outputs": [],
      "stateMutability": "nonpayable",
      "type": "function"
    },
    {
      "inputs": [
        {
          "internalType": "address",
          "name": "a",
          "type": "address"
        },
        {
          "internalType": "string",
          "name": "SetPassword",
          "type": "string"
        }
      ],
      "name": "SignUp",
      "outputs": [],
      "stateMutability": "nonpayable",
      "type": "function"
    },
    {
      "inputs": [
        {
          "internalType": "address",
          "name": "_to",
          "type": "address"
        },
        {
          "internalType": "uint256",
          "name": "_value",
          "type": "uint256"
        }
      ],
      "name": "SubmitTransaction",
      "outputs": [],
      "stateMutability": "nonpayable",
      "type": "function"
    },
    {
      "inputs": [
        {
          "internalType": "address",
          "name": "a",
          "type": "address"
        }
      ],
      "name": "getBalance",
      "outputs": [
        {
          "internalType": "uint256",
          "name": "",
          "type": "uint256"
        }
      ],
      "stateMutability": "view",
      "type": "function"
    },
    {
      "inputs": [],
      "name": "getTransaction",
      "outputs": [
        {
          "components": [
            {
              "internalType": "address",
              "name": "to",
              "type": "address"
            },
            {
              "internalType": "uint256",
              "name": "value",
              "type": "uint256"
            },
            {
              "internalType": "bool",
              "name": "executed",
              "type": "bool"
            },
            {
              "internalType": "uint256",
              "name": "noOfvotes",
              "type": "uint256"
            }
          ],
          "internalType": "struct Parental.Transaction[]",
          "name": "",
          "type": "tuple[]"
        }
      ],
      "stateMutability": "view",
      "type": "function"
    },
    {
      "inputs": [],
      "name": "getTransactionCount",
      "outputs": [
        {
          "internalType": "uint256",
          "name": "",
          "type": "uint256"
        }
      ],
      "stateMutability": "view",
      "type": "function"
    },
    {
      "inputs": [
        {
          "internalType": "address",
          "name": "a",
          "type": "address"
        }
      ],
      "name": "getowners",
      "outputs": [
        {
          "internalType": "address[2]",
          "name": "",
          "type": "address[2]"
        }
      ],
      "stateMutability": "view",
      "type": "function"
    },
    {
      "inputs": [
        {
          "internalType": "uint256",
          "name": "",
          "type": "uint256"
        },
        {
          "internalType": "address",
          "name": "",
          "type": "address"
        }
      ],
      "name": "isConfirmed",
      "outputs": [
        {
          "internalType": "bool",
          "name": "",
          "type": "bool"
        }
      ],
      "stateMutability": "view",
      "type": "function"
    },
    {
      "inputs": [
        {
          "internalType": "address",
          "name": "",
          "type": "address"
        },
        {
          "internalType": "address",
          "name": "",
          "type": "address"
        }
      ],
      "name": "isOwner",
      "outputs": [
        {
          "internalType": "bool",
          "name": "",
          "type": "bool"
        }
      ],
      "stateMutability": "view",
      "type": "function"
    },
    {
      "inputs": [
        {
          "internalType": "address",
          "name": "a",
          "type": "address"
        },
        {
          "internalType": "uint256",
          "name": "index",
          "type": "uint256"
        }
      ],
      "name": "removeTx",
      "outputs": [],
      "stateMutability": "nonpayable",
      "type": "function"
    },
    {
      "inputs": [
        {
          "internalType": "address",
          "name": "a",
          "type": "address"
        },
        {
          "internalType": "address",
          "name": "father",
          "type": "address"
        },
        {
          "internalType": "address",
          "name": "mother",
          "type": "address"
        },
        {
          "internalType": "uint256",
          "name": "vote",
          "type": "uint256"
        }
      ],
      "name": "setOwners",
      "outputs": [],
      "stateMutability": "nonpayable",
      "type": "function"
    },
    {
      "stateMutability": "payable",
      "type": "receive"
    }
  ],
  "bytecode": "0x608060405234801561001057600080fd5b50612821806100206000396000f3fe6080604052600436106100e15760003560e01c806380f59a651161007f578063c82555d611610059578063c82555d6146102a6578063e0445354146102cf578063e6d66a5f1461030c578063f8b2cb4f14610335576100e8565b806380f59a6514610217578063985429c614610254578063a4b4e42b1461027d576100e8565b80635445f318116100bb5780635445f3181461015d57806359705f81146101865780637372f9ac146101b15780637ddc02d4146101da576100e8565b80632e7700f0146100ed57806330b792a0146101185780634adbf2ae14610141576100e8565b366100e857005b600080fd5b3480156100f957600080fd5b50610102610372565b60405161010f9190612194565b60405180910390f35b34801561012457600080fd5b5061013f600480360381019061013a9190611b40565b61037f565b005b61015b60048036038101906101569190611a10565b61069c565b005b34801561016957600080fd5b50610184600480360381019061017f9190611b40565b610784565b005b34801561019257600080fd5b5061019b610af8565b6040516101a89190611ff7565b60405180910390f35b3480156101bd57600080fd5b506101d860048036038101906101d39190611b40565b610bdc565b005b3480156101e657600080fd5b5061020160048036038101906101fc9190611a3d565b610f54565b60405161020e9190612019565b60405180910390f35b34801561022357600080fd5b5061023e60048036038101906102399190611b80565b610f83565b60405161024b9190612019565b60405180910390f35b34801561026057600080fd5b5061027b60048036038101906102769190611ae4565b610fb2565b005b34801561028957600080fd5b506102a4600480360381019061029f9190611ae4565b61112e565b005b3480156102b257600080fd5b506102cd60048036038101906102c89190611b40565b6112ca565b005b3480156102db57600080fd5b506102f660048036038101906102f19190611a10565b611422565b6040516103039190611fdc565b60405180910390f35b34801561031857600080fd5b50610333600480360381019061032e9190611a7d565b6114e2565b005b34801561034157600080fd5b5061035c60048036038101906103579190611a10565b611868565b6040516103699190612194565b60405180910390f35b6000600780549050905090565b81600460008273ffffffffffffffffffffffffffffffffffffffff1673ffffffffffffffffffffffffffffffffffffffff16815260200190815260200160002060003373ffffffffffffffffffffffffffffffffffffffff1673ffffffffffffffffffffffffffffffffffffffff16815260200190815260200160002060009054906101000a900460ff16610449576040517f08c379a000000000000000000000000000000000000000000000000000000000815260040161044090612174565b60405180910390fd5b816007805490508110610491576040517f08c379a000000000000000000000000000000000000000000000000000000000815260040161048890612054565b60405180910390fd5b82600781815481106104a6576104a5612528565b5b906000526020600020906004020160020160009054906101000a900460ff1615610505576040517f08c379a00000000000000000000000000000000000000000000000000000000081526004016104fc906120b4565b60405180910390fd5b836006600082815260200190815260200160002060003373ffffffffffffffffffffffffffffffffffffffff1673ffffffffffffffffffffffffffffffffffffffff16815260200190815260200160002060009054906101000a900460ff16156105a4576040517f08c379a000000000000000000000000000000000000000000000000000000000815260040161059b90612154565b60405180910390fd5b6000600786815481106105ba576105b9612528565b5b9060005260206000209060040201905060018160030160008282546105df91906122db565b9250508190555060016006600088815260200190815260200160002060003373ffffffffffffffffffffffffffffffffffffffff1673ffffffffffffffffffffffffffffffffffffffff16815260200190815260200160002060006101000a81548160ff021916908315150217905550853373ffffffffffffffffffffffffffffffffffffffff167f6f315954c385fbab81f9695ad5677985ae06e1d323c5d9883f7502303a41f92260405160405180910390a350505050505050565b34600860008373ffffffffffffffffffffffffffffffffffffffff1673ffffffffffffffffffffffffffffffffffffffff16815260200190815260200160002060008282546106eb91906122db565b925050819055503373ffffffffffffffffffffffffffffffffffffffff167f90890809c654f11d6e72a28fa60149770a0d11ec6c92319d6ceb2bb0a4ea1a1534600860008573ffffffffffffffffffffffffffffffffffffffff1673ffffffffffffffffffffffffffffffffffffffff168152602001908152602001600020546040516107799291906121af565b60405180910390a250565b81600460008273ffffffffffffffffffffffffffffffffffffffff1673ffffffffffffffffffffffffffffffffffffffff16815260200190815260200160002060003373ffffffffffffffffffffffffffffffffffffffff1673ffffffffffffffffffffffffffffffffffffffff16815260200190815260200160002060009054906101000a900460ff1661084e576040517f08c379a000000000000000000000000000000000000000000000000000000000815260040161084590612174565b60405180910390fd5b816007805490508110610896576040517f08c379a000000000000000000000000000000000000000000000000000000000815260040161088d90612054565b60405180910390fd5b82600781815481106108ab576108aa612528565b5b906000526020600020906004020160020160009054906101000a900460ff161561090a576040517f08c379a0000000000000000000000000000000000000000000000000000000008152600401610901906120b4565b60405180910390fd5b6000600785815481106109205761091f612528565b5b90600052602060002090600402019050600560008773ffffffffffffffffffffffffffffffffffffffff1673ffffffffffffffffffffffffffffffffffffffff16815260200190815260200160002054816003015410156109b6576040517f08c379a00000000000000000000000000000000000000000000000000000000081526004016109ad90612114565b60405180910390fd5b60018160020160006101000a81548160ff02191690831515021790555060008160000160009054906101000a900473ffffffffffffffffffffffffffffffffffffffff1673ffffffffffffffffffffffffffffffffffffffff16614e208360010154604051610a2490611fc7565b600060405180830381858888f193505050503d8060008114610a62576040519150601f19603f3d011682016040523d82523d6000602084013e610a67565b606091505b5050905080610aab576040517f08c379a0000000000000000000000000000000000000000000000000000000008152600401610aa290612134565b60405180910390fd5b853373ffffffffffffffffffffffffffffffffffffffff167f7b97296edc75a36a401f12e0613cb8b04d49b77d790dcf26a9b3a53c9ef24c9360405160405180910390a350505050505050565b60606007805480602002602001604051908101604052809291908181526020016000905b82821015610bd357838290600052602060002090600402016040518060800160405290816000820160009054906101000a900473ffffffffffffffffffffffffffffffffffffffff1673ffffffffffffffffffffffffffffffffffffffff1673ffffffffffffffffffffffffffffffffffffffff168152602001600182015481526020016002820160009054906101000a900460ff1615151515815260200160038201548152505081526020019060010190610b1c565b50505050905090565b81600460008273ffffffffffffffffffffffffffffffffffffffff1673ffffffffffffffffffffffffffffffffffffffff16815260200190815260200160002060003373ffffffffffffffffffffffffffffffffffffffff1673ffffffffffffffffffffffffffffffffffffffff16815260200190815260200160002060009054906101000a900460ff16610ca6576040517f08c379a0000000000000000000000000000000000000000000000000000000008152600401610c9d90612174565b60405180910390fd5b816007805490508110610cee576040517f08c379a0000000000000000000000000000000000000000000000000000000008152600401610ce590612054565b60405180910390fd5b8260078181548110610d0357610d02612528565b5b906000526020600020906004020160020160009054906101000a900460ff1615610d62576040517f08c379a0000000000000000000000000000000000000000000000000000000008152600401610d59906120b4565b60405180910390fd5b6007805490508410610da9576040517f08c379a0000000000000000000000000000000000000000000000000000000008152600401610da090612074565b60405180910390fd5b60008490505b6001600780549050610dc19190612331565b811015610ed6576007600182610dd791906122db565b81548110610de857610de7612528565b5b906000526020600020906004020160078281548110610e0a57610e09612528565b5b90600052602060002090600402016000820160009054906101000a900473ffffffffffffffffffffffffffffffffffffffff168160000160006101000a81548173ffffffffffffffffffffffffffffffffffffffff021916908373ffffffffffffffffffffffffffffffffffffffff160217905550600182015481600101556002820160009054906101000a900460ff168160020160006101000a81548160ff021916908315150217905550600382015481600301559050508080610ece90612452565b915050610daf565b506007805480610ee957610ee86124f9565b5b6001900381819060005260206000209060040201600080820160006101000a81549073ffffffffffffffffffffffffffffffffffffffff021916905560018201600090556002820160006101000a81549060ff02191690556003820160009055505090555050505050565b60046020528160005260406000206020528060005260406000206000915091509054906101000a900460ff1681565b60066020528160005260406000206020528060005260406000206000915091509054906101000a900460ff1681565b81600115156000808373ffffffffffffffffffffffffffffffffffffffff1673ffffffffffffffffffffffffffffffffffffffff16815260200190815260200160002060009054906101000a900460ff1615151415611046576040517f08c379a000000000000000000000000000000000000000000000000000000000815260040161103d90612094565b60405180910390fd5b60016000808573ffffffffffffffffffffffffffffffffffffffff1673ffffffffffffffffffffffffffffffffffffffff16815260200190815260200160002060006101000a81548160ff02191690831515021790555081600160008573ffffffffffffffffffffffffffffffffffffffff1673ffffffffffffffffffffffffffffffffffffffff16815260200190815260200160002090805190602001906110f09291906118b1565b507f344a6a83cccc69a3772eb48583a40999c35838df481ff16196244f8f35de3c7b60016040516111219190612019565b60405180910390a1505050565b81600115156000808373ffffffffffffffffffffffffffffffffffffffff1673ffffffffffffffffffffffffffffffffffffffff16815260200190815260200160002060009054906101000a900460ff161515146111c1576040517f08c379a00000000000000000000000000000000000000000000000000000000081526004016111b8906120f4565b60405180910390fd5b600160008473ffffffffffffffffffffffffffffffffffffffff1673ffffffffffffffffffffffffffffffffffffffff1681526020019081526020016000206040516020016112109190611fb0565b60405160208183030381529060405280519060200120826040516020016112379190611f99565b604051602081830303815290604052805190602001201461128d576040517f08c379a0000000000000000000000000000000000000000000000000000000008152600401611284906120d4565b60405180910390fd5b7f590dc88803dfdac1abf55b3e358e6b7a38e57fa1b784ddb5462e0500ae49cec460016040516112bd9190612019565b60405180910390a1505050565b60006007805490509050600760405180608001604052808573ffffffffffffffffffffffffffffffffffffffff1681526020018481526020016000151581526020016000815250908060018154018082558091505060019003906000526020600020906004020160009091909190915060008201518160000160006101000a81548173ffffffffffffffffffffffffffffffffffffffff021916908373ffffffffffffffffffffffffffffffffffffffff1602179055506020820151816001015560408201518160020160006101000a81548160ff0219169083151502179055506060820151816003015550508273ffffffffffffffffffffffffffffffffffffffff16813373ffffffffffffffffffffffffffffffffffffffff167f941bd0ada49d76f3ef7a5ec4d0f0aa4b60eabdf543214a83b699526fe0a97568856040516114159190612194565b60405180910390a4505050565b61142a611937565b600360008373ffffffffffffffffffffffffffffffffffffffff1673ffffffffffffffffffffffffffffffffffffffff1681526020019081526020016000206002806020026040519081016040528092919082600280156114d6576020028201915b8160009054906101000a900473ffffffffffffffffffffffffffffffffffffffff1673ffffffffffffffffffffffffffffffffffffffff168152602001906001019080831161148c575b50505050509050919050565b8360011515600260008373ffffffffffffffffffffffffffffffffffffffff1673ffffffffffffffffffffffffffffffffffffffff16815260200190815260200160002060009054906101000a900460ff1615151415611577576040517f08c379a000000000000000000000000000000000000000000000000000000000815260040161156e90612034565b60405180910390fd5b83600360008773ffffffffffffffffffffffffffffffffffffffff1673ffffffffffffffffffffffffffffffffffffffff1681526020019081526020016000206000600281106115ca576115c9612528565b5b0160006101000a81548173ffffffffffffffffffffffffffffffffffffffff021916908373ffffffffffffffffffffffffffffffffffffffff16021790555082600360008773ffffffffffffffffffffffffffffffffffffffff1673ffffffffffffffffffffffffffffffffffffffff16815260200190815260200160002060016002811061165c5761165b612528565b5b0160006101000a81548173ffffffffffffffffffffffffffffffffffffffff021916908373ffffffffffffffffffffffffffffffffffffffff16021790555081600560008773ffffffffffffffffffffffffffffffffffffffff1673ffffffffffffffffffffffffffffffffffffffff168152602001908152602001600020819055506001600260008773ffffffffffffffffffffffffffffffffffffffff1673ffffffffffffffffffffffffffffffffffffffff16815260200190815260200160002060006101000a81548160ff0219169083151502179055506001600460008773ffffffffffffffffffffffffffffffffffffffff1673ffffffffffffffffffffffffffffffffffffffff16815260200190815260200160002060008673ffffffffffffffffffffffffffffffffffffffff1673ffffffffffffffffffffffffffffffffffffffff16815260200190815260200160002060006101000a81548160ff0219169083151502179055506001600460008773ffffffffffffffffffffffffffffffffffffffff1673ffffffffffffffffffffffffffffffffffffffff16815260200190815260200160002060008573ffffffffffffffffffffffffffffffffffffffff1673ffffffffffffffffffffffffffffffffffffffff16815260200190815260200160002060006101000a81548160ff0219169083151502179055505050505050565b6000600860008373ffffffffffffffffffffffffffffffffffffffff1673ffffffffffffffffffffffffffffffffffffffff168152602001908152602001600020549050919050565b8280546118bd906123ef565b90600052602060002090601f0160209004810192826118df5760008555611926565b82601f106118f857805160ff1916838001178555611926565b82800160010185558215611926579182015b8281111561192557825182559160200191906001019061190a565b5b5090506119339190611959565b5090565b6040518060400160405280600290602082028036833780820191505090505090565b5b8082111561197257600081600090555060010161195a565b5090565b6000611989611984846121fd565b6121d8565b9050828152602081018484840111156119a5576119a461258b565b5b6119b08482856123ad565b509392505050565b6000813590506119c7816127bd565b92915050565b600082601f8301126119e2576119e1612586565b5b81356119f2848260208601611976565b91505092915050565b600081359050611a0a816127d4565b92915050565b600060208284031215611a2657611a25612595565b5b6000611a34848285016119b8565b91505092915050565b60008060408385031215611a5457611a53612595565b5b6000611a62858286016119b8565b9250506020611a73858286016119b8565b9150509250929050565b60008060008060808587031215611a9757611a96612595565b5b6000611aa5878288016119b8565b9450506020611ab6878288016119b8565b9350506040611ac7878288016119b8565b9250506060611ad8878288016119fb565b91505092959194509250565b60008060408385031215611afb57611afa612595565b5b6000611b09858286016119b8565b925050602083013567ffffffffffffffff811115611b2a57611b29612590565b5b611b36858286016119cd565b9150509250929050565b60008060408385031215611b5757611b56612595565b5b6000611b65858286016119b8565b9250506020611b76858286016119fb565b9150509250929050565b60008060408385031215611b9757611b96612595565b5b6000611ba5858286016119fb565b9250506020611bb6858286016119b8565b9150509250929050565b6000611bcc8383611bf0565b60208301905092915050565b6000611be48383611f26565b60808301905092915050565b611bf981612365565b82525050565b611c088161225d565b611c128184612298565b9250611c1d8261222e565b8060005b83811015611c4e578151611c358782611bc0565b9650611c408361227e565b925050600181019050611c21565b505050505050565b6000611c6182612268565b611c6b81856122a3565b9350611c7683612238565b8060005b83811015611ca7578151611c8e8882611bd8565b9750611c998361228b565b925050600181019050611c7a565b5085935050505092915050565b611cbd81612377565b82525050565b611ccc81612377565b82525050565b6000611cdd82612273565b611ce781856122d0565b9350611cf78185602086016123bc565b80840191505092915050565b60008154611d10816123ef565b611d1a81866122d0565b94506001821660008114611d355760018114611d4657611d79565b60ff19831686528186019350611d79565b611d4f85612248565b60005b83811015611d7157815481890152600182019150602081019050611d52565b838801955050505b50505092915050565b6000611d8f6023836122bf565b9150611d9a826125ab565b604082019050919050565b6000611db2601e836122bf565b9150611dbd826125fa565b602082019050919050565b6000611dd5600d836122bf565b9150611de082612623565b602082019050919050565b6000611df86012836122bf565b9150611e038261264c565b602082019050919050565b6000611e1b6023836122bf565b9150611e2682612675565b604082019050919050565b6000611e3e6014836122bf565b9150611e49826126c4565b602082019050919050565b6000611e61600e836122bf565b9150611e6c826126ed565b602082019050919050565b6000611e846010836122bf565b9150611e8f82612716565b602082019050919050565b6000611ea76012836122bf565b9150611eb28261273f565b602082019050919050565b6000611eca6000836122b4565b9150611ed582612768565b600082019050919050565b6000611eed6020836122bf565b9150611ef88261276b565b602082019050919050565b6000611f106015836122bf565b9150611f1b82612794565b602082019050919050565b608082016000820151611f3c6000850182611bf0565b506020820151611f4f6020850182611f7b565b506040820151611f626040850182611cb4565b506060820151611f756060850182611f7b565b50505050565b611f84816123a3565b82525050565b611f93816123a3565b82525050565b6000611fa58284611cd2565b915081905092915050565b6000611fbc8284611d03565b915081905092915050565b6000611fd282611ebd565b9150819050919050565b6000604082019050611ff16000830184611bff565b92915050565b600060208201905081810360008301526120118184611c56565b905092915050565b600060208201905061202e6000830184611cc3565b92915050565b6000602082019050818103600083015261204d81611d82565b9050919050565b6000602082019050818103600083015261206d81611da5565b9050919050565b6000602082019050818103600083015261208d81611dc8565b9050919050565b600060208201905081810360008301526120ad81611deb565b9050919050565b600060208201905081810360008301526120cd81611e0e565b9050919050565b600060208201905081810360008301526120ed81611e31565b9050919050565b6000602082019050818103600083015261210d81611e54565b9050919050565b6000602082019050818103600083015261212d81611e77565b9050919050565b6000602082019050818103600083015261214d81611e9a565b9050919050565b6000602082019050818103600083015261216d81611ee0565b9050919050565b6000602082019050818103600083015261218d81611f03565b9050919050565b60006020820190506121a96000830184611f8a565b92915050565b60006040820190506121c46000830185611f8a565b6121d16020830184611f8a565b9392505050565b60006121e26121f3565b90506121ee8282612421565b919050565b6000604051905090565b600067ffffffffffffffff82111561221857612217612557565b5b6122218261259a565b9050602081019050919050565b6000819050919050565b6000819050602082019050919050565b60008190508160005260206000209050919050565b600060029050919050565b600081519050919050565b600081519050919050565b6000602082019050919050565b6000602082019050919050565b600081905092915050565b600082825260208201905092915050565b600081905092915050565b600082825260208201905092915050565b600081905092915050565b60006122e6826123a3565b91506122f1836123a3565b9250827fffffffffffffffffffffffffffffffffffffffffffffffffffffffffffffffff038211156123265761232561249b565b5b828201905092915050565b600061233c826123a3565b9150612347836123a3565b92508282101561235a5761235961249b565b5b828203905092915050565b600061237082612383565b9050919050565b60008115159050919050565b600073ffffffffffffffffffffffffffffffffffffffff82169050919050565b6000819050919050565b82818337600083830152505050565b60005b838110156123da5780820151818401526020810190506123bf565b838111156123e9576000848401525b50505050565b6000600282049050600182168061240757607f821691505b6020821081141561241b5761241a6124ca565b5b50919050565b61242a8261259a565b810181811067ffffffffffffffff8211171561244957612448612557565b5b80604052505050565b600061245d826123a3565b91507fffffffffffffffffffffffffffffffffffffffffffffffffffffffffffffffff8214156124905761248f61249b565b5b600182019050919050565b7f4e487b7100000000000000000000000000000000000000000000000000000000600052601160045260246000fd5b7f4e487b7100000000000000000000000000000000000000000000000000000000600052602260045260246000fd5b7f4e487b7100000000000000000000000000000000000000000000000000000000600052603160045260246000fd5b7f4e487b7100000000000000000000000000000000000000000000000000000000600052603260045260246000fd5b7f4e487b7100000000000000000000000000000000000000000000000000000000600052604160045260246000fd5b600080fd5b600080fd5b600080fd5b600080fd5b6000601f19601f8301169050919050565b7f4f776e65727320616c72656164792065786973747320666f722074686973207560008201527f7365720000000000000000000000000000000000000000000000000000000000602082015250565b7f54686973205472616e73616374696f6e20446f65736e27742065786973740000600082015250565b7f747820646f6e7420657869737400000000000000000000000000000000000000600082015250565b7f5573657220616c72656164792065786973740000000000000000000000000000600082015250565b7f54686973207472616e736163746f6e20697320616c726561647920657865637560008201527f7465640000000000000000000000000000000000000000000000000000000000602082015250565b7f70617373776f7264206e6f7420636f7272656374000000000000000000000000600082015250565b7f55736572206e6f74206578697374000000000000000000000000000000000000600082015250565b7f63616e6e6f742045786563757465212100000000000000000000000000000000600082015250565b7f5472616e73616374696f6e206661696c65720000000000000000000000000000600082015250565b50565b7f7472616e73616374696f6e20697320616c726561647920636f6e6669726d6564600082015250565b7f596f7520646f6e27742068617665206163657373730000000000000000000000600082015250565b6127c681612365565b81146127d157600080fd5b50565b6127dd816123a3565b81146127e857600080fd5b5056fea2646970667358221220ae45c8fd2accd54e003628a7aac65cfa518fbad196069233d305f915a17570d564736f6c63430008060033",
  "linkReferences": {},
  "deployedLinkReferences": {}
}