{
  "_format": "hh-sol-artifact-1",
  "contractName": "Parental",
  "sourceName": "contracts/Parental.sol",
  "abi": [
    {
      "anonymous": false,
      "inputs": [
        {
          "indexed": true,
          "internalType": "address",
          "name": "owner",
          "type": "address"
        },
        {
          "indexed": true,
          "internalType": "uint256",
          "name": "txIndex",
          "type": "uint256"
        }
      ],
      "name": "ConfirmTrans",
      "type": "event"
    },
    {
      "anonymous": false,
      "inputs": [
        {
          "indexed": true,
          "internalType": "address",
          "name": "sender",
          "type": "address"
        },
        {
          "indexed": false,
          "internalType": "uint256",
          "name": "amount",
          "type": "uint256"
        },
        {
          "indexed": false,
          "internalType": "uint256",
          "name": "balance",
          "type": "uint256"
        }
      ],
      "name": "Deposit",
      "type": "event"
    },
    {
      "anonymous": false,
      "inputs": [
        {
          "indexed": true,
          "internalType": "address",
          "name": "owner",
          "type": "address"
        },
        {
          "indexed": true,
          "internalType": "uint256",
          "name": "txIndex",
          "type": "uint256"
        }
      ],
      "name": "ExecuteTrans",
      "type": "event"
    },
    {
      "anonymous": false,
      "inputs": [
        {
          "indexed": true,
          "internalType": "address",
          "name": "owner",
          "type": "address"
        },
        {
          "indexed": true,
          "internalType": "uint256",
          "name": "txIndex",
          "type": "uint256"
        }
      ],
      "name": "RevokeTrans",
      "type": "event"
    },
    {
      "anonymous": false,
      "inputs": [
        {
          "indexed": false,
          "internalType": "bool",
          "name": "status",
          "type": "bool"
        }
      ],
      "name": "Signup",
      "type": "event"
    },
    {
      "anonymous": false,
      "inputs": [
        {
          "indexed": true,
          "internalType": "address",
          "name": "owner",
          "type": "address"
        },
        {
          "indexed": true,
          "internalType": "uint256",
          "name": "txIndex",
          "type": "uint256"
        },
        {
          "indexed": true,
          "internalType": "address",
          "name": "to",
          "type": "address"
        },
        {
          "indexed": false,
          "internalType": "uint256",
          "name": "value",
          "type": "uint256"
        }
      ],
      "name": "SubmitTrans",
      "type": "event"
    },
    {
      "anonymous": false,
      "inputs": [
        {
          "indexed": false,
          "internalType": "bool",
          "name": "status",
          "type": "bool"
        }
      ],
      "name": "login",
      "type": "event"
    },
    {
      "inputs": [
        {
          "internalType": "address",
          "name": "a",
          "type": "address"
        },
        {
          "internalType": "uint256",
          "name": "_txIndex",
          "type": "uint256"
        }
      ],
      "name": "ConfirmTransactions",
      "outputs": [],
      "stateMutability": "nonpayable",
      "type": "function"
    },
    {
      "inputs": [],
      "name": "DepositEth",
      "outputs": [],
      "stateMutability": "payable",
      "type": "function"
    },
    {
      "inputs": [
        {
          "internalType": "address",
          "name": "a",
          "type": "address"
        },
        {
          "internalType": "uint256",
          "name": "_txIndex",
          "type": "uint256"
        }
      ],
      "name": "ExecuteTransaction",
      "outputs": [],
      "stateMutability": "nonpayable",
      "type": "function"
    },
    {
      "inputs": [
        {
          "internalType": "address",
          "name": "a",
          "type": "address"
        },
        {
          "internalType": "string",
          "name": "password",
          "type": "string"
        }
      ],
      "name": "Login",
      "outputs": [
        {
          "internalType": "bool",
          "name": "",
          "type": "bool"
        }
      ],
      "stateMutability": "nonpayable",
      "type": "function"
    },
    {
      "inputs": [
        {
          "internalType": "address",
          "name": "a",
          "type": "address"
        },
        {
          "internalType": "string",
          "name": "SetPassword",
          "type": "string"
        }
      ],
      "name": "SignUp",
      "outputs": [
        {
          "internalType": "bool",
          "name": "",
          "type": "bool"
        }
      ],
      "stateMutability": "nonpayable",
      "type": "function"
    },
    {
      "inputs": [
        {
          "internalType": "address",
          "name": "_to",
          "type": "address"
        },
        {
          "internalType": "uint256",
          "name": "_value",
          "type": "uint256"
        }
      ],
      "name": "SubmitTransaction",
      "outputs": [],
      "stateMutability": "nonpayable",
      "type": "function"
    },
    {
      "inputs": [],
      "name": "getBalance",
      "outputs": [
        {
          "internalType": "uint256",
          "name": "",
          "type": "uint256"
        }
      ],
      "stateMutability": "view",
      "type": "function"
    },
    {
      "inputs": [],
      "name": "getTransaction",
      "outputs": [
        {
          "components": [
            {
              "internalType": "address",
              "name": "to",
              "type": "address"
            },
            {
              "internalType": "uint256",
              "name": "value",
              "type": "uint256"
            },
            {
              "internalType": "bool",
              "name": "executed",
              "type": "bool"
            },
            {
              "internalType": "uint256",
              "name": "noOfvotes",
              "type": "uint256"
            }
          ],
          "internalType": "struct Parental.Transaction[]",
          "name": "",
          "type": "tuple[]"
        }
      ],
      "stateMutability": "view",
      "type": "function"
    },
    {
      "inputs": [],
      "name": "getTransactionCount",
      "outputs": [
        {
          "internalType": "uint256",
          "name": "",
          "type": "uint256"
        }
      ],
      "stateMutability": "view",
      "type": "function"
    },
    {
      "inputs": [
        {
          "internalType": "uint256",
          "name": "",
          "type": "uint256"
        },
        {
          "internalType": "address",
          "name": "",
          "type": "address"
        }
      ],
      "name": "isConfirmed",
      "outputs": [
        {
          "internalType": "bool",
          "name": "",
          "type": "bool"
        }
      ],
      "stateMutability": "view",
      "type": "function"
    },
    {
      "inputs": [
        {
          "internalType": "address",
          "name": "",
          "type": "address"
        },
        {
          "internalType": "address",
          "name": "",
          "type": "address"
        }
      ],
      "name": "isOwner",
      "outputs": [
        {
          "internalType": "bool",
          "name": "",
          "type": "bool"
        }
      ],
      "stateMutability": "view",
      "type": "function"
    },
    {
      "inputs": [
        {
          "internalType": "address",
          "name": "a",
          "type": "address"
        },
        {
          "internalType": "uint256",
          "name": "index",
          "type": "uint256"
        }
      ],
      "name": "removeTx",
      "outputs": [],
      "stateMutability": "nonpayable",
      "type": "function"
    },
    {
      "inputs": [
        {
          "internalType": "address",
          "name": "a",
          "type": "address"
        },
        {
          "internalType": "address",
          "name": "father",
          "type": "address"
        },
        {
          "internalType": "address",
          "name": "mother",
          "type": "address"
        },
        {
          "internalType": "uint256",
          "name": "vote",
          "type": "uint256"
        }
      ],
      "name": "setOwners",
      "outputs": [],
      "stateMutability": "nonpayable",
      "type": "function"
    },
    {
      "stateMutability": "payable",
      "type": "receive"
    }
  ],
  "bytecode": "0x608060405234801561001057600080fd5b50612659806100206000396000f3fe6080604052600436106100c65760003560e01c80637372f9ac1161007f578063985429c611610059578063985429c614610252578063a4b4e42b1461028f578063c82555d6146102cc578063e6d66a5f146102f5576100cd565b80637372f9ac146101af5780637ddc02d4146101d857806380f59a6514610215576100cd565b806312065fe0146100d25780632e7700f0146100fd57806330b792a0146101285780635445f3181461015157806359705f811461017a5780635b37930b146101a5576100cd565b366100cd57005b600080fd5b3480156100de57600080fd5b506100e761031e565b6040516100f49190611fd0565b60405180910390f35b34801561010957600080fd5b50610112610326565b60405161011f9190611fd0565b60405180910390f35b34801561013457600080fd5b5061014f600480360381019061014a91906119c3565b610333565b005b34801561015d57600080fd5b50610178600480360381019061017391906119c3565b610650565b005b34801561018657600080fd5b5061018f6109c4565b60405161019c9190611e13565b60405180910390f35b6101ad610aa8565b005b3480156101bb57600080fd5b506101d660048036038101906101d191906119c3565b610ba7565b005b3480156101e457600080fd5b506101ff60048036038101906101fa91906118c0565b610f1f565b60405161020c9190611e35565b60405180910390f35b34801561022157600080fd5b5061023c60048036038101906102379190611a03565b610f4e565b6040516102499190611e35565b60405180910390f35b34801561025e57600080fd5b5061027960048036038101906102749190611967565b610f7d565b6040516102869190611e35565b60405180910390f35b34801561029b57600080fd5b506102b660048036038101906102b19190611967565b611101565b6040516102c39190611e35565b60405180910390f35b3480156102d857600080fd5b506102f360048036038101906102ee91906119c3565b6112a5565b005b34801561030157600080fd5b5061031c60048036038101906103179190611900565b6113fd565b005b600047905090565b6000600780549050905090565b81600460008273ffffffffffffffffffffffffffffffffffffffff1673ffffffffffffffffffffffffffffffffffffffff16815260200190815260200160002060003373ffffffffffffffffffffffffffffffffffffffff1673ffffffffffffffffffffffffffffffffffffffff16815260200190815260200160002060009054906101000a900460ff166103fd576040517f08c379a00000000000000000000000000000000000000000000000000000000081526004016103f490611fb0565b60405180910390fd5b816007805490508110610445576040517f08c379a000000000000000000000000000000000000000000000000000000000815260040161043c90611e70565b60405180910390fd5b826007818154811061045a57610459612337565b5b906000526020600020906004020160020160009054906101000a900460ff16156104b9576040517f08c379a00000000000000000000000000000000000000000000000000000000081526004016104b090611ed0565b60405180910390fd5b836006600082815260200190815260200160002060003373ffffffffffffffffffffffffffffffffffffffff1673ffffffffffffffffffffffffffffffffffffffff16815260200190815260200160002060009054906101000a900460ff1615610558576040517f08c379a000000000000000000000000000000000000000000000000000000000815260040161054f90611f90565b60405180910390fd5b60006007868154811061056e5761056d612337565b5b90600052602060002090600402019050600181600301600082825461059391906120ea565b9250508190555060016006600088815260200190815260200160002060003373ffffffffffffffffffffffffffffffffffffffff1673ffffffffffffffffffffffffffffffffffffffff16815260200190815260200160002060006101000a81548160ff021916908315150217905550853373ffffffffffffffffffffffffffffffffffffffff167f6f315954c385fbab81f9695ad5677985ae06e1d323c5d9883f7502303a41f92260405160405180910390a350505050505050565b81600460008273ffffffffffffffffffffffffffffffffffffffff1673ffffffffffffffffffffffffffffffffffffffff16815260200190815260200160002060003373ffffffffffffffffffffffffffffffffffffffff1673ffffffffffffffffffffffffffffffffffffffff16815260200190815260200160002060009054906101000a900460ff1661071a576040517f08c379a000000000000000000000000000000000000000000000000000000000815260040161071190611fb0565b60405180910390fd5b816007805490508110610762576040517f08c379a000000000000000000000000000000000000000000000000000000000815260040161075990611e70565b60405180910390fd5b826007818154811061077757610776612337565b5b906000526020600020906004020160020160009054906101000a900460ff16156107d6576040517f08c379a00000000000000000000000000000000000000000000000000000000081526004016107cd90611ed0565b60405180910390fd5b6000600785815481106107ec576107eb612337565b5b90600052602060002090600402019050600560008773ffffffffffffffffffffffffffffffffffffffff1673ffffffffffffffffffffffffffffffffffffffff1681526020019081526020016000205481600301541015610882576040517f08c379a000000000000000000000000000000000000000000000000000000000815260040161087990611f30565b60405180910390fd5b60018160020160006101000a81548160ff02191690831515021790555060008160000160009054906101000a900473ffffffffffffffffffffffffffffffffffffffff1673ffffffffffffffffffffffffffffffffffffffff16614e2083600101546040516108f090611dfe565b600060405180830381858888f193505050503d806000811461092e576040519150601f19603f3d011682016040523d82523d6000602084013e610933565b606091505b5050905080610977576040517f08c379a000000000000000000000000000000000000000000000000000000000815260040161096e90611f50565b60405180910390fd5b853373ffffffffffffffffffffffffffffffffffffffff167f7b97296edc75a36a401f12e0613cb8b04d49b77d790dcf26a9b3a53c9ef24c9360405160405180910390a350505050505050565b60606007805480602002602001604051908101604052809291908181526020016000905b82821015610a9f57838290600052602060002090600402016040518060800160405290816000820160009054906101000a900473ffffffffffffffffffffffffffffffffffffffff1673ffffffffffffffffffffffffffffffffffffffff1673ffffffffffffffffffffffffffffffffffffffff168152602001600182015481526020016002820160009054906101000a900460ff16151515158152602001600382015481525050815260200190600101906109e8565b50505050905090565b60003073ffffffffffffffffffffffffffffffffffffffff1634604051610ace90611dfe565b60006040518083038185875af1925050503d8060008114610b0b576040519150601f19603f3d011682016040523d82523d6000602084013e610b10565b606091505b5050905080610b54576040517f08c379a0000000000000000000000000000000000000000000000000000000008152600401610b4b90611f70565b60405180910390fd5b3373ffffffffffffffffffffffffffffffffffffffff167f90890809c654f11d6e72a28fa60149770a0d11ec6c92319d6ceb2bb0a4ea1a153447604051610b9c929190611feb565b60405180910390a250565b81600460008273ffffffffffffffffffffffffffffffffffffffff1673ffffffffffffffffffffffffffffffffffffffff16815260200190815260200160002060003373ffffffffffffffffffffffffffffffffffffffff1673ffffffffffffffffffffffffffffffffffffffff16815260200190815260200160002060009054906101000a900460ff16610c71576040517f08c379a0000000000000000000000000000000000000000000000000000000008152600401610c6890611fb0565b60405180910390fd5b816007805490508110610cb9576040517f08c379a0000000000000000000000000000000000000000000000000000000008152600401610cb090611e70565b60405180910390fd5b8260078181548110610cce57610ccd612337565b5b906000526020600020906004020160020160009054906101000a900460ff1615610d2d576040517f08c379a0000000000000000000000000000000000000000000000000000000008152600401610d2490611ed0565b60405180910390fd5b6007805490508410610d74576040517f08c379a0000000000000000000000000000000000000000000000000000000008152600401610d6b90611e90565b60405180910390fd5b60008490505b6001600780549050610d8c9190612140565b811015610ea1576007600182610da291906120ea565b81548110610db357610db2612337565b5b906000526020600020906004020160078281548110610dd557610dd4612337565b5b90600052602060002090600402016000820160009054906101000a900473ffffffffffffffffffffffffffffffffffffffff168160000160006101000a81548173ffffffffffffffffffffffffffffffffffffffff021916908373ffffffffffffffffffffffffffffffffffffffff160217905550600182015481600101556002820160009054906101000a900460ff168160020160006101000a81548160ff021916908315150217905550600382015481600301559050508080610e9990612261565b915050610d7a565b506007805480610eb457610eb3612308565b5b6001900381819060005260206000209060040201600080820160006101000a81549073ffffffffffffffffffffffffffffffffffffffff021916905560018201600090556002820160006101000a81549060ff02191690556003820160009055505090555050505050565b60046020528160005260406000206020528060005260406000206000915091509054906101000a900460ff1681565b60066020528160005260406000206020528060005260406000206000915091509054906101000a900460ff1681565b600082600115156000808373ffffffffffffffffffffffffffffffffffffffff1673ffffffffffffffffffffffffffffffffffffffff16815260200190815260200160002060009054906101000a900460ff1615151415611013576040517f08c379a000000000000000000000000000000000000000000000000000000000815260040161100a90611eb0565b60405180910390fd5b60016000808673ffffffffffffffffffffffffffffffffffffffff1673ffffffffffffffffffffffffffffffffffffffff16815260200190815260200160002060006101000a81548160ff02191690831515021790555082600160008673ffffffffffffffffffffffffffffffffffffffff1673ffffffffffffffffffffffffffffffffffffffff16815260200190815260200160002090805190602001906110bd929190611783565b507f344a6a83cccc69a3772eb48583a40999c35838df481ff16196244f8f35de3c7b60016040516110ee9190611e35565b60405180910390a1600191505092915050565b600082600115156000808373ffffffffffffffffffffffffffffffffffffffff1673ffffffffffffffffffffffffffffffffffffffff16815260200190815260200160002060009054906101000a900460ff16151514611196576040517f08c379a000000000000000000000000000000000000000000000000000000000815260040161118d90611f10565b60405180910390fd5b600160008573ffffffffffffffffffffffffffffffffffffffff1673ffffffffffffffffffffffffffffffffffffffff1681526020019081526020016000206040516020016111e59190611de7565b604051602081830303815290604052805190602001208360405160200161120c9190611dd0565b6040516020818303038152906040528051906020012014611262576040517f08c379a000000000000000000000000000000000000000000000000000000000815260040161125990611ef0565b60405180910390fd5b7f590dc88803dfdac1abf55b3e358e6b7a38e57fa1b784ddb5462e0500ae49cec460016040516112929190611e35565b60405180910390a1600191505092915050565b60006007805490509050600760405180608001604052808573ffffffffffffffffffffffffffffffffffffffff1681526020018481526020016000151581526020016000815250908060018154018082558091505060019003906000526020600020906004020160009091909190915060008201518160000160006101000a81548173ffffffffffffffffffffffffffffffffffffffff021916908373ffffffffffffffffffffffffffffffffffffffff1602179055506020820151816001015560408201518160020160006101000a81548160ff0219169083151502179055506060820151816003015550508273ffffffffffffffffffffffffffffffffffffffff16813373ffffffffffffffffffffffffffffffffffffffff167f941bd0ada49d76f3ef7a5ec4d0f0aa4b60eabdf543214a83b699526fe0a97568856040516113f09190611fd0565b60405180910390a4505050565b8360011515600260008373ffffffffffffffffffffffffffffffffffffffff1673ffffffffffffffffffffffffffffffffffffffff16815260200190815260200160002060009054906101000a900460ff1615151415611492576040517f08c379a000000000000000000000000000000000000000000000000000000000815260040161148990611e50565b60405180910390fd5b83600360008773ffffffffffffffffffffffffffffffffffffffff1673ffffffffffffffffffffffffffffffffffffffff1681526020019081526020016000206000600281106114e5576114e4612337565b5b0160006101000a81548173ffffffffffffffffffffffffffffffffffffffff021916908373ffffffffffffffffffffffffffffffffffffffff16021790555082600360008773ffffffffffffffffffffffffffffffffffffffff1673ffffffffffffffffffffffffffffffffffffffff16815260200190815260200160002060016002811061157757611576612337565b5b0160006101000a81548173ffffffffffffffffffffffffffffffffffffffff021916908373ffffffffffffffffffffffffffffffffffffffff16021790555081600560008773ffffffffffffffffffffffffffffffffffffffff1673ffffffffffffffffffffffffffffffffffffffff168152602001908152602001600020819055506001600260008773ffffffffffffffffffffffffffffffffffffffff1673ffffffffffffffffffffffffffffffffffffffff16815260200190815260200160002060006101000a81548160ff0219169083151502179055506001600460008773ffffffffffffffffffffffffffffffffffffffff1673ffffffffffffffffffffffffffffffffffffffff16815260200190815260200160002060008673ffffffffffffffffffffffffffffffffffffffff1673ffffffffffffffffffffffffffffffffffffffff16815260200190815260200160002060006101000a81548160ff0219169083151502179055506001600460008773ffffffffffffffffffffffffffffffffffffffff1673ffffffffffffffffffffffffffffffffffffffff16815260200190815260200160002060008573ffffffffffffffffffffffffffffffffffffffff1673ffffffffffffffffffffffffffffffffffffffff16815260200190815260200160002060006101000a81548160ff0219169083151502179055505050505050565b82805461178f906121fe565b90600052602060002090601f0160209004810192826117b157600085556117f8565b82601f106117ca57805160ff19168380011785556117f8565b828001600101855582156117f8579182015b828111156117f75782518255916020019190600101906117dc565b5b5090506118059190611809565b5090565b5b8082111561182257600081600090555060010161180a565b5090565b600061183961183484612039565b612014565b9050828152602081018484840111156118555761185461239a565b5b6118608482856121bc565b509392505050565b600081359050611877816125f5565b92915050565b600082601f83011261189257611891612395565b5b81356118a2848260208601611826565b91505092915050565b6000813590506118ba8161260c565b92915050565b600080604083850312156118d7576118d66123a4565b5b60006118e585828601611868565b92505060206118f685828601611868565b9150509250929050565b6000806000806080858703121561191a576119196123a4565b5b600061192887828801611868565b945050602061193987828801611868565b935050604061194a87828801611868565b925050606061195b878288016118ab565b91505092959194509250565b6000806040838503121561197e5761197d6123a4565b5b600061198c85828601611868565b925050602083013567ffffffffffffffff8111156119ad576119ac61239f565b5b6119b98582860161187d565b9150509250929050565b600080604083850312156119da576119d96123a4565b5b60006119e885828601611868565b92505060206119f9858286016118ab565b9150509250929050565b60008060408385031215611a1a57611a196123a4565b5b6000611a28858286016118ab565b9250506020611a3985828601611868565b9150509250929050565b6000611a4f8383611d5d565b60808301905092915050565b611a6481612174565b82525050565b6000611a758261208f565b611a7f81856120b2565b9350611a8a8361206a565b8060005b83811015611abb578151611aa28882611a43565b9750611aad836120a5565b925050600181019050611a8e565b5085935050505092915050565b611ad181612186565b82525050565b611ae081612186565b82525050565b6000611af18261209a565b611afb81856120df565b9350611b0b8185602086016121cb565b80840191505092915050565b60008154611b24816121fe565b611b2e81866120df565b94506001821660008114611b495760018114611b5a57611b8d565b60ff19831686528186019350611b8d565b611b638561207a565b60005b83811015611b8557815481890152600182019150602081019050611b66565b838801955050505b50505092915050565b6000611ba36023836120ce565b9150611bae826123ba565b604082019050919050565b6000611bc6601e836120ce565b9150611bd182612409565b602082019050919050565b6000611be9600d836120ce565b9150611bf482612432565b602082019050919050565b6000611c0c6012836120ce565b9150611c178261245b565b602082019050919050565b6000611c2f6023836120ce565b9150611c3a82612484565b604082019050919050565b6000611c526014836120ce565b9150611c5d826124d3565b602082019050919050565b6000611c75600e836120ce565b9150611c80826124fc565b602082019050919050565b6000611c986010836120ce565b9150611ca382612525565b602082019050919050565b6000611cbb6012836120ce565b9150611cc68261254e565b602082019050919050565b6000611cde6000836120c3565b9150611ce982612577565b600082019050919050565b6000611d016007836120ce565b9150611d0c8261257a565b602082019050919050565b6000611d246020836120ce565b9150611d2f826125a3565b602082019050919050565b6000611d476015836120ce565b9150611d52826125cc565b602082019050919050565b608082016000820151611d736000850182611a5b565b506020820151611d866020850182611db2565b506040820151611d996040850182611ac8565b506060820151611dac6060850182611db2565b50505050565b611dbb816121b2565b82525050565b611dca816121b2565b82525050565b6000611ddc8284611ae6565b915081905092915050565b6000611df38284611b17565b915081905092915050565b6000611e0982611cd1565b9150819050919050565b60006020820190508181036000830152611e2d8184611a6a565b905092915050565b6000602082019050611e4a6000830184611ad7565b92915050565b60006020820190508181036000830152611e6981611b96565b9050919050565b60006020820190508181036000830152611e8981611bb9565b9050919050565b60006020820190508181036000830152611ea981611bdc565b9050919050565b60006020820190508181036000830152611ec981611bff565b9050919050565b60006020820190508181036000830152611ee981611c22565b9050919050565b60006020820190508181036000830152611f0981611c45565b9050919050565b60006020820190508181036000830152611f2981611c68565b9050919050565b60006020820190508181036000830152611f4981611c8b565b9050919050565b60006020820190508181036000830152611f6981611cae565b9050919050565b60006020820190508181036000830152611f8981611cf4565b9050919050565b60006020820190508181036000830152611fa981611d17565b9050919050565b60006020820190508181036000830152611fc981611d3a565b9050919050565b6000602082019050611fe56000830184611dc1565b92915050565b60006040820190506120006000830185611dc1565b61200d6020830184611dc1565b9392505050565b600061201e61202f565b905061202a8282612230565b919050565b6000604051905090565b600067ffffffffffffffff82111561205457612053612366565b5b61205d826123a9565b9050602081019050919050565b6000819050602082019050919050565b60008190508160005260206000209050919050565b600081519050919050565b600081519050919050565b6000602082019050919050565b600082825260208201905092915050565b600081905092915050565b600082825260208201905092915050565b600081905092915050565b60006120f5826121b2565b9150612100836121b2565b9250827fffffffffffffffffffffffffffffffffffffffffffffffffffffffffffffffff03821115612135576121346122aa565b5b828201905092915050565b600061214b826121b2565b9150612156836121b2565b925082821015612169576121686122aa565b5b828203905092915050565b600061217f82612192565b9050919050565b60008115159050919050565b600073ffffffffffffffffffffffffffffffffffffffff82169050919050565b6000819050919050565b82818337600083830152505050565b60005b838110156121e95780820151818401526020810190506121ce565b838111156121f8576000848401525b50505050565b6000600282049050600182168061221657607f821691505b6020821081141561222a576122296122d9565b5b50919050565b612239826123a9565b810181811067ffffffffffffffff8211171561225857612257612366565b5b80604052505050565b600061226c826121b2565b91507fffffffffffffffffffffffffffffffffffffffffffffffffffffffffffffffff82141561229f5761229e6122aa565b5b600182019050919050565b7f4e487b7100000000000000000000000000000000000000000000000000000000600052601160045260246000fd5b7f4e487b7100000000000000000000000000000000000000000000000000000000600052602260045260246000fd5b7f4e487b7100000000000000000000000000000000000000000000000000000000600052603160045260246000fd5b7f4e487b7100000000000000000000000000000000000000000000000000000000600052603260045260246000fd5b7f4e487b7100000000000000000000000000000000000000000000000000000000600052604160045260246000fd5b600080fd5b600080fd5b600080fd5b600080fd5b6000601f19601f8301169050919050565b7f4f776e65727320616c72656164792065786973747320666f722074686973207560008201527f7365720000000000000000000000000000000000000000000000000000000000602082015250565b7f54686973205472616e73616374696f6e20446f65736e27742065786973740000600082015250565b7f747820646f6e7420657869737400000000000000000000000000000000000000600082015250565b7f5573657220616c72656164792065786973740000000000000000000000000000600082015250565b7f54686973207472616e736163746f6e20697320616c726561647920657865637560008201527f7465640000000000000000000000000000000000000000000000000000000000602082015250565b7f70617373776f7264206e6f7420636f7272656374000000000000000000000000600082015250565b7f55736572206e6f74206578697374000000000000000000000000000000000000600082015250565b7f63616e6e6f742045786563757465212100000000000000000000000000000000600082015250565b7f5472616e73616374696f6e206661696c65720000000000000000000000000000600082015250565b50565b7f496e76616c696400000000000000000000000000000000000000000000000000600082015250565b7f7472616e73616374696f6e20697320616c726561647920636f6e6669726d6564600082015250565b7f596f7520646f6e27742068617665206163657373730000000000000000000000600082015250565b6125fe81612174565b811461260957600080fd5b50565b612615816121b2565b811461262057600080fd5b5056fea26469706673582212205d409a2e0de5f04455fbb4019a732b8de97a4811b5d94ccbca98c22c7ac0e85464736f6c63430008060033",
  "linkReferences": {},
  "deployedLinkReferences": {}
}