{
  "_format": "hh-sol-artifact-1",
  "contractName": "Parental",
  "sourceName": "contracts/Parental.sol",
  "abi": [
    {
      "anonymous": false,
      "inputs": [
        {
          "indexed": true,
          "internalType": "address",
          "name": "owner",
          "type": "address"
        },
        {
          "indexed": true,
          "internalType": "uint256",
          "name": "txIndex",
          "type": "uint256"
        }
      ],
      "name": "ConfirmTrans",
      "type": "event"
    },
    {
      "anonymous": false,
      "inputs": [
        {
          "indexed": true,
          "internalType": "address",
          "name": "sender",
          "type": "address"
        },
        {
          "indexed": false,
          "internalType": "uint256",
          "name": "amount",
          "type": "uint256"
        },
        {
          "indexed": false,
          "internalType": "uint256",
          "name": "balance",
          "type": "uint256"
        }
      ],
      "name": "Deposit",
      "type": "event"
    },
    {
      "anonymous": false,
      "inputs": [
        {
          "indexed": true,
          "internalType": "address",
          "name": "owner",
          "type": "address"
        },
        {
          "indexed": true,
          "internalType": "uint256",
          "name": "txIndex",
          "type": "uint256"
        }
      ],
      "name": "ExecuteTrans",
      "type": "event"
    },
    {
      "anonymous": false,
      "inputs": [
        {
          "indexed": true,
          "internalType": "address",
          "name": "owner",
          "type": "address"
        },
        {
          "indexed": true,
          "internalType": "uint256",
          "name": "txIndex",
          "type": "uint256"
        }
      ],
      "name": "RevokeTrans",
      "type": "event"
    },
    {
      "anonymous": false,
      "inputs": [
        {
          "indexed": false,
          "internalType": "bool",
          "name": "status",
          "type": "bool"
        }
      ],
      "name": "Signup",
      "type": "event"
    },
    {
      "anonymous": false,
      "inputs": [
        {
          "indexed": true,
          "internalType": "address",
          "name": "owner",
          "type": "address"
        },
        {
          "indexed": true,
          "internalType": "uint256",
          "name": "txIndex",
          "type": "uint256"
        },
        {
          "indexed": true,
          "internalType": "address",
          "name": "to",
          "type": "address"
        },
        {
          "indexed": false,
          "internalType": "uint256",
          "name": "value",
          "type": "uint256"
        }
      ],
      "name": "SubmitTrans",
      "type": "event"
    },
    {
      "anonymous": false,
      "inputs": [
        {
          "indexed": false,
          "internalType": "bool",
          "name": "status",
          "type": "bool"
        }
      ],
      "name": "login",
      "type": "event"
    },
    {
      "inputs": [
        {
          "internalType": "address",
          "name": "a",
          "type": "address"
        },
        {
          "internalType": "uint256",
          "name": "_txIndex",
          "type": "uint256"
        }
      ],
      "name": "ConfirmTransactions",
      "outputs": [],
      "stateMutability": "nonpayable",
      "type": "function"
    },
    {
      "inputs": [],
      "name": "DepositEth",
      "outputs": [],
      "stateMutability": "payable",
      "type": "function"
    },
    {
      "inputs": [
        {
          "internalType": "address",
          "name": "a",
          "type": "address"
        },
        {
          "internalType": "uint256",
          "name": "_txIndex",
          "type": "uint256"
        }
      ],
      "name": "ExecuteTransaction",
      "outputs": [],
      "stateMutability": "nonpayable",
      "type": "function"
    },
    {
      "inputs": [
        {
          "internalType": "address",
          "name": "a",
          "type": "address"
        },
        {
          "internalType": "string",
          "name": "password",
          "type": "string"
        }
      ],
      "name": "Login",
      "outputs": [],
      "stateMutability": "nonpayable",
      "type": "function"
    },
    {
      "inputs": [
        {
          "internalType": "address",
          "name": "a",
          "type": "address"
        },
        {
          "internalType": "string",
          "name": "SetPassword",
          "type": "string"
        }
      ],
      "name": "SignUp",
      "outputs": [],
      "stateMutability": "nonpayable",
      "type": "function"
    },
    {
      "inputs": [
        {
          "internalType": "address",
          "name": "_to",
          "type": "address"
        },
        {
          "internalType": "uint256",
          "name": "_value",
          "type": "uint256"
        }
      ],
      "name": "SubmitTransaction",
      "outputs": [],
      "stateMutability": "nonpayable",
      "type": "function"
    },
    {
      "inputs": [],
      "name": "getBalance",
      "outputs": [
        {
          "internalType": "uint256",
          "name": "",
          "type": "uint256"
        }
      ],
      "stateMutability": "view",
      "type": "function"
    },
    {
      "inputs": [],
      "name": "getTransaction",
      "outputs": [
        {
          "components": [
            {
              "internalType": "address",
              "name": "to",
              "type": "address"
            },
            {
              "internalType": "uint256",
              "name": "value",
              "type": "uint256"
            },
            {
              "internalType": "bool",
              "name": "executed",
              "type": "bool"
            },
            {
              "internalType": "uint256",
              "name": "noOfvotes",
              "type": "uint256"
            }
          ],
          "internalType": "struct Parental.Transaction[]",
          "name": "",
          "type": "tuple[]"
        }
      ],
      "stateMutability": "view",
      "type": "function"
    },
    {
      "inputs": [],
      "name": "getTransactionCount",
      "outputs": [
        {
          "internalType": "uint256",
          "name": "",
          "type": "uint256"
        }
      ],
      "stateMutability": "view",
      "type": "function"
    },
    {
      "inputs": [
        {
          "internalType": "uint256",
          "name": "",
          "type": "uint256"
        },
        {
          "internalType": "address",
          "name": "",
          "type": "address"
        }
      ],
      "name": "isConfirmed",
      "outputs": [
        {
          "internalType": "bool",
          "name": "",
          "type": "bool"
        }
      ],
      "stateMutability": "view",
      "type": "function"
    },
    {
      "inputs": [
        {
          "internalType": "address",
          "name": "",
          "type": "address"
        },
        {
          "internalType": "address",
          "name": "",
          "type": "address"
        }
      ],
      "name": "isOwner",
      "outputs": [
        {
          "internalType": "bool",
          "name": "",
          "type": "bool"
        }
      ],
      "stateMutability": "view",
      "type": "function"
    },
    {
      "inputs": [
        {
          "internalType": "address",
          "name": "a",
          "type": "address"
        },
        {
          "internalType": "uint256",
          "name": "index",
          "type": "uint256"
        }
      ],
      "name": "removeTx",
      "outputs": [],
      "stateMutability": "nonpayable",
      "type": "function"
    },
    {
      "inputs": [
        {
          "internalType": "address",
          "name": "a",
          "type": "address"
        },
        {
          "internalType": "address",
          "name": "father",
          "type": "address"
        },
        {
          "internalType": "address",
          "name": "mother",
          "type": "address"
        },
        {
          "internalType": "uint256",
          "name": "vote",
          "type": "uint256"
        }
      ],
      "name": "setOwners",
      "outputs": [],
      "stateMutability": "nonpayable",
      "type": "function"
    },
    {
      "stateMutability": "payable",
      "type": "receive"
    }
  ],
  "bytecode": "0x608060405234801561001057600080fd5b50612621806100206000396000f3fe6080604052600436106100c65760003560e01c80637372f9ac1161007f578063985429c611610059578063985429c614610252578063a4b4e42b1461027b578063c82555d6146102a4578063e6d66a5f146102cd576100cd565b80637372f9ac146101af5780637ddc02d4146101d857806380f59a6514610215576100cd565b806312065fe0146100d25780632e7700f0146100fd57806330b792a0146101285780635445f3181461015157806359705f811461017a5780635b37930b146101a5576100cd565b366100cd57005b600080fd5b3480156100de57600080fd5b506100e76102f6565b6040516100f49190611f98565b60405180910390f35b34801561010957600080fd5b506101126102fe565b60405161011f9190611f98565b60405180910390f35b34801561013457600080fd5b5061014f600480360381019061014a919061198b565b61030b565b005b34801561015d57600080fd5b506101786004803603810190610173919061198b565b610628565b005b34801561018657600080fd5b5061018f61099c565b60405161019c9190611ddb565b60405180910390f35b6101ad610a80565b005b3480156101bb57600080fd5b506101d660048036038101906101d1919061198b565b610b7f565b005b3480156101e457600080fd5b506101ff60048036038101906101fa9190611888565b610ef7565b60405161020c9190611dfd565b60405180910390f35b34801561022157600080fd5b5061023c600480360381019061023791906119cb565b610f26565b6040516102499190611dfd565b60405180910390f35b34801561025e57600080fd5b506102796004803603810190610274919061192f565b610f55565b005b34801561028757600080fd5b506102a2600480360381019061029d919061192f565b6110d1565b005b3480156102b057600080fd5b506102cb60048036038101906102c6919061198b565b61126d565b005b3480156102d957600080fd5b506102f460048036038101906102ef91906118c8565b6113c5565b005b600047905090565b6000600780549050905090565b81600460008273ffffffffffffffffffffffffffffffffffffffff1673ffffffffffffffffffffffffffffffffffffffff16815260200190815260200160002060003373ffffffffffffffffffffffffffffffffffffffff1673ffffffffffffffffffffffffffffffffffffffff16815260200190815260200160002060009054906101000a900460ff166103d5576040517f08c379a00000000000000000000000000000000000000000000000000000000081526004016103cc90611f78565b60405180910390fd5b81600780549050811061041d576040517f08c379a000000000000000000000000000000000000000000000000000000000815260040161041490611e38565b60405180910390fd5b8260078181548110610432576104316122ff565b5b906000526020600020906004020160020160009054906101000a900460ff1615610491576040517f08c379a000000000000000000000000000000000000000000000000000000000815260040161048890611e98565b60405180910390fd5b836006600082815260200190815260200160002060003373ffffffffffffffffffffffffffffffffffffffff1673ffffffffffffffffffffffffffffffffffffffff16815260200190815260200160002060009054906101000a900460ff1615610530576040517f08c379a000000000000000000000000000000000000000000000000000000000815260040161052790611f58565b60405180910390fd5b600060078681548110610546576105456122ff565b5b90600052602060002090600402019050600181600301600082825461056b91906120b2565b9250508190555060016006600088815260200190815260200160002060003373ffffffffffffffffffffffffffffffffffffffff1673ffffffffffffffffffffffffffffffffffffffff16815260200190815260200160002060006101000a81548160ff021916908315150217905550853373ffffffffffffffffffffffffffffffffffffffff167f6f315954c385fbab81f9695ad5677985ae06e1d323c5d9883f7502303a41f92260405160405180910390a350505050505050565b81600460008273ffffffffffffffffffffffffffffffffffffffff1673ffffffffffffffffffffffffffffffffffffffff16815260200190815260200160002060003373ffffffffffffffffffffffffffffffffffffffff1673ffffffffffffffffffffffffffffffffffffffff16815260200190815260200160002060009054906101000a900460ff166106f2576040517f08c379a00000000000000000000000000000000000000000000000000000000081526004016106e990611f78565b60405180910390fd5b81600780549050811061073a576040517f08c379a000000000000000000000000000000000000000000000000000000000815260040161073190611e38565b60405180910390fd5b826007818154811061074f5761074e6122ff565b5b906000526020600020906004020160020160009054906101000a900460ff16156107ae576040517f08c379a00000000000000000000000000000000000000000000000000000000081526004016107a590611e98565b60405180910390fd5b6000600785815481106107c4576107c36122ff565b5b90600052602060002090600402019050600560008773ffffffffffffffffffffffffffffffffffffffff1673ffffffffffffffffffffffffffffffffffffffff168152602001908152602001600020548160030154101561085a576040517f08c379a000000000000000000000000000000000000000000000000000000000815260040161085190611ef8565b60405180910390fd5b60018160020160006101000a81548160ff02191690831515021790555060008160000160009054906101000a900473ffffffffffffffffffffffffffffffffffffffff1673ffffffffffffffffffffffffffffffffffffffff16614e2083600101546040516108c890611dc6565b600060405180830381858888f193505050503d8060008114610906576040519150601f19603f3d011682016040523d82523d6000602084013e61090b565b606091505b505090508061094f576040517f08c379a000000000000000000000000000000000000000000000000000000000815260040161094690611f18565b60405180910390fd5b853373ffffffffffffffffffffffffffffffffffffffff167f7b97296edc75a36a401f12e0613cb8b04d49b77d790dcf26a9b3a53c9ef24c9360405160405180910390a350505050505050565b60606007805480602002602001604051908101604052809291908181526020016000905b82821015610a7757838290600052602060002090600402016040518060800160405290816000820160009054906101000a900473ffffffffffffffffffffffffffffffffffffffff1673ffffffffffffffffffffffffffffffffffffffff1673ffffffffffffffffffffffffffffffffffffffff168152602001600182015481526020016002820160009054906101000a900460ff16151515158152602001600382015481525050815260200190600101906109c0565b50505050905090565b60003073ffffffffffffffffffffffffffffffffffffffff1634604051610aa690611dc6565b60006040518083038185875af1925050503d8060008114610ae3576040519150601f19603f3d011682016040523d82523d6000602084013e610ae8565b606091505b5050905080610b2c576040517f08c379a0000000000000000000000000000000000000000000000000000000008152600401610b2390611f38565b60405180910390fd5b3373ffffffffffffffffffffffffffffffffffffffff167f90890809c654f11d6e72a28fa60149770a0d11ec6c92319d6ceb2bb0a4ea1a153447604051610b74929190611fb3565b60405180910390a250565b81600460008273ffffffffffffffffffffffffffffffffffffffff1673ffffffffffffffffffffffffffffffffffffffff16815260200190815260200160002060003373ffffffffffffffffffffffffffffffffffffffff1673ffffffffffffffffffffffffffffffffffffffff16815260200190815260200160002060009054906101000a900460ff16610c49576040517f08c379a0000000000000000000000000000000000000000000000000000000008152600401610c4090611f78565b60405180910390fd5b816007805490508110610c91576040517f08c379a0000000000000000000000000000000000000000000000000000000008152600401610c8890611e38565b60405180910390fd5b8260078181548110610ca657610ca56122ff565b5b906000526020600020906004020160020160009054906101000a900460ff1615610d05576040517f08c379a0000000000000000000000000000000000000000000000000000000008152600401610cfc90611e98565b60405180910390fd5b6007805490508410610d4c576040517f08c379a0000000000000000000000000000000000000000000000000000000008152600401610d4390611e58565b60405180910390fd5b60008490505b6001600780549050610d649190612108565b811015610e79576007600182610d7a91906120b2565b81548110610d8b57610d8a6122ff565b5b906000526020600020906004020160078281548110610dad57610dac6122ff565b5b90600052602060002090600402016000820160009054906101000a900473ffffffffffffffffffffffffffffffffffffffff168160000160006101000a81548173ffffffffffffffffffffffffffffffffffffffff021916908373ffffffffffffffffffffffffffffffffffffffff160217905550600182015481600101556002820160009054906101000a900460ff168160020160006101000a81548160ff021916908315150217905550600382015481600301559050508080610e7190612229565b915050610d52565b506007805480610e8c57610e8b6122d0565b5b6001900381819060005260206000209060040201600080820160006101000a81549073ffffffffffffffffffffffffffffffffffffffff021916905560018201600090556002820160006101000a81549060ff02191690556003820160009055505090555050505050565b60046020528160005260406000206020528060005260406000206000915091509054906101000a900460ff1681565b60066020528160005260406000206020528060005260406000206000915091509054906101000a900460ff1681565b81600115156000808373ffffffffffffffffffffffffffffffffffffffff1673ffffffffffffffffffffffffffffffffffffffff16815260200190815260200160002060009054906101000a900460ff1615151415610fe9576040517f08c379a0000000000000000000000000000000000000000000000000000000008152600401610fe090611e78565b60405180910390fd5b60016000808573ffffffffffffffffffffffffffffffffffffffff1673ffffffffffffffffffffffffffffffffffffffff16815260200190815260200160002060006101000a81548160ff02191690831515021790555081600160008573ffffffffffffffffffffffffffffffffffffffff1673ffffffffffffffffffffffffffffffffffffffff168152602001908152602001600020908051906020019061109392919061174b565b507f344a6a83cccc69a3772eb48583a40999c35838df481ff16196244f8f35de3c7b60016040516110c49190611dfd565b60405180910390a1505050565b81600115156000808373ffffffffffffffffffffffffffffffffffffffff1673ffffffffffffffffffffffffffffffffffffffff16815260200190815260200160002060009054906101000a900460ff16151514611164576040517f08c379a000000000000000000000000000000000000000000000000000000000815260040161115b90611ed8565b60405180910390fd5b600160008473ffffffffffffffffffffffffffffffffffffffff1673ffffffffffffffffffffffffffffffffffffffff1681526020019081526020016000206040516020016111b39190611daf565b60405160208183030381529060405280519060200120826040516020016111da9190611d98565b6040516020818303038152906040528051906020012014611230576040517f08c379a000000000000000000000000000000000000000000000000000000000815260040161122790611eb8565b60405180910390fd5b7f590dc88803dfdac1abf55b3e358e6b7a38e57fa1b784ddb5462e0500ae49cec460016040516112609190611dfd565b60405180910390a1505050565b60006007805490509050600760405180608001604052808573ffffffffffffffffffffffffffffffffffffffff1681526020018481526020016000151581526020016000815250908060018154018082558091505060019003906000526020600020906004020160009091909190915060008201518160000160006101000a81548173ffffffffffffffffffffffffffffffffffffffff021916908373ffffffffffffffffffffffffffffffffffffffff1602179055506020820151816001015560408201518160020160006101000a81548160ff0219169083151502179055506060820151816003015550508273ffffffffffffffffffffffffffffffffffffffff16813373ffffffffffffffffffffffffffffffffffffffff167f941bd0ada49d76f3ef7a5ec4d0f0aa4b60eabdf543214a83b699526fe0a97568856040516113b89190611f98565b60405180910390a4505050565b8360011515600260008373ffffffffffffffffffffffffffffffffffffffff1673ffffffffffffffffffffffffffffffffffffffff16815260200190815260200160002060009054906101000a900460ff161515141561145a576040517f08c379a000000000000000000000000000000000000000000000000000000000815260040161145190611e18565b60405180910390fd5b83600360008773ffffffffffffffffffffffffffffffffffffffff1673ffffffffffffffffffffffffffffffffffffffff1681526020019081526020016000206000600281106114ad576114ac6122ff565b5b0160006101000a81548173ffffffffffffffffffffffffffffffffffffffff021916908373ffffffffffffffffffffffffffffffffffffffff16021790555082600360008773ffffffffffffffffffffffffffffffffffffffff1673ffffffffffffffffffffffffffffffffffffffff16815260200190815260200160002060016002811061153f5761153e6122ff565b5b0160006101000a81548173ffffffffffffffffffffffffffffffffffffffff021916908373ffffffffffffffffffffffffffffffffffffffff16021790555081600560008773ffffffffffffffffffffffffffffffffffffffff1673ffffffffffffffffffffffffffffffffffffffff168152602001908152602001600020819055506001600260008773ffffffffffffffffffffffffffffffffffffffff1673ffffffffffffffffffffffffffffffffffffffff16815260200190815260200160002060006101000a81548160ff0219169083151502179055506001600460008773ffffffffffffffffffffffffffffffffffffffff1673ffffffffffffffffffffffffffffffffffffffff16815260200190815260200160002060008673ffffffffffffffffffffffffffffffffffffffff1673ffffffffffffffffffffffffffffffffffffffff16815260200190815260200160002060006101000a81548160ff0219169083151502179055506001600460008773ffffffffffffffffffffffffffffffffffffffff1673ffffffffffffffffffffffffffffffffffffffff16815260200190815260200160002060008573ffffffffffffffffffffffffffffffffffffffff1673ffffffffffffffffffffffffffffffffffffffff16815260200190815260200160002060006101000a81548160ff0219169083151502179055505050505050565b828054611757906121c6565b90600052602060002090601f01602090048101928261177957600085556117c0565b82601f1061179257805160ff19168380011785556117c0565b828001600101855582156117c0579182015b828111156117bf5782518255916020019190600101906117a4565b5b5090506117cd91906117d1565b5090565b5b808211156117ea5760008160009055506001016117d2565b5090565b60006118016117fc84612001565b611fdc565b90508281526020810184848401111561181d5761181c612362565b5b611828848285612184565b509392505050565b60008135905061183f816125bd565b92915050565b600082601f83011261185a5761185961235d565b5b813561186a8482602086016117ee565b91505092915050565b600081359050611882816125d4565b92915050565b6000806040838503121561189f5761189e61236c565b5b60006118ad85828601611830565b92505060206118be85828601611830565b9150509250929050565b600080600080608085870312156118e2576118e161236c565b5b60006118f087828801611830565b945050602061190187828801611830565b935050604061191287828801611830565b925050606061192387828801611873565b91505092959194509250565b600080604083850312156119465761194561236c565b5b600061195485828601611830565b925050602083013567ffffffffffffffff81111561197557611974612367565b5b61198185828601611845565b9150509250929050565b600080604083850312156119a2576119a161236c565b5b60006119b085828601611830565b92505060206119c185828601611873565b9150509250929050565b600080604083850312156119e2576119e161236c565b5b60006119f085828601611873565b9250506020611a0185828601611830565b9150509250929050565b6000611a178383611d25565b60808301905092915050565b611a2c8161213c565b82525050565b6000611a3d82612057565b611a47818561207a565b9350611a5283612032565b8060005b83811015611a83578151611a6a8882611a0b565b9750611a758361206d565b925050600181019050611a56565b5085935050505092915050565b611a998161214e565b82525050565b611aa88161214e565b82525050565b6000611ab982612062565b611ac381856120a7565b9350611ad3818560208601612193565b80840191505092915050565b60008154611aec816121c6565b611af681866120a7565b94506001821660008114611b115760018114611b2257611b55565b60ff19831686528186019350611b55565b611b2b85612042565b60005b83811015611b4d57815481890152600182019150602081019050611b2e565b838801955050505b50505092915050565b6000611b6b602383612096565b9150611b7682612382565b604082019050919050565b6000611b8e601e83612096565b9150611b99826123d1565b602082019050919050565b6000611bb1600d83612096565b9150611bbc826123fa565b602082019050919050565b6000611bd4601283612096565b9150611bdf82612423565b602082019050919050565b6000611bf7602383612096565b9150611c028261244c565b604082019050919050565b6000611c1a601483612096565b9150611c258261249b565b602082019050919050565b6000611c3d600e83612096565b9150611c48826124c4565b602082019050919050565b6000611c60601083612096565b9150611c6b826124ed565b602082019050919050565b6000611c83601283612096565b9150611c8e82612516565b602082019050919050565b6000611ca660008361208b565b9150611cb18261253f565b600082019050919050565b6000611cc9600783612096565b9150611cd482612542565b602082019050919050565b6000611cec602083612096565b9150611cf78261256b565b602082019050919050565b6000611d0f601583612096565b9150611d1a82612594565b602082019050919050565b608082016000820151611d3b6000850182611a23565b506020820151611d4e6020850182611d7a565b506040820151611d616040850182611a90565b506060820151611d746060850182611d7a565b50505050565b611d838161217a565b82525050565b611d928161217a565b82525050565b6000611da48284611aae565b915081905092915050565b6000611dbb8284611adf565b915081905092915050565b6000611dd182611c99565b9150819050919050565b60006020820190508181036000830152611df58184611a32565b905092915050565b6000602082019050611e126000830184611a9f565b92915050565b60006020820190508181036000830152611e3181611b5e565b9050919050565b60006020820190508181036000830152611e5181611b81565b9050919050565b60006020820190508181036000830152611e7181611ba4565b9050919050565b60006020820190508181036000830152611e9181611bc7565b9050919050565b60006020820190508181036000830152611eb181611bea565b9050919050565b60006020820190508181036000830152611ed181611c0d565b9050919050565b60006020820190508181036000830152611ef181611c30565b9050919050565b60006020820190508181036000830152611f1181611c53565b9050919050565b60006020820190508181036000830152611f3181611c76565b9050919050565b60006020820190508181036000830152611f5181611cbc565b9050919050565b60006020820190508181036000830152611f7181611cdf565b9050919050565b60006020820190508181036000830152611f9181611d02565b9050919050565b6000602082019050611fad6000830184611d89565b92915050565b6000604082019050611fc86000830185611d89565b611fd56020830184611d89565b9392505050565b6000611fe6611ff7565b9050611ff282826121f8565b919050565b6000604051905090565b600067ffffffffffffffff82111561201c5761201b61232e565b5b61202582612371565b9050602081019050919050565b6000819050602082019050919050565b60008190508160005260206000209050919050565b600081519050919050565b600081519050919050565b6000602082019050919050565b600082825260208201905092915050565b600081905092915050565b600082825260208201905092915050565b600081905092915050565b60006120bd8261217a565b91506120c88361217a565b9250827fffffffffffffffffffffffffffffffffffffffffffffffffffffffffffffffff038211156120fd576120fc612272565b5b828201905092915050565b60006121138261217a565b915061211e8361217a565b92508282101561213157612130612272565b5b828203905092915050565b60006121478261215a565b9050919050565b60008115159050919050565b600073ffffffffffffffffffffffffffffffffffffffff82169050919050565b6000819050919050565b82818337600083830152505050565b60005b838110156121b1578082015181840152602081019050612196565b838111156121c0576000848401525b50505050565b600060028204905060018216806121de57607f821691505b602082108114156121f2576121f16122a1565b5b50919050565b61220182612371565b810181811067ffffffffffffffff821117156122205761221f61232e565b5b80604052505050565b60006122348261217a565b91507fffffffffffffffffffffffffffffffffffffffffffffffffffffffffffffffff82141561226757612266612272565b5b600182019050919050565b7f4e487b7100000000000000000000000000000000000000000000000000000000600052601160045260246000fd5b7f4e487b7100000000000000000000000000000000000000000000000000000000600052602260045260246000fd5b7f4e487b7100000000000000000000000000000000000000000000000000000000600052603160045260246000fd5b7f4e487b7100000000000000000000000000000000000000000000000000000000600052603260045260246000fd5b7f4e487b7100000000000000000000000000000000000000000000000000000000600052604160045260246000fd5b600080fd5b600080fd5b600080fd5b600080fd5b6000601f19601f8301169050919050565b7f4f776e65727320616c72656164792065786973747320666f722074686973207560008201527f7365720000000000000000000000000000000000000000000000000000000000602082015250565b7f54686973205472616e73616374696f6e20446f65736e27742065786973740000600082015250565b7f747820646f6e7420657869737400000000000000000000000000000000000000600082015250565b7f5573657220616c72656164792065786973740000000000000000000000000000600082015250565b7f54686973207472616e736163746f6e20697320616c726561647920657865637560008201527f7465640000000000000000000000000000000000000000000000000000000000602082015250565b7f70617373776f7264206e6f7420636f7272656374000000000000000000000000600082015250565b7f55736572206e6f74206578697374000000000000000000000000000000000000600082015250565b7f63616e6e6f742045786563757465212100000000000000000000000000000000600082015250565b7f5472616e73616374696f6e206661696c65720000000000000000000000000000600082015250565b50565b7f496e76616c696400000000000000000000000000000000000000000000000000600082015250565b7f7472616e73616374696f6e20697320616c726561647920636f6e6669726d6564600082015250565b7f596f7520646f6e27742068617665206163657373730000000000000000000000600082015250565b6125c68161213c565b81146125d157600080fd5b50565b6125dd8161217a565b81146125e857600080fd5b5056fea264697066735822122021b00d7592caee9abc6b4fa82fb9905c56c00ff6b381a7b851d94ea26ffc401c64736f6c63430008060033",
  "linkReferences": {},
  "deployedLinkReferences": {}
}