{
  "_format": "hh-sol-artifact-1",
  "contractName": "Parental",
  "sourceName": "contracts/Parental.sol",
  "abi": [
    {
      "inputs": [
        {
          "internalType": "address[]",
          "name": "_owner",
          "type": "address[]"
        },
        {
          "internalType": "uint256",
          "name": "_votes",
          "type": "uint256"
        }
      ],
      "stateMutability": "nonpayable",
      "type": "constructor"
    },
    {
      "anonymous": false,
      "inputs": [
        {
          "indexed": true,
          "internalType": "address",
          "name": "owner",
          "type": "address"
        },
        {
          "indexed": true,
          "internalType": "uint256",
          "name": "txIndex",
          "type": "uint256"
        }
      ],
      "name": "ConfirmTrans",
      "type": "event"
    },
    {
      "anonymous": false,
      "inputs": [
        {
          "indexed": true,
          "internalType": "address",
          "name": "sender",
          "type": "address"
        },
        {
          "indexed": false,
          "internalType": "uint256",
          "name": "amount",
          "type": "uint256"
        },
        {
          "indexed": false,
          "internalType": "uint256",
          "name": "balance",
          "type": "uint256"
        }
      ],
      "name": "Deposit",
      "type": "event"
    },
    {
      "anonymous": false,
      "inputs": [
        {
          "indexed": true,
          "internalType": "address",
          "name": "owner",
          "type": "address"
        },
        {
          "indexed": true,
          "internalType": "uint256",
          "name": "txIndex",
          "type": "uint256"
        }
      ],
      "name": "ExecuteTrans",
      "type": "event"
    },
    {
      "anonymous": false,
      "inputs": [
        {
          "indexed": true,
          "internalType": "address",
          "name": "owner",
          "type": "address"
        },
        {
          "indexed": true,
          "internalType": "uint256",
          "name": "txIndex",
          "type": "uint256"
        }
      ],
      "name": "RevokeTrans",
      "type": "event"
    },
    {
      "anonymous": false,
      "inputs": [
        {
          "indexed": true,
          "internalType": "address",
          "name": "owner",
          "type": "address"
        },
        {
          "indexed": true,
          "internalType": "uint256",
          "name": "txIndex",
          "type": "uint256"
        },
        {
          "indexed": true,
          "internalType": "address",
          "name": "to",
          "type": "address"
        },
        {
          "indexed": false,
          "internalType": "uint256",
          "name": "value",
          "type": "uint256"
        }
      ],
      "name": "SubmitTrans",
      "type": "event"
    },
    {
      "inputs": [
        {
          "internalType": "uint256",
          "name": "_txIndex",
          "type": "uint256"
        }
      ],
      "name": "ConfirmTransactions",
      "outputs": [],
      "stateMutability": "nonpayable",
      "type": "function"
    },
    {
      "inputs": [],
      "name": "DepositEth",
      "outputs": [],
      "stateMutability": "payable",
      "type": "function"
    },
    {
      "inputs": [
        {
          "internalType": "uint256",
          "name": "_txIndex",
          "type": "uint256"
        }
      ],
      "name": "ExecuteTransaction",
      "outputs": [],
      "stateMutability": "nonpayable",
      "type": "function"
    },
    {
      "inputs": [
        {
          "internalType": "address",
          "name": "_to",
          "type": "address"
        },
        {
          "internalType": "uint256",
          "name": "_value",
          "type": "uint256"
        }
      ],
      "name": "SubmitTransaction",
      "outputs": [],
      "stateMutability": "nonpayable",
      "type": "function"
    },
    {
      "inputs": [],
      "name": "getBalance",
      "outputs": [
        {
          "internalType": "uint256",
          "name": "",
          "type": "uint256"
        }
      ],
      "stateMutability": "view",
      "type": "function"
    },
    {
      "inputs": [],
      "name": "getTransaction",
      "outputs": [
        {
          "components": [
            {
              "internalType": "address",
              "name": "to",
              "type": "address"
            },
            {
              "internalType": "uint256",
              "name": "value",
              "type": "uint256"
            },
            {
              "internalType": "bool",
              "name": "executed",
              "type": "bool"
            },
            {
              "internalType": "uint256",
              "name": "noOfvotes",
              "type": "uint256"
            }
          ],
          "internalType": "struct Parental.Transaction[]",
          "name": "",
          "type": "tuple[]"
        }
      ],
      "stateMutability": "view",
      "type": "function"
    },
    {
      "inputs": [],
      "name": "getTransactionCount",
      "outputs": [
        {
          "internalType": "uint256",
          "name": "",
          "type": "uint256"
        }
      ],
      "stateMutability": "view",
      "type": "function"
    },
    {
      "inputs": [],
      "name": "getowners",
      "outputs": [
        {
          "internalType": "address[]",
          "name": "",
          "type": "address[]"
        }
      ],
      "stateMutability": "view",
      "type": "function"
    },
    {
      "inputs": [
        {
          "internalType": "uint256",
          "name": "",
          "type": "uint256"
        },
        {
          "internalType": "address",
          "name": "",
          "type": "address"
        }
      ],
      "name": "isConfirmed",
      "outputs": [
        {
          "internalType": "bool",
          "name": "",
          "type": "bool"
        }
      ],
      "stateMutability": "view",
      "type": "function"
    },
    {
      "inputs": [
        {
          "internalType": "address",
          "name": "",
          "type": "address"
        }
      ],
      "name": "isOwner",
      "outputs": [
        {
          "internalType": "bool",
          "name": "",
          "type": "bool"
        }
      ],
      "stateMutability": "view",
      "type": "function"
    },
    {
      "inputs": [
        {
          "internalType": "uint256",
          "name": "",
          "type": "uint256"
        }
      ],
      "name": "owners",
      "outputs": [
        {
          "internalType": "address",
          "name": "",
          "type": "address"
        }
      ],
      "stateMutability": "view",
      "type": "function"
    },
    {
      "inputs": [
        {
          "internalType": "uint256",
          "name": "index",
          "type": "uint256"
        }
      ],
      "name": "removeTx",
      "outputs": [],
      "stateMutability": "nonpayable",
      "type": "function"
    },
    {
      "inputs": [],
      "name": "votes",
      "outputs": [
        {
          "internalType": "uint256",
          "name": "",
          "type": "uint256"
        }
      ],
      "stateMutability": "view",
      "type": "function"
    },
    {
      "stateMutability": "payable",
      "type": "receive"
    }
  ],
  "bytecode": "0x60806040523480156200001157600080fd5b506040516200227f3803806200227f8339818101604052810190620000379190620003c1565b60008251116200007e576040517f08c379a0000000000000000000000000000000000000000000000000000000008152600401620000759062000507565b60405180910390fd5b60008111801562000090575081518111155b620000d2576040517f08c379a0000000000000000000000000000000000000000000000000000000008152600401620000c99062000529565b60405180910390fd5b60005b8251811015620002d5576000838281518110620000f757620000f6620006a5565b5b60200260200101519050600073ffffffffffffffffffffffffffffffffffffffff168173ffffffffffffffffffffffffffffffffffffffff16141562000174576040517f08c379a00000000000000000000000000000000000000000000000000000000081526004016200016b90620004c3565b60405180910390fd5b600160008273ffffffffffffffffffffffffffffffffffffffff1673ffffffffffffffffffffffffffffffffffffffff16815260200190815260200160002060009054906101000a900460ff161562000204576040517f08c379a0000000000000000000000000000000000000000000000000000000008152600401620001fb90620004e5565b60405180910390fd5b60018060008373ffffffffffffffffffffffffffffffffffffffff1673ffffffffffffffffffffffffffffffffffffffff16815260200190815260200160002060006101000a81548160ff0219169083151502179055506000819080600181540180825580915050600190039060005260206000200160009091909190916101000a81548173ffffffffffffffffffffffffffffffffffffffff021916908373ffffffffffffffffffffffffffffffffffffffff160217905550508080620002cc9062000628565b915050620000d5565b5080600281905550505062000826565b6000620002fc620002f68462000574565b6200054b565b9050808382526020820190508285602086028201111562000322576200032162000708565b5b60005b858110156200035657816200033b888262000360565b84526020840193506020830192505060018101905062000325565b5050509392505050565b6000815190506200037181620007f2565b92915050565b600082601f8301126200038f576200038e62000703565b5b8151620003a1848260208601620002e5565b91505092915050565b600081519050620003bb816200080c565b92915050565b60008060408385031215620003db57620003da62000712565b5b600083015167ffffffffffffffff811115620003fc57620003fb6200070d565b5b6200040a8582860162000377565b92505060206200041d85828601620003aa565b9150509250929050565b600062000436600d83620005a3565b9150620004438262000728565b602082019050919050565b60006200045d601083620005a3565b91506200046a8262000751565b602082019050919050565b600062000484601e83620005a3565b915062000491826200077a565b602082019050919050565b6000620004ab602883620005a3565b9150620004b882620007a3565b604082019050919050565b60006020820190508181036000830152620004de8162000427565b9050919050565b6000602082019050818103600083015262000500816200044e565b9050919050565b60006020820190508181036000830152620005228162000475565b9050919050565b6000602082019050818103600083015262000544816200049c565b9050919050565b6000620005576200056a565b9050620005658282620005f2565b919050565b6000604051905090565b600067ffffffffffffffff821115620005925762000591620006d4565b5b602082029050602081019050919050565b600082825260208201905092915050565b6000620005c182620005c8565b9050919050565b600073ffffffffffffffffffffffffffffffffffffffff82169050919050565b6000819050919050565b620005fd8262000717565b810181811067ffffffffffffffff821117156200061f576200061e620006d4565b5b80604052505050565b60006200063582620005e8565b91507fffffffffffffffffffffffffffffffffffffffffffffffffffffffffffffffff8214156200066b576200066a62000676565b5b600182019050919050565b7f4e487b7100000000000000000000000000000000000000000000000000000000600052601160045260246000fd5b7f4e487b7100000000000000000000000000000000000000000000000000000000600052603260045260246000fd5b7f4e487b7100000000000000000000000000000000000000000000000000000000600052604160045260246000fd5b600080fd5b600080fd5b600080fd5b600080fd5b6000601f19601f8301169050919050565b7f496e76616c6964204f776e657200000000000000000000000000000000000000600082015250565b7f6f776e6572206e6f7420756e6971756500000000000000000000000000000000600082015250565b7f6174206c65617374206f6e65206f776e65722069732072657175697265640000600082015250565b7f696e76616c6964206e756d626572206f6620726571756972656420636f6e666960008201527f726d6174696f6e73000000000000000000000000000000000000000000000000602082015250565b620007fd81620005b4565b81146200080957600080fd5b50565b6200081781620005e8565b81146200082357600080fd5b50565b611a4980620008366000396000f3fe6080604052600436106100c65760003560e01c80635d845dcb1161007f578063b7fa9c6e11610059578063b7fa9c6e14610266578063c82555d61461028f578063e168c3ec146102b8578063e26fe63f146102e3576100cd565b80635d845dcb146101d757806380f59a6514610200578063ae30dc3f1461023d576100cd565b8063025e7c27146100d257806312065fe01461010f5780632e7700f01461013a5780632f54bf6e1461016557806359705f81146101a25780635b37930b146101cd576100cd565b366100cd57005b600080fd5b3480156100de57600080fd5b506100f960048036038101906100f49190611123565b61030e565b604051610106919061147b565b60405180910390f35b34801561011b57600080fd5b5061012461034d565b60405161013191906115f5565b60405180910390f35b34801561014657600080fd5b5061014f610355565b60405161015c91906115f5565b60405180910390f35b34801561017157600080fd5b5061018c600480360381019061018791906110b6565b610362565b60405161019991906114da565b60405180910390f35b3480156101ae57600080fd5b506101b7610382565b6040516101c491906114b8565b60405180910390f35b6101d5610466565b005b3480156101e357600080fd5b506101fe60048036038101906101f99190611123565b610565565b005b34801561020c57600080fd5b5061022760048036038101906102229190611150565b610842565b60405161023491906114da565b60405180910390f35b34801561024957600080fd5b50610264600480360381019061025f9190611123565b610871565b005b34801561027257600080fd5b5061028d60048036038101906102889190611123565b610b68565b005b34801561029b57600080fd5b506102b660048036038101906102b191906110e3565b610ea0565b005b3480156102c457600080fd5b506102cd610ff8565b6040516102da91906115f5565b60405180910390f35b3480156102ef57600080fd5b506102f8610ffe565b6040516103059190611496565b60405180910390f35b6000818154811061031e57600080fd5b906000526020600020016000915054906101000a900473ffffffffffffffffffffffffffffffffffffffff1681565b600047905090565b6000600480549050905090565b60016020528060005260406000206000915054906101000a900460ff1681565b60606004805480602002602001604051908101604052809291908181526020016000905b8282101561045d57838290600052602060002090600402016040518060800160405290816000820160009054906101000a900473ffffffffffffffffffffffffffffffffffffffff1673ffffffffffffffffffffffffffffffffffffffff1673ffffffffffffffffffffffffffffffffffffffff168152602001600182015481526020016002820160009054906101000a900460ff16151515158152602001600382015481525050815260200190600101906103a6565b50505050905090565b60003073ffffffffffffffffffffffffffffffffffffffff163460405161048c90611466565b60006040518083038185875af1925050503d80600081146104c9576040519150601f19603f3d011682016040523d82523d6000602084013e6104ce565b606091505b5050905080610512576040517f08c379a000000000000000000000000000000000000000000000000000000000815260040161050990611595565b60405180910390fd5b3373ffffffffffffffffffffffffffffffffffffffff167f90890809c654f11d6e72a28fa60149770a0d11ec6c92319d6ceb2bb0a4ea1a15344760405161055a929190611610565b60405180910390a250565b600160003373ffffffffffffffffffffffffffffffffffffffff1673ffffffffffffffffffffffffffffffffffffffff16815260200190815260200160002060009054906101000a900460ff166105f1576040517f08c379a00000000000000000000000000000000000000000000000000000000081526004016105e8906115d5565b60405180910390fd5b806004805490508110610639576040517f08c379a0000000000000000000000000000000000000000000000000000000008152600401610630906114f5565b60405180910390fd5b816004818154811061064e5761064d611840565b5b906000526020600020906004020160020160009054906101000a900460ff16156106ad576040517f08c379a00000000000000000000000000000000000000000000000000000000081526004016106a490611535565b60405180910390fd5b826003600082815260200190815260200160002060003373ffffffffffffffffffffffffffffffffffffffff1673ffffffffffffffffffffffffffffffffffffffff16815260200190815260200160002060009054906101000a900460ff161561074c576040517f08c379a0000000000000000000000000000000000000000000000000000000008152600401610743906115b5565b60405180910390fd5b60006004858154811061076257610761611840565b5b90600052602060002090600402019050600181600301600082825461078791906116c7565b9250508190555060016003600087815260200190815260200160002060003373ffffffffffffffffffffffffffffffffffffffff1673ffffffffffffffffffffffffffffffffffffffff16815260200190815260200160002060006101000a81548160ff021916908315150217905550843373ffffffffffffffffffffffffffffffffffffffff167f6f315954c385fbab81f9695ad5677985ae06e1d323c5d9883f7502303a41f92260405160405180910390a35050505050565b60036020528160005260406000206020528060005260406000206000915091509054906101000a900460ff1681565b600160003373ffffffffffffffffffffffffffffffffffffffff1673ffffffffffffffffffffffffffffffffffffffff16815260200190815260200160002060009054906101000a900460ff166108fd576040517f08c379a00000000000000000000000000000000000000000000000000000000081526004016108f4906115d5565b60405180910390fd5b806004805490508110610945576040517f08c379a000000000000000000000000000000000000000000000000000000000815260040161093c906114f5565b60405180910390fd5b816004818154811061095a57610959611840565b5b906000526020600020906004020160020160009054906101000a900460ff16156109b9576040517f08c379a00000000000000000000000000000000000000000000000000000000081526004016109b090611535565b60405180910390fd5b6000600484815481106109cf576109ce611840565b5b9060005260206000209060040201905060025481600301541015610a28576040517f08c379a0000000000000000000000000000000000000000000000000000000008152600401610a1f90611555565b60405180910390fd5b60018160020160006101000a81548160ff02191690831515021790555060008160000160009054906101000a900473ffffffffffffffffffffffffffffffffffffffff1673ffffffffffffffffffffffffffffffffffffffff16614e208360010154604051610a9690611466565b600060405180830381858888f193505050503d8060008114610ad4576040519150601f19603f3d011682016040523d82523d6000602084013e610ad9565b606091505b5050905080610b1d576040517f08c379a0000000000000000000000000000000000000000000000000000000008152600401610b1490611575565b60405180910390fd5b843373ffffffffffffffffffffffffffffffffffffffff167f7b97296edc75a36a401f12e0613cb8b04d49b77d790dcf26a9b3a53c9ef24c9360405160405180910390a35050505050565b600160003373ffffffffffffffffffffffffffffffffffffffff1673ffffffffffffffffffffffffffffffffffffffff16815260200190815260200160002060009054906101000a900460ff16610bf4576040517f08c379a0000000000000000000000000000000000000000000000000000000008152600401610beb906115d5565b60405180910390fd5b806004805490508110610c3c576040517f08c379a0000000000000000000000000000000000000000000000000000000008152600401610c33906114f5565b60405180910390fd5b8160048181548110610c5157610c50611840565b5b906000526020600020906004020160020160009054906101000a900460ff1615610cb0576040517f08c379a0000000000000000000000000000000000000000000000000000000008152600401610ca790611535565b60405180910390fd5b6004805490508310610cf7576040517f08c379a0000000000000000000000000000000000000000000000000000000008152600401610cee90611515565b60405180910390fd5b60008390505b6001600480549050610d0f919061171d565b811015610e24576004600182610d2591906116c7565b81548110610d3657610d35611840565b5b906000526020600020906004020160048281548110610d5857610d57611840565b5b90600052602060002090600402016000820160009054906101000a900473ffffffffffffffffffffffffffffffffffffffff168160000160006101000a81548173ffffffffffffffffffffffffffffffffffffffff021916908373ffffffffffffffffffffffffffffffffffffffff160217905550600182015481600101556002820160009054906101000a900460ff168160020160006101000a81548160ff021916908315150217905550600382015481600301559050508080610e1c90611799565b915050610cfd565b506004805480610e3757610e36611811565b5b6001900381819060005260206000209060040201600080820160006101000a81549073ffffffffffffffffffffffffffffffffffffffff021916905560018201600090556002820160006101000a81549060ff0219169055600382016000905550509055505050565b60006004805490509050600460405180608001604052808573ffffffffffffffffffffffffffffffffffffffff1681526020018481526020016000151581526020016000815250908060018154018082558091505060019003906000526020600020906004020160009091909190915060008201518160000160006101000a81548173ffffffffffffffffffffffffffffffffffffffff021916908373ffffffffffffffffffffffffffffffffffffffff1602179055506020820151816001015560408201518160020160006101000a81548160ff0219169083151502179055506060820151816003015550508273ffffffffffffffffffffffffffffffffffffffff16813373ffffffffffffffffffffffffffffffffffffffff167f941bd0ada49d76f3ef7a5ec4d0f0aa4b60eabdf543214a83b699526fe0a9756885604051610feb91906115f5565b60405180910390a4505050565b60025481565b6060600080548060200260200160405190810160405280929190818152602001828054801561108257602002820191906000526020600020905b8160009054906101000a900473ffffffffffffffffffffffffffffffffffffffff1673ffffffffffffffffffffffffffffffffffffffff1681526020019060010190808311611038575b5050505050905090565b60008135905061109b816119e5565b92915050565b6000813590506110b0816119fc565b92915050565b6000602082840312156110cc576110cb61186f565b5b60006110da8482850161108c565b91505092915050565b600080604083850312156110fa576110f961186f565b5b60006111088582860161108c565b9250506020611119858286016110a1565b9150509250929050565b6000602082840312156111395761113861186f565b5b6000611147848285016110a1565b91505092915050565b600080604083850312156111675761116661186f565b5b6000611175858286016110a1565b92505060206111868582860161108c565b9150509250929050565b600061119c83836111c0565b60208301905092915050565b60006111b483836113f3565b60808301905092915050565b6111c981611751565b82525050565b6111d881611751565b82525050565b60006111e982611659565b6111f38185611689565b93506111fe83611639565b8060005b8381101561122f5781516112168882611190565b97506112218361166f565b925050600181019050611202565b5085935050505092915050565b600061124782611664565b611251818561169a565b935061125c83611649565b8060005b8381101561128d57815161127488826111a8565b975061127f8361167c565b925050600181019050611260565b5085935050505092915050565b6112a381611763565b82525050565b6112b281611763565b82525050565b60006112c5601e836116b6565b91506112d082611874565b602082019050919050565b60006112e8600d836116b6565b91506112f38261189d565b602082019050919050565b600061130b6023836116b6565b9150611316826118c6565b604082019050919050565b600061132e6010836116b6565b915061133982611915565b602082019050919050565b60006113516012836116b6565b915061135c8261193e565b602082019050919050565b60006113746000836116ab565b915061137f82611967565b600082019050919050565b60006113976007836116b6565b91506113a28261196a565b602082019050919050565b60006113ba6020836116b6565b91506113c582611993565b602082019050919050565b60006113dd6015836116b6565b91506113e8826119bc565b602082019050919050565b60808201600082015161140960008501826111c0565b50602082015161141c6020850182611448565b50604082015161142f604085018261129a565b5060608201516114426060850182611448565b50505050565b6114518161178f565b82525050565b6114608161178f565b82525050565b600061147182611367565b9150819050919050565b600060208201905061149060008301846111cf565b92915050565b600060208201905081810360008301526114b081846111de565b905092915050565b600060208201905081810360008301526114d2818461123c565b905092915050565b60006020820190506114ef60008301846112a9565b92915050565b6000602082019050818103600083015261150e816112b8565b9050919050565b6000602082019050818103600083015261152e816112db565b9050919050565b6000602082019050818103600083015261154e816112fe565b9050919050565b6000602082019050818103600083015261156e81611321565b9050919050565b6000602082019050818103600083015261158e81611344565b9050919050565b600060208201905081810360008301526115ae8161138a565b9050919050565b600060208201905081810360008301526115ce816113ad565b9050919050565b600060208201905081810360008301526115ee816113d0565b9050919050565b600060208201905061160a6000830184611457565b92915050565b60006040820190506116256000830185611457565b6116326020830184611457565b9392505050565b6000819050602082019050919050565b6000819050602082019050919050565b600081519050919050565b600081519050919050565b6000602082019050919050565b6000602082019050919050565b600082825260208201905092915050565b600082825260208201905092915050565b600081905092915050565b600082825260208201905092915050565b60006116d28261178f565b91506116dd8361178f565b9250827fffffffffffffffffffffffffffffffffffffffffffffffffffffffffffffffff03821115611712576117116117e2565b5b828201905092915050565b60006117288261178f565b91506117338361178f565b925082821015611746576117456117e2565b5b828203905092915050565b600061175c8261176f565b9050919050565b60008115159050919050565b600073ffffffffffffffffffffffffffffffffffffffff82169050919050565b6000819050919050565b60006117a48261178f565b91507fffffffffffffffffffffffffffffffffffffffffffffffffffffffffffffffff8214156117d7576117d66117e2565b5b600182019050919050565b7f4e487b7100000000000000000000000000000000000000000000000000000000600052601160045260246000fd5b7f4e487b7100000000000000000000000000000000000000000000000000000000600052603160045260246000fd5b7f4e487b7100000000000000000000000000000000000000000000000000000000600052603260045260246000fd5b600080fd5b7f54686973205472616e73616374696f6e20446f65736e27742065786973740000600082015250565b7f747820646f6e7420657869737400000000000000000000000000000000000000600082015250565b7f54686973207472616e736163746f6e20697320616c726561647920657865637560008201527f7465640000000000000000000000000000000000000000000000000000000000602082015250565b7f63616e6e6f742045786563757465212100000000000000000000000000000000600082015250565b7f5472616e73616374696f6e206661696c65720000000000000000000000000000600082015250565b50565b7f496e76616c696400000000000000000000000000000000000000000000000000600082015250565b7f7472616e73616374696f6e20697320616c726561647920636f6e6669726d6564600082015250565b7f596f7520646f6e27742068617665206163657373730000000000000000000000600082015250565b6119ee81611751565b81146119f957600080fd5b50565b611a058161178f565b8114611a1057600080fd5b5056fea2646970667358221220706f65806efa153b2c2b513c263c707a22cc15f03c7c70778cfe812131a710af64736f6c63430008060033",
  "linkReferences": {},
  "deployedLinkReferences": {}
}