{
  "_format": "hh-sol-artifact-1",
  "contractName": "Parental",
  "sourceName": "contracts/Parental.sol",
  "abi": [
    {
      "inputs": [
        {
          "internalType": "address",
          "name": "parent",
          "type": "address"
        }
      ],
      "stateMutability": "nonpayable",
      "type": "constructor"
    },
    {
      "anonymous": false,
      "inputs": [
        {
          "indexed": true,
          "internalType": "address",
          "name": "parent",
          "type": "address"
        },
        {
          "indexed": true,
          "internalType": "uint256",
          "name": "txIndex",
          "type": "uint256"
        }
      ],
      "name": "ConfirmTrans",
      "type": "event"
    },
    {
      "anonymous": false,
      "inputs": [
        {
          "indexed": true,
          "internalType": "address",
          "name": "sender",
          "type": "address"
        },
        {
          "indexed": false,
          "internalType": "uint256",
          "name": "amount",
          "type": "uint256"
        }
      ],
      "name": "Deposit",
      "type": "event"
    },
    {
      "anonymous": false,
      "inputs": [
        {
          "indexed": true,
          "internalType": "address",
          "name": "parent",
          "type": "address"
        },
        {
          "indexed": true,
          "internalType": "uint256",
          "name": "txIndex",
          "type": "uint256"
        }
      ],
      "name": "ExecuteTrans",
      "type": "event"
    },
    {
      "anonymous": false,
      "inputs": [
        {
          "indexed": true,
          "internalType": "address",
          "name": "parent",
          "type": "address"
        },
        {
          "indexed": true,
          "internalType": "uint256",
          "name": "txIndex",
          "type": "uint256"
        }
      ],
      "name": "RemoveTrans",
      "type": "event"
    },
    {
      "anonymous": false,
      "inputs": [
        {
          "indexed": true,
          "internalType": "address",
          "name": "parent",
          "type": "address"
        },
        {
          "indexed": true,
          "internalType": "uint256",
          "name": "txIndex",
          "type": "uint256"
        }
      ],
      "name": "RevokeTrans",
      "type": "event"
    },
    {
      "anonymous": false,
      "inputs": [
        {
          "indexed": true,
          "internalType": "bytes32",
          "name": "role",
          "type": "bytes32"
        },
        {
          "indexed": true,
          "internalType": "bytes32",
          "name": "previousAdminRole",
          "type": "bytes32"
        },
        {
          "indexed": true,
          "internalType": "bytes32",
          "name": "newAdminRole",
          "type": "bytes32"
        }
      ],
      "name": "RoleAdminChanged",
      "type": "event"
    },
    {
      "anonymous": false,
      "inputs": [
        {
          "indexed": true,
          "internalType": "bytes32",
          "name": "role",
          "type": "bytes32"
        },
        {
          "indexed": true,
          "internalType": "address",
          "name": "account",
          "type": "address"
        },
        {
          "indexed": true,
          "internalType": "address",
          "name": "sender",
          "type": "address"
        }
      ],
      "name": "RoleGranted",
      "type": "event"
    },
    {
      "anonymous": false,
      "inputs": [
        {
          "indexed": true,
          "internalType": "bytes32",
          "name": "role",
          "type": "bytes32"
        },
        {
          "indexed": true,
          "internalType": "address",
          "name": "account",
          "type": "address"
        },
        {
          "indexed": true,
          "internalType": "address",
          "name": "sender",
          "type": "address"
        }
      ],
      "name": "RoleRevoked",
      "type": "event"
    },
    {
      "anonymous": false,
      "inputs": [
        {
          "indexed": true,
          "internalType": "address",
          "name": "parent",
          "type": "address"
        },
        {
          "indexed": true,
          "internalType": "uint256",
          "name": "txIndex",
          "type": "uint256"
        },
        {
          "indexed": true,
          "internalType": "address",
          "name": "to",
          "type": "address"
        },
        {
          "indexed": false,
          "internalType": "uint256",
          "name": "value",
          "type": "uint256"
        }
      ],
      "name": "SubmitTrans",
      "type": "event"
    },
    {
      "anonymous": false,
      "inputs": [
        {
          "indexed": false,
          "internalType": "address",
          "name": "child",
          "type": "address"
        },
        {
          "indexed": false,
          "internalType": "address",
          "name": "adder",
          "type": "address"
        }
      ],
      "name": "addchild",
      "type": "event"
    },
    {
      "anonymous": false,
      "inputs": [
        {
          "indexed": false,
          "internalType": "address",
          "name": "parent",
          "type": "address"
        },
        {
          "indexed": false,
          "internalType": "address",
          "name": "adder",
          "type": "address"
        }
      ],
      "name": "addparent",
      "type": "event"
    },
    {
      "inputs": [],
      "name": "CHILD_ROLE",
      "outputs": [
        {
          "internalType": "bytes32",
          "name": "",
          "type": "bytes32"
        }
      ],
      "stateMutability": "view",
      "type": "function"
    },
    {
      "inputs": [
        {
          "internalType": "uint256",
          "name": "_txIndex",
          "type": "uint256"
        }
      ],
      "name": "ConfirmTransactions",
      "outputs": [],
      "stateMutability": "nonpayable",
      "type": "function"
    },
    {
      "inputs": [],
      "name": "DEFAULT_ADMIN_ROLE",
      "outputs": [
        {
          "internalType": "bytes32",
          "name": "",
          "type": "bytes32"
        }
      ],
      "stateMutability": "view",
      "type": "function"
    },
    {
      "inputs": [],
      "name": "DepositEth",
      "outputs": [],
      "stateMutability": "payable",
      "type": "function"
    },
    {
      "inputs": [
        {
          "internalType": "uint256",
          "name": "_txIndex",
          "type": "uint256"
        }
      ],
      "name": "ExecuteTransaction",
      "outputs": [],
      "stateMutability": "nonpayable",
      "type": "function"
    },
    {
      "inputs": [],
      "name": "PARENT_ROLE",
      "outputs": [
        {
          "internalType": "bytes32",
          "name": "",
          "type": "bytes32"
        }
      ],
      "stateMutability": "view",
      "type": "function"
    },
    {
      "inputs": [
        {
          "internalType": "address",
          "name": "_to",
          "type": "address"
        },
        {
          "internalType": "uint256",
          "name": "_value",
          "type": "uint256"
        },
        {
          "internalType": "string",
          "name": "msg1",
          "type": "string"
        }
      ],
      "name": "SubmitTransaction",
      "outputs": [],
      "stateMutability": "nonpayable",
      "type": "function"
    },
    {
      "inputs": [
        {
          "internalType": "address",
          "name": "child",
          "type": "address"
        }
      ],
      "name": "addChild",
      "outputs": [],
      "stateMutability": "nonpayable",
      "type": "function"
    },
    {
      "inputs": [
        {
          "internalType": "address",
          "name": "parent",
          "type": "address"
        }
      ],
      "name": "addParent",
      "outputs": [],
      "stateMutability": "nonpayable",
      "type": "function"
    },
    {
      "inputs": [],
      "name": "getBalance",
      "outputs": [
        {
          "internalType": "uint256",
          "name": "",
          "type": "uint256"
        }
      ],
      "stateMutability": "view",
      "type": "function"
    },
    {
      "inputs": [],
      "name": "getChildren",
      "outputs": [
        {
          "internalType": "address[]",
          "name": "",
          "type": "address[]"
        }
      ],
      "stateMutability": "view",
      "type": "function"
    },
    {
      "inputs": [],
      "name": "getParents",
      "outputs": [
        {
          "internalType": "address[]",
          "name": "",
          "type": "address[]"
        }
      ],
      "stateMutability": "view",
      "type": "function"
    },
    {
      "inputs": [
        {
          "internalType": "bytes32",
          "name": "role",
          "type": "bytes32"
        }
      ],
      "name": "getRoleAdmin",
      "outputs": [
        {
          "internalType": "bytes32",
          "name": "",
          "type": "bytes32"
        }
      ],
      "stateMutability": "view",
      "type": "function"
    },
    {
      "inputs": [],
      "name": "getTransaction",
      "outputs": [
        {
          "components": [
            {
              "internalType": "address",
              "name": "from",
              "type": "address"
            },
            {
              "internalType": "address",
              "name": "to",
              "type": "address"
            },
            {
              "internalType": "uint256",
              "name": "value",
              "type": "uint256"
            },
            {
              "internalType": "bool",
              "name": "executed",
              "type": "bool"
            },
            {
              "internalType": "uint256",
              "name": "noOfvotes",
              "type": "uint256"
            },
            {
              "internalType": "string",
              "name": "message",
              "type": "string"
            },
            {
              "internalType": "uint256",
              "name": "totalVotes",
              "type": "uint256"
            }
          ],
          "internalType": "struct Parental.Transaction[]",
          "name": "",
          "type": "tuple[]"
        }
      ],
      "stateMutability": "view",
      "type": "function"
    },
    {
      "inputs": [],
      "name": "getTransactionCount",
      "outputs": [
        {
          "internalType": "uint256",
          "name": "",
          "type": "uint256"
        }
      ],
      "stateMutability": "view",
      "type": "function"
    },
    {
      "inputs": [
        {
          "internalType": "bytes32",
          "name": "role",
          "type": "bytes32"
        },
        {
          "internalType": "address",
          "name": "account",
          "type": "address"
        }
      ],
      "name": "grantRole",
      "outputs": [],
      "stateMutability": "nonpayable",
      "type": "function"
    },
    {
      "inputs": [
        {
          "internalType": "bytes32",
          "name": "role",
          "type": "bytes32"
        },
        {
          "internalType": "address",
          "name": "account",
          "type": "address"
        }
      ],
      "name": "hasRole",
      "outputs": [
        {
          "internalType": "bool",
          "name": "",
          "type": "bool"
        }
      ],
      "stateMutability": "view",
      "type": "function"
    },
    {
      "inputs": [
        {
          "internalType": "uint256",
          "name": "",
          "type": "uint256"
        },
        {
          "internalType": "address",
          "name": "",
          "type": "address"
        }
      ],
      "name": "isConfirmed",
      "outputs": [
        {
          "internalType": "bool",
          "name": "",
          "type": "bool"
        }
      ],
      "stateMutability": "view",
      "type": "function"
    },
    {
      "inputs": [
        {
          "internalType": "address",
          "name": "user",
          "type": "address"
        }
      ],
      "name": "isUser",
      "outputs": [
        {
          "internalType": "bool",
          "name": "",
          "type": "bool"
        }
      ],
      "stateMutability": "view",
      "type": "function"
    },
    {
      "inputs": [
        {
          "internalType": "uint256",
          "name": "index",
          "type": "uint256"
        }
      ],
      "name": "removeTx",
      "outputs": [],
      "stateMutability": "nonpayable",
      "type": "function"
    },
    {
      "inputs": [
        {
          "internalType": "bytes32",
          "name": "role",
          "type": "bytes32"
        },
        {
          "internalType": "address",
          "name": "account",
          "type": "address"
        }
      ],
      "name": "renounceRole",
      "outputs": [],
      "stateMutability": "nonpayable",
      "type": "function"
    },
    {
      "inputs": [
        {
          "internalType": "bytes32",
          "name": "role",
          "type": "bytes32"
        },
        {
          "internalType": "address",
          "name": "account",
          "type": "address"
        }
      ],
      "name": "revokeRole",
      "outputs": [],
      "stateMutability": "nonpayable",
      "type": "function"
    },
    {
      "inputs": [
        {
          "internalType": "bytes4",
          "name": "interfaceId",
          "type": "bytes4"
        }
      ],
      "name": "supportsInterface",
      "outputs": [
        {
          "internalType": "bool",
          "name": "",
          "type": "bool"
        }
      ],
      "stateMutability": "view",
      "type": "function"
    },
    {
      "inputs": [
        {
          "internalType": "uint256",
          "name": "",
          "type": "uint256"
        }
      ],
      "name": "transactions",
      "outputs": [
        {
          "internalType": "address",
          "name": "from",
          "type": "address"
        },
        {
          "internalType": "address",
          "name": "to",
          "type": "address"
        },
        {
          "internalType": "uint256",
          "name": "value",
          "type": "uint256"
        },
        {
          "internalType": "bool",
          "name": "executed",
          "type": "bool"
        },
        {
          "internalType": "uint256",
          "name": "noOfvotes",
          "type": "uint256"
        },
        {
          "internalType": "string",
          "name": "message",
          "type": "string"
        },
        {
          "internalType": "uint256",
          "name": "totalVotes",
          "type": "uint256"
        }
      ],
      "stateMutability": "view",
      "type": "function"
    },
    {
      "inputs": [],
      "name": "votes",
      "outputs": [
        {
          "internalType": "uint256",
          "name": "",
          "type": "uint256"
        }
      ],
      "stateMutability": "view",
      "type": "function"
    },
    {
      "stateMutability": "payable",
      "type": "receive"
    }
  ],
  "bytecode": "0x60806040523480156200001157600080fd5b5060405162003b8038038062003b80833981810160405281019062000037919062000255565b6001819080600181540180825580915050600190039060005260206000200160009091909190916101000a81548173ffffffffffffffffffffffffffffffffffffffff021916908373ffffffffffffffffffffffffffffffffffffffff160217905550620000cc7f69f954bacb30026c76d33aa93eeaa3ee996e69e6170d10c3495fe7a1b5a82d7182620000db60201b60201c565b600160038190555050620002da565b620000ed8282620001cc60201b60201c565b620001c857600160008084815260200190815260200160002060000160008373ffffffffffffffffffffffffffffffffffffffff1673ffffffffffffffffffffffffffffffffffffffff16815260200190815260200160002060006101000a81548160ff0219169083151502179055506200016d6200023660201b60201c565b73ffffffffffffffffffffffffffffffffffffffff168173ffffffffffffffffffffffffffffffffffffffff16837f2f8788117e7eff1d82e926ec794901d17c78024a50270940304540a733656f0d60405160405180910390a45b5050565b600080600084815260200190815260200160002060000160008373ffffffffffffffffffffffffffffffffffffffff1673ffffffffffffffffffffffffffffffffffffffff16815260200190815260200160002060009054906101000a900460ff16905092915050565b600033905090565b6000815190506200024f81620002c0565b92915050565b6000602082840312156200026e576200026d620002bb565b5b60006200027e848285016200023e565b91505092915050565b600062000294826200029b565b9050919050565b600073ffffffffffffffffffffffffffffffffffffffff82169050919050565b600080fd5b620002cb8162000287565b8114620002d757600080fd5b50565b61389680620002ea6000396000f3fe60806040526004361061016a5760003560e01c80635d845dcb116100d1578063ae30dc3f1161008a578063dd6133b511610064578063dd6133b51461053e578063e168c3ec14610569578063eb841c8514610594578063f264a669146105bd57610171565b8063ae30dc3f146104c3578063b7fa9c6e146104ec578063d547741f1461051557610171565b80635d845dcb1461038957806380f59a65146103b257806391d14854146103ef5780639ace38c21461042c578063a217fddf1461046f578063acf36e531461049a57610171565b80632f2ff15d116101235780632f2ff15d1461029a57806336568abe146102c35780634209fff1146102ec5780634892e8e81461032957806359705f81146103545780635b37930b1461037f57610171565b806301ffc9a71461017657806312065fe0146101b35780631eee993a146101de578063200c781114610207578063248a9ca3146102325780632e7700f01461026f57610171565b3661017157005b600080fd5b34801561018257600080fd5b5061019d600480360381019061019891906126b9565b6105e8565b6040516101aa9190612da2565b60405180910390f35b3480156101bf57600080fd5b506101c8610662565b6040516101d59190612fda565b60405180910390f35b3480156101ea57600080fd5b50610205600480360381019061020091906125b0565b61066a565b005b34801561021357600080fd5b5061021c610838565b6040516102299190612dbd565b60405180910390f35b34801561023e57600080fd5b506102596004803603810190610254919061264c565b61085c565b6040516102669190612dbd565b60405180910390f35b34801561027b57600080fd5b5061028461087b565b6040516102919190612fda565b60405180910390f35b3480156102a657600080fd5b506102c160048036038101906102bc9190612679565b610888565b005b3480156102cf57600080fd5b506102ea60048036038101906102e59190612679565b6108a9565b005b3480156102f857600080fd5b50610313600480360381019061030e91906125b0565b61092c565b6040516103209190612da2565b60405180910390f35b34801561033557600080fd5b5061033e610990565b60405161034b9190612d5e565b60405180910390f35b34801561036057600080fd5b50610369610a1e565b6040516103769190612d80565b60405180910390f35b610387610bf4565b005b34801561039557600080fd5b506103b060048036038101906103ab91906126e6565b610c44565b005b3480156103be57600080fd5b506103d960048036038101906103d49190612713565b610f8b565b6040516103e69190612da2565b60405180910390f35b3480156103fb57600080fd5b5061041660048036038101906104119190612679565b610fba565b6040516104239190612da2565b60405180910390f35b34801561043857600080fd5b50610453600480360381019061044e91906126e6565b611024565b6040516104669796959493929190612ce8565b60405180910390f35b34801561047b57600080fd5b5061048461114b565b6040516104919190612dbd565b60405180910390f35b3480156104a657600080fd5b506104c160048036038101906104bc91906125b0565b611152565b005b3480156104cf57600080fd5b506104ea60048036038101906104e591906126e6565b611335565b005b3480156104f857600080fd5b50610513600480360381019061050e91906126e6565b6115fa565b005b34801561052157600080fd5b5061053c60048036038101906105379190612679565b611aec565b005b34801561054a57600080fd5b50610553611b0d565b6040516105609190612d5e565b60405180910390f35b34801561057557600080fd5b5061057e611b9b565b60405161058b9190612fda565b60405180910390f35b3480156105a057600080fd5b506105bb60048036038101906105b691906125dd565b611ba1565b005b3480156105c957600080fd5b506105d2611e38565b6040516105df9190612dbd565b60405180910390f35b60007f7965db0b000000000000000000000000000000000000000000000000000000007bffffffffffffffffffffffffffffffffffffffffffffffffffffffff1916827bffffffffffffffffffffffffffffffffffffffffffffffffffffffff1916148061065b575061065a82611e5c565b5b9050919050565b600047905090565b7f69f954bacb30026c76d33aa93eeaa3ee996e69e6170d10c3495fe7a1b5a82d7161069481611ec6565b600073ffffffffffffffffffffffffffffffffffffffff168273ffffffffffffffffffffffffffffffffffffffff161415610704576040517f08c379a00000000000000000000000000000000000000000000000000000000081526004016106fb90612f5a565b60405180910390fd5b61072e7f1259e29d9bae6d985de2aa88464bb648989ed5ed903940f680996ff13d0578bf83610fba565b1561076e576040517f08c379a000000000000000000000000000000000000000000000000000000000815260040161076590612e1a565b60405180910390fd5b6002829080600181540180825580915050600190039060005260206000200160009091909190916101000a81548173ffffffffffffffffffffffffffffffffffffffff021916908373ffffffffffffffffffffffffffffffffffffffff1602179055506107fb7f1259e29d9bae6d985de2aa88464bb648989ed5ed903940f680996ff13d0578bf83611eda565b7f9f99f6ef4833f7d0737cb74d2dea9db5ebe91d8e0f458d6fa4e7cfc55f9c0377823360405161082c929190612cbf565b60405180910390a15050565b7f69f954bacb30026c76d33aa93eeaa3ee996e69e6170d10c3495fe7a1b5a82d7181565b6000806000838152602001908152602001600020600101549050919050565b6000600580549050905090565b6108918261085c565b61089a81611ec6565b6108a48383611eda565b505050565b6108b1611fba565b73ffffffffffffffffffffffffffffffffffffffff168173ffffffffffffffffffffffffffffffffffffffff161461091e576040517f08c379a000000000000000000000000000000000000000000000000000000000815260040161091590612fba565b60405180910390fd5b6109288282611fc2565b5050565b60006109587f69f954bacb30026c76d33aa93eeaa3ee996e69e6170d10c3495fe7a1b5a82d7183610fba565b8061098957506109887f1259e29d9bae6d985de2aa88464bb648989ed5ed903940f680996ff13d0578bf83610fba565b5b9050919050565b60606002805480602002602001604051908101604052809291908181526020018280548015610a1457602002820191906000526020600020905b8160009054906101000a900473ffffffffffffffffffffffffffffffffffffffff1673ffffffffffffffffffffffffffffffffffffffff16815260200190600101908083116109ca575b5050505050905090565b60606005805480602002602001604051908101604052809291908181526020016000905b82821015610beb57838290600052602060002090600702016040518060e00160405290816000820160009054906101000a900473ffffffffffffffffffffffffffffffffffffffff1673ffffffffffffffffffffffffffffffffffffffff1673ffffffffffffffffffffffffffffffffffffffff1681526020016001820160009054906101000a900473ffffffffffffffffffffffffffffffffffffffff1673ffffffffffffffffffffffffffffffffffffffff1673ffffffffffffffffffffffffffffffffffffffff168152602001600282015481526020016003820160009054906101000a900460ff1615151515815260200160048201548152602001600582018054610b50906132ce565b80601f0160208091040260200160405190810160405280929190818152602001828054610b7c906132ce565b8015610bc95780601f10610b9e57610100808354040283529160200191610bc9565b820191906000526020600020905b815481529060010190602001808311610bac57829003601f168201915b5050505050815260200160068201548152505081526020019060010190610a42565b50505050905090565b3373ffffffffffffffffffffffffffffffffffffffff167fe1fffcc4923d04b559f4d29a8bfc6cda04eb5b0d3c460751c2402c5c5cc9109c34604051610c3a9190612fda565b60405180910390a2565b7f69f954bacb30026c76d33aa93eeaa3ee996e69e6170d10c3495fe7a1b5a82d71610c6e81611ec6565b600182610c7b91906131b0565b6005805490508110610cc2576040517f08c379a0000000000000000000000000000000000000000000000000000000008152600401610cb990612efa565b60405180910390fd5b600183610ccf91906131b0565b60058181548110610ce357610ce2613407565b5b906000526020600020906007020160030160009054906101000a900460ff1615610d42576040517f08c379a0000000000000000000000000000000000000000000000000000000008152600401610d3990612f3a565b60405180910390fd5b600184610d4f91906131b0565b6004600082815260200190815260200160002060003373ffffffffffffffffffffffffffffffffffffffff1673ffffffffffffffffffffffffffffffffffffffff16815260200190815260200160002060009054906101000a900460ff1615610ded576040517f08c379a0000000000000000000000000000000000000000000000000000000008152600401610de490612eda565b60405180910390fd5b60006005600187610dfe91906131b0565b81548110610e0f57610e0e613407565b5b90600052602060002090600702019050600354816004015410610e67576040517f08c379a0000000000000000000000000000000000000000000000000000000008152600401610e5e90612f1a565b60405180910390fd5b4781600201541115610eae576040517f08c379a0000000000000000000000000000000000000000000000000000000008152600401610ea590612f9a565b60405180910390fd5b6001816004016000828254610ec39190613100565b92505081905550600160046000600189610edd91906131b0565b815260200190815260200160002060003373ffffffffffffffffffffffffffffffffffffffff1673ffffffffffffffffffffffffffffffffffffffff16815260200190815260200160002060006101000a81548160ff021916908315150217905550853373ffffffffffffffffffffffffffffffffffffffff167f6f315954c385fbab81f9695ad5677985ae06e1d323c5d9883f7502303a41f92260405160405180910390a3505050505050565b60046020528160005260406000206020528060005260406000206000915091509054906101000a900460ff1681565b600080600084815260200190815260200160002060000160008373ffffffffffffffffffffffffffffffffffffffff1673ffffffffffffffffffffffffffffffffffffffff16815260200190815260200160002060009054906101000a900460ff16905092915050565b6005818154811061103457600080fd5b90600052602060002090600702016000915090508060000160009054906101000a900473ffffffffffffffffffffffffffffffffffffffff16908060010160009054906101000a900473ffffffffffffffffffffffffffffffffffffffff16908060020154908060030160009054906101000a900460ff16908060040154908060050180546110c2906132ce565b80601f01602080910402602001604051908101604052809291908181526020018280546110ee906132ce565b801561113b5780601f106111105761010080835404028352916020019161113b565b820191906000526020600020905b81548152906001019060200180831161111e57829003601f168201915b5050505050908060060154905087565b6000801b81565b7f69f954bacb30026c76d33aa93eeaa3ee996e69e6170d10c3495fe7a1b5a82d7161117c81611ec6565b600073ffffffffffffffffffffffffffffffffffffffff168273ffffffffffffffffffffffffffffffffffffffff1614156111ec576040517f08c379a00000000000000000000000000000000000000000000000000000000081526004016111e390612eba565b60405180910390fd5b6112167f69f954bacb30026c76d33aa93eeaa3ee996e69e6170d10c3495fe7a1b5a82d7183610fba565b15611256576040517f08c379a000000000000000000000000000000000000000000000000000000000815260040161124d90612e3a565b60405180910390fd5b6001829080600181540180825580915050600190039060005260206000200160009091909190916101000a81548173ffffffffffffffffffffffffffffffffffffffff021916908373ffffffffffffffffffffffffffffffffffffffff16021790555060016003546112c89190613100565b6003819055506112f87f69f954bacb30026c76d33aa93eeaa3ee996e69e6170d10c3495fe7a1b5a82d7183611eda565b7f89e06188aa7e0d6ccbf53723da8de978ddd0827ac0e3529c65d1f2cf938628ff8233604051611329929190612cbf565b60405180910390a15050565b7f69f954bacb30026c76d33aa93eeaa3ee996e69e6170d10c3495fe7a1b5a82d7161135f81611ec6565b60018261136c91906131b0565b60058054905081106113b3576040517f08c379a00000000000000000000000000000000000000000000000000000000081526004016113aa90612efa565b60405180910390fd5b6001836113c091906131b0565b600581815481106113d4576113d3613407565b5b906000526020600020906007020160030160009054906101000a900460ff1615611433576040517f08c379a000000000000000000000000000000000000000000000000000000000815260040161142a90612f3a565b60405180910390fd5b6000600560018661144491906131b0565b8154811061145557611454613407565b5b906000526020600020906007020190506003548160040154146114ad576040517f08c379a00000000000000000000000000000000000000000000000000000000081526004016114a490612e5a565b60405180910390fd5b60018160030160006101000a81548160ff02191690831515021790555060008160010160009054906101000a900473ffffffffffffffffffffffffffffffffffffffff1673ffffffffffffffffffffffffffffffffffffffff16614e20836002015460405161151b90612c70565b600060405180830381858888f193505050503d8060008114611559576040519150601f19603f3d011682016040523d82523d6000602084013e61155e565b606091505b50509050806115a2576040517f08c379a000000000000000000000000000000000000000000000000000000000815260040161159990612e7a565b60405180910390fd5b6001866115af91906131b0565b3373ffffffffffffffffffffffffffffffffffffffff167f7b97296edc75a36a401f12e0613cb8b04d49b77d790dcf26a9b3a53c9ef24c9360405160405180910390a3505050505050565b7f69f954bacb30026c76d33aa93eeaa3ee996e69e6170d10c3495fe7a1b5a82d7161162481611ec6565b60018261163191906131b0565b6005805490508110611678576040517f08c379a000000000000000000000000000000000000000000000000000000000815260040161166f90612efa565b60405180910390fd5b60018361168591906131b0565b6005818154811061169957611698613407565b5b906000526020600020906007020160030160009054906101000a900460ff16156116f8576040517f08c379a00000000000000000000000000000000000000000000000000000000081526004016116ef90612f3a565b60405180910390fd5b60058054905060018561170b91906131b0565b1061174b576040517f08c379a000000000000000000000000000000000000000000000000000000000815260040161174290612f7a565b60405180910390fd5b600060018561175a91906131b0565b90505b600160058054905061176f91906131b0565b8110156119155760056001826117859190613100565b8154811061179657611795613407565b5b9060005260206000209060070201600582815481106117b8576117b7613407565b5b90600052602060002090600702016000820160009054906101000a900473ffffffffffffffffffffffffffffffffffffffff168160000160006101000a81548173ffffffffffffffffffffffffffffffffffffffff021916908373ffffffffffffffffffffffffffffffffffffffff1602179055506001820160009054906101000a900473ffffffffffffffffffffffffffffffffffffffff168160010160006101000a81548173ffffffffffffffffffffffffffffffffffffffff021916908373ffffffffffffffffffffffffffffffffffffffff160217905550600282015481600201556003820160009054906101000a900460ff168160030160006101000a81548160ff0219169083151502179055506004820154816004015560058201816005019080546118e9906132ce565b6118f492919061237c565b5060068201548160060155905050808061190d90613331565b91505061175d565b506005805480611928576119276133d8565b5b6001900381819060005260206000209060070201600080820160006101000a81549073ffffffffffffffffffffffffffffffffffffffff02191690556001820160006101000a81549073ffffffffffffffffffffffffffffffffffffffff021916905560028201600090556003820160006101000a81549060ff021916905560048201600090556005820160006119bf9190612409565b60068201600090555050905560005b600180549050811015611aa1576000600460006001886119ee91906131b0565b8152602001908152602001600020600060018481548110611a1257611a11613407565b5b9060005260206000200160009054906101000a900473ffffffffffffffffffffffffffffffffffffffff1673ffffffffffffffffffffffffffffffffffffffff1673ffffffffffffffffffffffffffffffffffffffff16815260200190815260200160002060006101000a81548160ff0219169083151502179055508080611a9990613331565b9150506119ce565b50833373ffffffffffffffffffffffffffffffffffffffff167ff7d3316de78d34a2b6a24ed3da8db473c3349d4ef5f01d32ef556014d97fd89660405160405180910390a350505050565b611af58261085c565b611afe81611ec6565b611b088383611fc2565b505050565b60606001805480602002602001604051908101604052809291908181526020018280548015611b9157602002820191906000526020600020905b8160009054906101000a900473ffffffffffffffffffffffffffffffffffffffff1673ffffffffffffffffffffffffffffffffffffffff1681526020019060010190808311611b47575b5050505050905090565b60035481565b611bcb7f69f954bacb30026c76d33aa93eeaa3ee996e69e6170d10c3495fe7a1b5a82d7133610fba565b80611bfc5750611bfb7f1259e29d9bae6d985de2aa88464bb648989ed5ed903940f680996ff13d0578bf33610fba565b5b611c3b576040517f08c379a0000000000000000000000000000000000000000000000000000000008152600401611c3290612e9a565b60405180910390fd5b6000600580549050905060056040518060e001604052803373ffffffffffffffffffffffffffffffffffffffff1681526020018673ffffffffffffffffffffffffffffffffffffffff16815260200185815260200160001515815260200160008152602001848152602001600354815250908060018154018082558091505060019003906000526020600020906007020160009091909190915060008201518160000160006101000a81548173ffffffffffffffffffffffffffffffffffffffff021916908373ffffffffffffffffffffffffffffffffffffffff16021790555060208201518160010160006101000a81548173ffffffffffffffffffffffffffffffffffffffff021916908373ffffffffffffffffffffffffffffffffffffffff1602179055506040820151816002015560608201518160030160006101000a81548160ff0219169083151502179055506080820151816004015560a0820151816005019080519060200190611db3929190612449565b5060c0820151816006015550508373ffffffffffffffffffffffffffffffffffffffff16600182611de49190613100565b3373ffffffffffffffffffffffffffffffffffffffff167f941bd0ada49d76f3ef7a5ec4d0f0aa4b60eabdf543214a83b699526fe0a9756886604051611e2a9190612fda565b60405180910390a450505050565b7f1259e29d9bae6d985de2aa88464bb648989ed5ed903940f680996ff13d0578bf81565b60007f01ffc9a7000000000000000000000000000000000000000000000000000000007bffffffffffffffffffffffffffffffffffffffffffffffffffffffff1916827bffffffffffffffffffffffffffffffffffffffffffffffffffffffff1916149050919050565b611ed781611ed2611fba565b6120a3565b50565b611ee48282610fba565b611fb657600160008084815260200190815260200160002060000160008373ffffffffffffffffffffffffffffffffffffffff1673ffffffffffffffffffffffffffffffffffffffff16815260200190815260200160002060006101000a81548160ff021916908315150217905550611f5b611fba565b73ffffffffffffffffffffffffffffffffffffffff168173ffffffffffffffffffffffffffffffffffffffff16837f2f8788117e7eff1d82e926ec794901d17c78024a50270940304540a733656f0d60405160405180910390a45b5050565b600033905090565b611fcc8282610fba565b1561209f57600080600084815260200190815260200160002060000160008373ffffffffffffffffffffffffffffffffffffffff1673ffffffffffffffffffffffffffffffffffffffff16815260200190815260200160002060006101000a81548160ff021916908315150217905550612044611fba565b73ffffffffffffffffffffffffffffffffffffffff168173ffffffffffffffffffffffffffffffffffffffff16837ff6391f5c32d9c69d2a47ea670b442974b53935d1edc7fd64eb21e047a839171b60405160405180910390a45b5050565b6120ad8282610fba565b61213c576120d28173ffffffffffffffffffffffffffffffffffffffff166014612140565b6120e08360001c6020612140565b6040516020016120f1929190612c85565b6040516020818303038152906040526040517f08c379a00000000000000000000000000000000000000000000000000000000081526004016121339190612dd8565b60405180910390fd5b5050565b6060600060028360026121539190613156565b61215d9190613100565b67ffffffffffffffff81111561217657612175613436565b5b6040519080825280601f01601f1916602001820160405280156121a85781602001600182028036833780820191505090505b5090507f3000000000000000000000000000000000000000000000000000000000000000816000815181106121e0576121df613407565b5b60200101907effffffffffffffffffffffffffffffffffffffffffffffffffffffffffffff1916908160001a9053507f78000000000000000000000000000000000000000000000000000000000000008160018151811061224457612243613407565b5b60200101907effffffffffffffffffffffffffffffffffffffffffffffffffffffffffffff1916908160001a905350600060018460026122849190613156565b61228e9190613100565b90505b600181111561232e577f3031323334353637383961626364656600000000000000000000000000000000600f8616601081106122d0576122cf613407565b5b1a60f81b8282815181106122e7576122e6613407565b5b60200101907effffffffffffffffffffffffffffffffffffffffffffffffffffffffffffff1916908160001a905350600485901c945080612327906132a4565b9050612291565b5060008414612372576040517f08c379a000000000000000000000000000000000000000000000000000000000815260040161236990612dfa565b60405180910390fd5b8091505092915050565b828054612388906132ce565b90600052602060002090601f0160209004810192826123aa57600085556123f8565b82601f106123bb57805485556123f8565b828001600101855582156123f857600052602060002091601f016020900482015b828111156123f75782548255916001019190600101906123dc565b5b50905061240591906124cf565b5090565b508054612415906132ce565b6000825580601f106124275750612446565b601f01602090049060005260206000209081019061244591906124cf565b5b50565b828054612455906132ce565b90600052602060002090601f01602090048101928261247757600085556124be565b82601f1061249057805160ff19168380011785556124be565b828001600101855582156124be579182015b828111156124bd5782518255916020019190600101906124a2565b5b5090506124cb91906124cf565b5090565b5b808211156124e85760008160009055506001016124d0565b5090565b60006124ff6124fa8461301a565b612ff5565b90508281526020810184848401111561251b5761251a61346a565b5b612526848285613262565b509392505050565b60008135905061253d81613804565b92915050565b6000813590506125528161381b565b92915050565b60008135905061256781613832565b92915050565b600082601f83011261258257612581613465565b5b81356125928482602086016124ec565b91505092915050565b6000813590506125aa81613849565b92915050565b6000602082840312156125c6576125c5613474565b5b60006125d48482850161252e565b91505092915050565b6000806000606084860312156125f6576125f5613474565b5b60006126048682870161252e565b93505060206126158682870161259b565b925050604084013567ffffffffffffffff8111156126365761263561346f565b5b6126428682870161256d565b9150509250925092565b60006020828403121561266257612661613474565b5b600061267084828501612543565b91505092915050565b600080604083850312156126905761268f613474565b5b600061269e85828601612543565b92505060206126af8582860161252e565b9150509250929050565b6000602082840312156126cf576126ce613474565b5b60006126dd84828501612558565b91505092915050565b6000602082840312156126fc576126fb613474565b5b600061270a8482850161259b565b91505092915050565b6000806040838503121561272a57612729613474565b5b60006127388582860161259b565b92505060206127498582860161252e565b9150509250929050565b600061275f838361277f565b60208301905092915050565b60006127778383612bb6565b905092915050565b612788816131e4565b82525050565b612797816131e4565b82525050565b60006127a88261306b565b6127b281856130a6565b93506127bd8361304b565b8060005b838110156127ee5781516127d58882612753565b97506127e08361308c565b9250506001810190506127c1565b5085935050505092915050565b600061280682613076565b61281081856130b7565b9350836020820285016128228561305b565b8060005b8581101561285e578484038952815161283f858261276b565b945061284a83613099565b925060208a01995050600181019050612826565b50829750879550505050505092915050565b612879816131f6565b82525050565b612888816131f6565b82525050565b61289781613202565b82525050565b60006128a882613081565b6128b281856130d3565b93506128c2818560208601613271565b6128cb81613479565b840191505092915050565b60006128e182613081565b6128eb81856130e4565b93506128fb818560208601613271565b61290481613479565b840191505092915050565b600061291a82613081565b61292481856130f5565b9350612934818560208601613271565b80840191505092915050565b600061294d6020836130e4565b91506129588261348a565b602082019050919050565b60006129706013836130e4565b915061297b826134b3565b602082019050919050565b60006129936014836130e4565b915061299e826134dc565b602082019050919050565b60006129b6601a836130e4565b91506129c182613505565b602082019050919050565b60006129d9601c836130e4565b91506129e48261352e565b602082019050919050565b60006129fc602b836130e4565b9150612a0782613557565b604082019050919050565b6000612a1f6016836130e4565b9150612a2a826135a6565b602082019050919050565b6000612a426020836130e4565b9150612a4d826135cf565b602082019050919050565b6000612a65601e836130e4565b9150612a70826135f8565b602082019050919050565b6000612a886034836130e4565b9150612a9382613621565b604082019050919050565b6000612aab6000836130c8565b9150612ab682613670565b600082019050919050565b6000612ace6024836130e4565b9150612ad982613673565b604082019050919050565b6000612af16015836130e4565b9150612afc826136c2565b602082019050919050565b6000612b146017836130f5565b9150612b1f826136eb565b601782019050919050565b6000612b376019836130e4565b9150612b4282613714565b602082019050919050565b6000612b5a6022836130e4565b9150612b658261373d565b604082019050919050565b6000612b7d6011836130f5565b9150612b888261378c565b601182019050919050565b6000612ba0602f836130e4565b9150612bab826137b5565b604082019050919050565b600060e083016000830151612bce600086018261277f565b506020830151612be1602086018261277f565b506040830151612bf46040860182612c52565b506060830151612c076060860182612870565b506080830151612c1a6080860182612c52565b5060a083015184820360a0860152612c32828261289d565b91505060c0830151612c4760c0860182612c52565b508091505092915050565b612c5b81613258565b82525050565b612c6a81613258565b82525050565b6000612c7b82612a9e565b9150819050919050565b6000612c9082612b07565b9150612c9c828561290f565b9150612ca782612b70565b9150612cb3828461290f565b91508190509392505050565b6000604082019050612cd4600083018561278e565b612ce1602083018461278e565b9392505050565b600060e082019050612cfd600083018a61278e565b612d0a602083018961278e565b612d176040830188612c61565b612d24606083018761287f565b612d316080830186612c61565b81810360a0830152612d4381856128d6565b9050612d5260c0830184612c61565b98975050505050505050565b60006020820190508181036000830152612d78818461279d565b905092915050565b60006020820190508181036000830152612d9a81846127fb565b905092915050565b6000602082019050612db7600083018461287f565b92915050565b6000602082019050612dd2600083018461288e565b92915050565b60006020820190508181036000830152612df281846128d6565b905092915050565b60006020820190508181036000830152612e1381612940565b9050919050565b60006020820190508181036000830152612e3381612963565b9050919050565b60006020820190508181036000830152612e5381612986565b9050919050565b60006020820190508181036000830152612e73816129a9565b9050919050565b60006020820190508181036000830152612e93816129cc565b9050919050565b60006020820190508181036000830152612eb3816129ef565b9050919050565b60006020820190508181036000830152612ed381612a12565b9050919050565b60006020820190508181036000830152612ef381612a35565b9050919050565b60006020820190508181036000830152612f1381612a58565b9050919050565b60006020820190508181036000830152612f3381612a7b565b9050919050565b60006020820190508181036000830152612f5381612ac1565b9050919050565b60006020820190508181036000830152612f7381612ae4565b9050919050565b60006020820190508181036000830152612f9381612b2a565b9050919050565b60006020820190508181036000830152612fb381612b4d565b9050919050565b60006020820190508181036000830152612fd381612b93565b9050919050565b6000602082019050612fef6000830184612c61565b92915050565b6000612fff613010565b905061300b8282613300565b919050565b6000604051905090565b600067ffffffffffffffff82111561303557613034613436565b5b61303e82613479565b9050602081019050919050565b6000819050602082019050919050565b6000819050602082019050919050565b600081519050919050565b600081519050919050565b600081519050919050565b6000602082019050919050565b6000602082019050919050565b600082825260208201905092915050565b600082825260208201905092915050565b600081905092915050565b600082825260208201905092915050565b600082825260208201905092915050565b600081905092915050565b600061310b82613258565b915061311683613258565b9250827fffffffffffffffffffffffffffffffffffffffffffffffffffffffffffffffff0382111561314b5761314a61337a565b5b828201905092915050565b600061316182613258565b915061316c83613258565b9250817fffffffffffffffffffffffffffffffffffffffffffffffffffffffffffffffff04831182151516156131a5576131a461337a565b5b828202905092915050565b60006131bb82613258565b91506131c683613258565b9250828210156131d9576131d861337a565b5b828203905092915050565b60006131ef82613238565b9050919050565b60008115159050919050565b6000819050919050565b60007fffffffff0000000000000000000000000000000000000000000000000000000082169050919050565b600073ffffffffffffffffffffffffffffffffffffffff82169050919050565b6000819050919050565b82818337600083830152505050565b60005b8381101561328f578082015181840152602081019050613274565b8381111561329e576000848401525b50505050565b60006132af82613258565b915060008214156132c3576132c261337a565b5b600182039050919050565b600060028204905060018216806132e657607f821691505b602082108114156132fa576132f96133a9565b5b50919050565b61330982613479565b810181811067ffffffffffffffff8211171561332857613327613436565b5b80604052505050565b600061333c82613258565b91507fffffffffffffffffffffffffffffffffffffffffffffffffffffffffffffffff82141561336f5761336e61337a565b5b600182019050919050565b7f4e487b7100000000000000000000000000000000000000000000000000000000600052601160045260246000fd5b7f4e487b7100000000000000000000000000000000000000000000000000000000600052602260045260246000fd5b7f4e487b7100000000000000000000000000000000000000000000000000000000600052603160045260246000fd5b7f4e487b7100000000000000000000000000000000000000000000000000000000600052603260045260246000fd5b7f4e487b7100000000000000000000000000000000000000000000000000000000600052604160045260246000fd5b600080fd5b600080fd5b600080fd5b600080fd5b6000601f19601f8301169050919050565b7f537472696e67733a20686578206c656e67746820696e73756666696369656e74600082015250565b7f4368696c64206973206e6f7420756e6971756500000000000000000000000000600082015250565b7f506172656e74206973206e6f7420756e69717565000000000000000000000000600082015250565b7f43616e6e6f742065786563757465207472616e73616374696f6e000000000000600082015250565b7f5472616e73616374696f6e20657865637574696f6e206661696c656400000000600082015250565b7f596f7520646f6e277420686176652072696768747320746f207375626d69742060008201527f7472616e73616374696f6e000000000000000000000000000000000000000000602082015250565b7f496e76616c696420506172656e74204164647265737300000000000000000000600082015250565b7f5472616e73616374696f6e20697320616c726561647920636f6e6669726d6564600082015250565b7f54686973207472616e73616374696f6e20646f65736e27742065786973740000600082015250565b7f5472616e73616374696f6e20616c72656164792068617320746865207265717560008201527f69726564206e756d626572206f6620766f746573000000000000000000000000602082015250565b50565b7f54686973207472616e73616374696f6e20697320616c7265616479206578656360008201527f7574656400000000000000000000000000000000000000000000000000000000602082015250565b7f496e76616c6964206368696c6420416464726573730000000000000000000000600082015250565b7f416363657373436f6e74726f6c3a206163636f756e7420000000000000000000600082015250565b7f5472616e73616374696f6e20646f65736e277420657869737400000000000000600082015250565b7f506c6561736520616464206d6f72652062616c616e636520746f20636f6e666960008201527f726d000000000000000000000000000000000000000000000000000000000000602082015250565b7f206973206d697373696e6720726f6c6520000000000000000000000000000000600082015250565b7f416363657373436f6e74726f6c3a2063616e206f6e6c792072656e6f756e636560008201527f20726f6c657320666f722073656c660000000000000000000000000000000000602082015250565b61380d816131e4565b811461381857600080fd5b50565b61382481613202565b811461382f57600080fd5b50565b61383b8161320c565b811461384657600080fd5b50565b61385281613258565b811461385d57600080fd5b5056fea2646970667358221220cad0680f2d17b9cdf1f6128aab62c7ce7b0674fafbe3b4b0b6358149f51971ff64736f6c63430008060033",
  "linkReferences": {},
  "deployedLinkReferences": {}
}